:100000000C94E1080C9412090C9412090C94120936
:100010000C9412090C9412090C9412090C941209F4
:100020000C9412090C9412090C9412090C941209E4
:100030000C9412090C9412090C9412090C941209D4
:100040000C9412090C9412090C9412090C941209C4
:100050000C9412090C9412090C9412090C94B830E7
:100060000C9412090C942C310C9402310C9412094A
:100070000C9412090C9412090C9412090C94120994
:100080000C9412090C9412090C9412090C94120984
:100090000C9412090C9412090C9412090C946231FC
:1000A0000C9412090C9412090C9412090C94120964
:1000B0000C9412090C9412090C9412090C94120954
:1000C0000C9412090C9412090C9412090C94120944
:1000D0000C9412090C9412090C9412090C94120934
:1000E0000C9412090C94CA130C94062D0C944D1305
:1000F0000C94F2090C94CB140C94701C0C9474099D
:100100000C94C31B0C946F090C942B300C941B198A
:100110000C9407150C943E1C0C94A62D0C94ED1712
:100120000C94191C0C94C7090C944E130C94F114E4
:100130000C94D7090C94ED090C94782D0C9483152C
:100140000C94DF090C94C4090C94E22F0C941C1439
:100150000C94F7090C94D2140C941E090C94F81BFF
:100160000C941F300C947D140C94F0170C94E5093A
:100170000C94BE130C940C130C949B0E0C949D3297
:100180000C94CD090C9477090C949A230C94142E9A
:100190000C94DB090C946E300C94372C0C94DA29F7
:1001A0000C94FC140C9414090C94242C0C948913B6
:1001B0000C944E140C94FF1B0C94F2170C94440FE7
:1001C0000C94E61B0C947C1C0C94450B0C94D109EC
:1001D0000C94DB140C94E6140C94A7300C94C81CFB
:1001E0000C94B52B0C94C11C0C94B6150C942613CE
:1001F0000C94C8140C9441150C94E3170C94D41768
:100200000C94282F0C9412150C94500F0C94C81BAE
:100210000C948A1B0C948E150C9462150C94261E5B
:100220000C94C0090C94111F0C94E51F0C94CC176E
:100230000C943D2D0C94A82A0C945B140C94AC2EB9
:100240000C9495130C9482130C94F3090C948B1357
:100250000C948B0B0C94530B0C941A120C94AE143C
:100260000C94E9090C94B8090C94EA170C94D80B77
:100270000C9438140C94B2090C94BC2C0C945F2E82
:100280000C94BC090C94810C0C944A1E0C9495237C
:100290000C94272A0C94BA0F0C94F50A0C94BB14F6
:1002A0000C941D150C94220B0C94310B0C94641CB3
:1002B0000C945F2F0C9424130C94CD170C94202FC6
:1002C0000C94E40D0C94DD2D0C946D090C941D130D
:1002D0001907120720073B0791070B07040774074C
:1002E0005007FD06F306EC064D61696E206D656EE4
:1002F00075003C45786974006D046F0471047104E5
:1003000048657800416C6572742074657374004CA4
:100310004544204F6666004C4544204F6E004F70A8
:1003200032004F7031003107270754696D650000B6
:10033000003A0000490742075375622D4D656E75FE
:10034000003C4261636B0053756231006D076607C4
:100350005F07580743686F6F7365004C61737400E3
:100360005468697264005365636F6E640046697215
:100370007374008A0783077C0753656C6563740098
:1003800054776F004F6E65005A65726F00A0079931
:10039000074C65643A20004F6666004F6E0000000F
:1003A00020002300260029002C002F00320000012D
:1003B00000000301060109010000210024002700BC
:1003C0002A002D0030003300010100000401070164
:1003D0000A0100002200250028002B002E00310019
:1003E000340002010000050108010B0105050505A7
:1003F000070508080808020202020A0A080804049D
:1004000004040101010101010101030303030303CA
:100410000303040707070C0C0C0C0C0C0C0C020259
:10042000020206060606060606060B0B0B0B0B0B56
:100430000B0B0102102020080810204010204080E3
:100440000201020108040201010204081020408098
:100450008040201008040201800402018040201026
:10046000080402010804020101020408102040806F
:10047000010204081020408000000A0B02090C0D44
:100480000E08070304010000000000000000000047
:10049000000000000000000000000000000000005C
:1004A0000000000012111000000000000000000019
:1004B000000000000000000000000000000000003C
:1004C000280A0B06F90500000001010101010000E6
:1004D0000101010000010101000000010000010113
:1004E000010100000000120477090300E802000087
:1004F00001000CD00295132000F2020200000077E8
:100500000906000003000000000002F80204C81BF6
:100510000000040302000000CB1400000F030200DF
:100520000000D21400001703020000007709000049
:100530001E030000000077090000220300000000F5
:10054000770917002A030000000002260377090636
:10055000003003000001002F03A60400003B000A46
:10056000000100770906003303000000003103A8F2
:100570000400000B000100000077090300380300AD
:100580000000000234039513200041030200000024
:100590007709000047030000000077090B005403AF
:1005A00000000000044C030502770900005B030013
:1005B000000000FFFF770900006003000000000357
:1005C00000770900006603000000000200770900C0
:1005D000006D0300000000010077090F007903009F
:1005E000000000037303AA047709000080030000E1
:1005F00000000200770900008403000000000100F1
:100600007709000088030000000000007709090056
:10061000910300000000028D030702770900009794
:1006200003000000000000770900009B03000000A9
:10063000000100BF0203020304010204070D00FED3
:1006400009FE090001BA03AD0B6F2006EFFCF97F2C
:10065000210AEFFC6971DFE19C06220CEFFC49499D
:10066000988449CE9F002311EFFC999230C9062D42
:10067000C9062D09939C09240FEFFCD9D2214AD237
:10068000358986346703250FEFFC2959526A8DD3CB
:10069000524B2D27012610EFFCB988511685629424
:1006A000D4B225A7002709EFFC69719DBF01280D71
:1006B000EFFC89699CC6F538CF4900290DEFFC494C
:1006C000799CC7D538CD89002A0DEFFCB944A136F5
:1006D0006C629473022B0CEFFCB9C5E120C639376C
:1006E000002C0AEFFCF9A751CC51002D09EFFCF9C1
:1006F00032E87C012E0AEFFCF9B774CD31002F0DE2
:10070000EFFCA9711AA7E534CEA9003011EFFC491E
:1007100062544CC2244CC2248C8A3A0D310CEFFC3A
:1007200069A998C43D0E3A053210EFFC29431426FE
:10073000619C86621A0F3B05330FEFFCF1614EABF3
:100740007B9C84D19093003411EFFC89A99864516B
:100750002DCAA2618D7312003510EFFCF161892B57
:10076000931657C268C849003611EFFC495B1A5707
:10077000262D0993301A721200370DEFFCF1614EED
:10078000CB699CC639153814EFFC29431426611235
:1007900046431426611246434E023911EFFC2943A9
:1007A00014266192494B5CCD761A003A0CEFFCB9E5
:1007B000A56B4E4ED71C033B0CEFFCB9A56B4E1D31
:1007C000C51C053C09EFFCA9BD77A7003D0BEFFC5C
:1007D000B90F3B65D8B9003E0AEFFC2979D7EE5432
:1007E000003F0FEFFC29431426619C967338A70144
:1007F0004014EFFC2943142661122DA5A4A24449FC
:100800007DC849004113EFFC4962544CC2244C8618
:10081000254CC224CC29004213EFFCF1412B655139
:10082000160D59298BB264D04900430EEFFC2943C1
:100830001426718FD19093004413EFFCF1412B6586
:1008400051166551166551960C3A09450EEFFCF1AB
:100850006189CB431697879D02460DEFFCF16189B4
:10086000CB4316B793014711EFFC2943142671D3EC
:10087000122699B4E414004814EFFCF130099330C7
:10088000099361099330099330A700490CEFFC29C3
:100890008318F771D029004A0CEFFC696BDC539682
:1008A000ED34004B12EFFCF130C9A25A12AA4918DC
:1008B00065A530A7004C0AEFFCF1B89F879D024D5B
:1008C00014EFFCF13091144949948A524CC2244CE3
:1008D000C29C024E14EFFCF13009132D2925515210
:1008E00053C2244CC29C024F14EFFC2943142661CE
:1008F0001226611226611246434E025010EFFCF19F
:10090000410A93300993418ADBC9005116EFFC2953
:10091000431426611226611226A5244AA221CF1172
:10092000005213EFFCF1410A93300993414AC22867
:100930002B8539055311EFFC29431426713EE471D0
:100940001246434E02540AEFFC298318F73B0D551B
:1009500014EFFCF13009933009933009933009A367
:100960002127015611EFFCF130099330AA455914A3
:10097000AA761A005715EFFCF13009933009934419
:10098000A92889A4484A9853005812EFFCF130096D
:10099000A35A148A5116159330A700590EEFFC295B
:1009A000599455C2248DBBD3005A0DEFFCF1614E12
:1009B000AB6AF3B053005B0CEFFC91218BFBF3901F
:1009C00043005C0DEFFC29711EE7E53CCE29005D7C
:1009D0000BEFFC9121EEDF861C025E0BEFFC6969D8
:1009E00092D5F90B005F09EFFCF9EFC38E006009A7
:1009F000EFFCA13CE7BF01610FEFFC7919F26850F1
:100A0000C22493969C026211EFFCF1B865D2923039
:100A100009132D49761200630EEFFC7919A2308973
:100A20008BD19093006411EFFCA97169A92961121F
:100A30002699B4E41400650FEFFC7919A2301996D9
:100A4000388C869C04660DEFFC495B294E87306E1E
:100A5000A7026710EFFC79596A51966DF91085D19C
:100A600010016811EFFCF1B865D29230099330099A
:100A7000730A00690CEFFCD97254EE38E814006A6E
:100A80000DEFFC597354EE94455936016B0FEFFC92
:100A9000F1B82DAA8D51560A730A006C0AEFFC4971
:100AA000723F0E3A056D11EFFC7951B2A494949205
:100AB0005252CA720A006E10EFFCB927939684490D
:100AC0009884499853006F10EFFC7919A23009936C
:100AD0003009A3212701700FEFFCB9279396848971
:100AE0009624535C06710EEFFC79596A4A9864D2D9
:100AF00012B700720BEFFCB9275B296EA702730FC8
:100B0000EFFC7919A230D2A5301A721200740DEFE1
:100B1000FC59E27408E3B66C27017510EFFCB98745
:100B2000499884499864D2925300760FEFFC79C9B2
:100B3000A22CCA2A6192E634007710EFFC79C9A290
:100B40002C4A4A4929A9253909780DEFFCB9875162
:100B50005115A3624E017911EFFCB9874998844978
:100B6000262D71124643047A0BEFFCB90F6BD76147
:100B7000A7007B0DEFFCB12DAE877A1AD777047CE6
:100B800009EFFC69717FA7017D0DEFFC913DAEE699
:100B9000621ED7760C7E0AEFFC492DA53A7F02A093
:100BA00006EFFCF97FA10AEFFC6939DCEF3400A203
:100BB00010EFFC69E9969492300993DA9AB301A395
:100BC0000EEFFC495B294ED7B896243B09A410EFE1
:100BD000FCD9C368C8A22CCA8628CC5900A511EF3D
:100BE000FCF12CCA2A61920D623888714E04A60A63
:100BF000EFFC69713BDC9D06A711EFFC2131CA7245
:100C000031CAA250CFA250A701A80BEFFC29511660
:100C1000E5FC1300A915EFFC2943142689D294940E
:100C200092529228C568C84900AA0FEFFC497B364A
:100C3000445936E4D0A07301AB11EFFCD9922CC912
:100C4000922C49933449939C05AC0AEFFCF932C8C5
:100C5000752E00AD09EFFCF932E47C02AE15EFFC15
:100C60002943142689D2A25494446951C268C849C0
:100C700000AF09EFFC2983CE7F01B00CEFFC496285
:100C80009445A1CE6F00B10EEFFCD9E27010E31CC9
:100C90001C741600B20CEFFCA13489D3F2CE3700DD
:100CA000B30CEFFC9139CDC324CDF908B409EFFCA6
:100CB000B134E73F02B511EFFCB9874998844998F0
:100CC000484AA2D46100B614EFFC2983B2444BB465
:100CD000644A9884499884494E02B708EFFCF9A405
:100CE000F30DB808EFFCF9DFD210B90AEFFCA154FC
:100CF0006EDDF906BA0EEFFC49629445A10E0E397D
:100D00004F00BB11EFFCE9499AA4499A64499664E3
:100D100049CE08BC10EFFC91546E4B16310993700C
:100D2000CE2900BD0EEFFC91546E8A86244ECB3B3B
:100D300005BE10EFFCE7340F93A824266112CE39CC
:100D400005BF0EEFFC49395C2D8749180D3909C0E4
:100D500012EFFCA13C47C5A89884C9B084499853B8
:100D600000C112EFFCB13487C5A89884C9B084498A
:100D7000985300C213EFFC2131CA41312A26613257
:100D80002C6112E61400C313EFFC11298974508CF6
:100D90008A49980C4B98843905C413EFFC91288B31
:100DA00072508C8A49980C4B98843905C513EFFC16
:100DB00021310A55312A2661322C6112E61400C60F
:100DC00014EFFC29C9524CC2244CA63109933019A6
:100DD000720A00C70EEFFC29431426718FD19016BA
:100DE00001C810EFFCA13CC786258E872C8E879DFD
:100DF00002C910EFFCB1340787258E872C8E879DA2
:100E000002CA11EFFC2131CAA16189E3218BE361A0
:100E1000A700CB12EFFC91288B726858E278C8E2E9
:100E200078D82900CC0EEFFCA13C070731EE38E85A
:100E30001400CD0EEFFCB134470731EE38E8140052
:100E4000CE0EEFFCB134C9B1418C3B0E3A05CF0F49
:100E5000EFFC912CCA726810E38E834E01D013EF21
:100E6000FCF1412B6551964CB5288BB264D04900FA
:100E7000D115EFFC11298974284CB4A494949228BC
:100E8000A929614E01D213EFFCA13C0787284CC26F
:100E9000244CC2248C869C04D313EFFCB1344787C6
:100EA000284CC2244CC2248C869C04D414EFFC2110
:100EB00031CAB1210A933009933009A3212701D502
:100EC00015EFFC112989746C88C2244CC2244CC2D1
:100ED00068C84900D615EFFC91288B726C88C22433
:100EE0004CC2244CC268C84900D70DEFFCD9C3A836
:100EF000A88A51316701D816EFFCD1688832254A9B
:100F00004A4953524A4A89160D510E03D913EFFC30
:100F1000A13CC7C2244CC2244CC2248C869C04DA57
:100F200013EFFCB134072B6112266112266134E401
:100F30002400DB14EFFC2131CAA13009933009935E
:100F40003009A3212701DC15EFFC91288B72284C76
:100F5000C2244CC2244CC268C84900DD0EEFFCC15B
:100F60003407B328ABA4713B0DDE10EFFCF1789091
:100F7000C2244CC26490E23A19DF13EFFC49629438
:100F800045591226619495B228D14900E011EFFC31
:100F900049790E0E7934286192494B4E01E111EFE7
:100FA000FC69698E0E7934286192494B4E01E21238
:100FB000EFFC49629463431E0D4A9864D292530039
:100FC000E313EFFC295212E9D8904783122699B413
:100FD000E41400E413EFFC295116E5D8904783127E
:100FE0002699B4E41400E513EFFC21310A7570C8AA
:100FF000A34109934C5A720A00E611EFFC7951D2D1
:10100000241A94288B9248C94900E70EEFFC7919FD
:10101000A230898BD1901601E811EFFC49790E0EB0
:1010200051980C4B1C46434E02E911EFFC69698E46
:101030000E51980C4B1C46434E02EA12EFFC4962DB
:101040009463431426C31287D1909300EB13EFFCF3
:10105000295116E5D81085C9B0C46134E42400ECE8
:101060000CEFFC49798ECA1D079D02ED0CEFFC695F
:10107000690ECB1D079D02EE0DEFFC496294837251
:10108000C741A700EF0EEFFC295116E5A0DC71D097
:101090002900F014EFFC912814933C1BA230099313
:1010A0003009A3212701F113EFFC295212E9503234
:1010B000694998844998843905F212EFFC49790E00
:1010C0000E519884499884D1909300F312EFFC69F3
:1010D000698E0E519884499884D1909300F413EF4F
:1010E000FC496294634314266112266134E42400AF
:1010F000F513EFFC295212E9D81085499884491854
:101100000D3909F613EFFC295116E5D810854998D9
:101110008449180D3909F70DEFFCD9E21C1C743015
:10112000CED900F812EFFCB94643942951D2946805
:10113000D110E53000F912EFFC49798E8549988489
:10114000499864D2925300FA11EFFC69690E56C2B5
:10115000244CC22493969C02FB13EFFC49629443F7
:1011600061122661122699B4E41400FC13EFFC29E5
:101170005116E550988449988449262D3905FD1368
:10118000EFFC69690E56C2244C32698993301A22E9
:1011900000FE11EFFCE97165D2923009132D49A6CA
:1011A0003806FF15EFFC295116E5509884499864DC
:1011B000D212276134440000000004FFFF00000049
:1011C0009D3211241FBECFEFD1E2DEBFCDBF00E0C4
:1011D0000CBF28E0A2E8B4E001C01D92AA32B20719
:1011E000E1F714E0A0E0B2E0E8E4F6E700E00BBFCE
:1011F00002C007900D92A238B107D9F718E0C1EEEE
:10120000D8E000E006C021970109802FFE010E946E
:10121000EF3AC03ED10780E00807A9F70E948D365B
:101220000C94223B0C940000662329F06A3019F0DC
:10123000862F90E008958FEF9FEF08950F93CF933F
:10124000DF93DC01ED91FC915089362F3770E0E897
:10125000F0E002C0F595E7953A95E2F73E2FA52F0D
:10126000B0E0FC01C0ADD1AD669566956695E62F00
:10127000F0E0549FE00DF11D1124EC0FFD1FEC0177
:10128000C758DF4F011116C08881823018F4908151
:10129000932B90838881813019F0908193279083DC
:1012A000369511F4319630E8215071F7DF91CF91E6
:1012B0000F9108958881823018F49081932B908348
:1012C0008881813019F0908193279083EA0FFB1F6A
:1012D000215081F7EBCF80E0089580E008958A588F
:1012E0009F4FFC018081089590E080E0089590E098
:1012F00080E0089530E020E0DC0114964C911497D2
:10130000042E000C550B241735076CF4A901440F6B
:10131000551F1296ED91FC91E40FF51F118210827A
:101320002F5F3F4FE9CF08958150823108F05AC0B6
:10133000E82FF0E08827E056F64F8F4F0C94EF3AF5
:10134000C009C409B209B809BC09F209C709CD0925
:10135000D109D709DB09DF09E509E909F209ED0936
:10136000F309F709809180008F77809380000895BA
:10137000809180008F7DF9CF80918000877FF5CFAD
:1013800084B58F7784BD089584B58F7DFBCF809120
:10139000B0008F778093B00008958091B0008F7D6A
:1013A000F9CF809190008F7780939000089580917D
:1013B00090008F7DF9CF80919000877FF5CF80914D
:1013C000A0008F778093A00008958091A0008F7D6A
:1013D000F9CF8091A000877FF5CF809120018F7792
:1013E000809320010895809120018F7DF9CF809115
:1013F0002001877FF5CF1F93CF93DF93282F30E015
:10140000F901E858FB4F8491F901EE5CFB4FD49150
:10141000F901E451FC4FC491CC23A9F0162F81119E
:101420000E949409EC2FF0E0EE0FFF1FEE52FC4FEC
:10143000A591B4918FB7F894EC91111108C0D09593
:10144000DE23DC938FBFDF91CF911F910895DE2BB8
:10145000F8CFCF93DF9390E0FC01EE5CFB4F24913B
:1014600084519C4FFC0184918823D1F090E0880F37
:10147000991FFC01E854FC4FA591B491FC01EE5278
:10148000FC4FC591D491623071F49FB7F8943C91B0
:10149000822F809583238C93E8812E2B28839FBFF6
:1014A000DF91CF9108958FB7F894EC912E2B2C9368
:1014B0008FBFF6CF3FB7F89480913C0590913D05E2
:1014C000A0913E05B0913F0526B5A89B05C02F3FD2
:1014D00019F00196A11DB11D3FBFBA2FA92F982F5A
:1014E0008827BC01CD01620F711D811D911D42E055
:1014F000660F771F881F991F4A95D1F708958F921D
:101500009F92AF92BF92CF92DF92EF92FF926B01C8
:101510007C010E945A0A4B015C01C114D104E10410
:10152000F104B9F00E945A0A681979098A099B09DD
:10153000683E73408105910580F321E0C21AD1080D
:10154000E108F10888EE880E83E0981EA11CB11C0A
:10155000E4CFFF90EF90DF90CF90BF90AF909F903F
:101560008F900895CF93DF93EC012FB7F89480917B
:10157000380590913905A0913A05B0913B052FBFF0
:1015800088879987AA87BB87E881F9810484F585D4
:10159000E02DCE01199597FF1EC02FB7F8948091CA
:1015A000380590913905A0913A05B0913B052FBFC0
:1015B000488559856A857B85841B950BA60BB70BDF
:1015C0004C815D816E817F8184179507A607B707DF
:1015D000D8F28FEF9FEFDF91CF910895DC01ED916D
:1015E000FC910190F081E02D1994AF92BF92CF92BF
:1015F000DF92EF92FF920F931F93CF93DF936C01D3
:101600007B018B01040F151FEB015E01AE18BF08B3
:10161000C017D10759F06991D601ED91FC91019065
:10162000F081E02DC6011995892B79F7C501DF916D
:10163000CF911F910F91FF90EF90DF90CF90BF90CF
:10164000AF900895FC01538D448D252F30E0842FF9
:1016500090E0821B930B541710F0CF9608950197DA
:101660000895FC01918D828D981761F0A28DAE0FC7
:10167000BF2FB11D5D968C91928D9F5F9F73928F4E
:1016800090E008958FEF9FEF0895FC01918D828D7A
:10169000981731F0828DE80FF11D858D90E0089547
:1016A0008FEF9FEF0895FC01918D228D892F90E09F
:1016B000805C9F4F821B91098F739927089589E35E
:1016C00096E00E94530B21E0892B09F420E0822F41
:1016D0000895FC01A48DA80FB92FB11DA35ABF4FC7
:1016E0002C91848D90E001968F739927848FA68921
:1016F000B7892C93A089B1898C91837080648C9375
:10170000938D848D981306C00288F389E02D808123
:101710008F7D80830895EF92FF920F931F93CF9355
:10172000DF93EC0181E0888F9B8D8C8D98131AC01C
:10173000E889F989808185FF15C09FB7F894EE8903
:10174000FF896083E889F989808183708064808360
:101750009FBF81E090E0DF91CF911F910F91FF90AB
:10176000EF900895F62E0B8D10E00F5F1F4F0F7353
:101770001127E02E8C8D8E110CC00FB607FCFACF0E
:10178000E889F989808185FFF5CFCE010E94690B38
:10179000F1CFEB8DEC0FFD2FF11DE35AFF4FF082DF
:1017A0009FB7F8940B8FEA89FB8980818062CFCF45
:1017B000CF93DF93EC01888D8823B9F0AA89BB8988
:1017C000E889F9898C9185FD03C0808186FD0DC073
:1017D0000FB607FCF7CF8C9185FFF2CF808185FF94
:1017E000EDCFCE010E94690BE9CFDF91CF91089533
:1017F00080E090E0892B29F00E945F0B81110E940C
:10180000000080E090E0892B49F080E090E0892B97
:1018100029F00E94000081110E94000080E090E009
:10182000892B49F080E090E0892B29F00E9400008C
:1018300081110E94000080E090E0892B49F080E057
:1018400090E0892B29F00E94000081110C94000087
:1018500008952091EC04260F3327331F21323105E0
:10186000ECF420911005FC0190E080E0243069F058
:1018700082E00895A091EC042191AC0144535B4FA8
:10188000A40FB52FB11D2C930196861798F3809164
:10189000EC04680F6093EC0480E0089581E0089503
:1018A00008958FEF9FEF08958FEF9FEF0895809138
:1018B000C50490E09195819591090895CF93DF93A8
:1018C000CB01EA01642F0E94290CCE01DF91CF9158
:1018D0000895CF93DF931F92CDB7DEB7698361E0A0
:1018E000CE0101960E94290C81E090E00F90DF91DB
:1018F000CF910895DC011A96ED91FC9130E020E043
:1019000019941F93CF93DF93EC01A881B9816831BB
:1019100009F49BC038F4643109F489C0673149F097
:1019200080E00EC0693109F4D4C06032C9F76AE4BE
:1019300088C01C968C9180FD3FC0411105C081E09C
:10194000DF91CF911F910895F90181919F0141503D
:10195000DFB7F894A091B304B091B404C091B2047D
:10196000E091B004F091B1047091AF046091AE04C5
:1019700081110EC08C918C238C9388E09081972BE1
:1019800090839081962390838150C1F7DFBFD5CF9C
:101990001091AD0498E05C9187FF0CC0512B5C93D3
:1019A0005081572B5083880F50815623508391507C
:1019B00091F7ECCF5C23F3CF442309F4C0CFF901B6
:1019C00081919F014150DFB7F894A091B304B09189
:1019D000B404C091B204E091B004F091B1046091FC
:1019E000AF047091AE0481110EC08C918C238C9346
:1019F00088E09081972390839081962B90838150EB
:101A0000C1F7DFBFD9CF1091AD0498E05C9187FF9B
:101A10000CC0512B5C93508157235083880F508109
:101A2000562B5083915091F7ECCF5C23F3CF119656
:101A30004C9169E40E947A0CE881F98144854170F7
:101A400060E4CE010E947A0C7ACF4C9169E40E9446
:101A50007A0CA881B981EA85FB8530E020E01296F6
:101A60004C916CE2CE0119958E8D90E0FC01E45111
:101A7000FC4FE491F0E0EE0FFF1FEE52FC4F25917A
:101A800034913093B1042093B004FC01EE5CFB4F21
:101A9000E491E093AF04E095E093AE048F8D90E085
:101AA000FC01E451FC4FE491F0E0EE0FFF1FEE5219
:101AB000FC4F259134913093B4042093B304FC017E
:101AC000EE5CFB4FE491E093AD04E095E093B2044B
:101AD00036CFEA85FB8530E020E013964C916CE22E
:101AE0001995E881F981418169E4ABCFDC01169653
:101AF000ED91FC9130E020E040E069E11994DC01D7
:101B00001696ED91FC9130E020E040E068E11994F8
:101B10009A01DC011696ED91FC91462F67E119942C
:101B2000EF92FF920F931F93CF93DF931F92CDB746
:101B3000DEB77C018B01D8016C91673129F150F43B
:101B40006531A0F40F90DF91CF911F910F91FF901D
:101B5000EF9008956A3118F16E3FA1F7F8014181C5
:101B6000498369E2C7010E947A0C0BC0F8014181E8
:101B70004983D7011696ED91FC9130E020E0C70132
:101B800019950E5F1F4FD7CFF80181818983AE0170
:101B90004F5F5F4F61E0C7010E94880DF2CF0F5F7A
:101BA0001F4FD7011696ED91FC9130E020E040E008
:101BB000C7011995C0CF462FDC011696ED91FC9117
:101BC00030E020E065E11994AF92BF92CF92DF92AE
:101BD000EF92FF920F931F93CF93DF93EC01693045
:101BE00089F482E392E0998388831C8A81E0DF9103
:101BF000CF911F910F91FF90EF90DF90CF90BF900A
:101C0000AF90089579016B3009F440C06F3009F44A
:101C100044C080E06A3059F7EA85FB8530E020E077
:101C200040E068E2CE011995EE81FF8130E020E0CE
:101C300040E064E1CE01199541E06BE4CE010E94E1
:101C40007A0CE881F981448169E2CE010E947A0C24
:101C500040E06BE4CE010E947A0CE881F981448176
:101C600069E2CE010E947A0C41E06BE4CE010E9451
:101C70007A0CE881F981458169E2CE010E947A0CF3
:101C80006FE172E0CE010E94900DB0CF68E172E08A
:101C90004423C1F36DE072E0F5CFF9010481000F38
:101CA000000F000F13811695003210F00052185FDC
:101CB000CE010E947F0DF701A080B1806EE3CE01BE
:101CC0000E94DB0D6EE3CE010E94DB0DD12C10686B
:101CD000602F6D0D6068CE010E94DB0D612FCE017B
:101CE0000E94DB0DF701C280A5016C2DCE010E9480
:101CF000880DAC0CB11CD394F8E0DF12E9CFCE0113
:101D00000E94760D73CF9A01DC011896ED91FC913B
:101D1000462F67E11994CF93DF931F92CDB7DEB7BB
:101D20006983AE014F5F5F4F61E00E94830E0F90A9
:101D3000DF91CF910895CF92DF92EF92FF920F93B0
:101D40001F93CF93DF93EC01142F79016631C1F11A
:101D500030F4643149F06531A9F080E040C067316A
:101D600009F446C06A31C8F7E885F9859701412F23
:101D7000CE01DF91CF911F910F91FF90EF90DF90F7
:101D8000CF90199468EF0E948B0E41E06CE2CE0177
:101D90000E947A0C612F607FCE010E948B0E41E081
:101DA0006CE2CE010E947A0C612F6295607FCE01B9
:101DB0000E948B0E41E06CE2CE010E947A0C0EC0B4
:101DC00068EF0E948B0E612F607FCE010E948B0E08
:101DD000612F6295607FCE010E948B0E81E0DF91C2
:101DE000CF911F910F91FF90EF90DF90CF900895CA
:101DF0006AEF0E948B0E41E06CE2CE010E947A0CE9
:101E0000DE2CCF2C012F083008F5012F0695069502
:101E10000695D12E88EF089FD00C1124E8E00E9F84
:101E2000800111240E0D1F1DDD2021F2F801F1901B
:101E30008F016F2D607FCE010E948B0E6F2D6295FA
:101E4000607FCE010E948B0EDA94EECFA5EBB4E05A
:101E5000ED2DFC2D9F01285F3F4F8191982F907FA2
:101E60009C938295807F11968C9311971296E2171E
:101E7000F30799F7DE2ECF2E085045EB54E060E1D2
:101E8000CE010E94830EBFCF0F93DC01DE963C9102
:101E9000DE97431BD496ED91FC9119950F9108950F
:101EA000CF93DF93FC01A081B18182AD982F990F70
:101EB000990F990F95AF50969C915097903208F0DA
:101EC0009FE1990F990F990F94AF23AD922F990F1E
:101ED000990F990F96AF51963C915197682F620FC9
:101EE0007727771F3617170614F4832F821B97AFB7
:101EF000EF01C05CDF4F880F880F880F890F888340
:101F0000219680EF888354968D919C915597813FBF
:101F1000910508F48883EE5BFF4F56968C91808381
:101F2000DF91CF9108950F93FC01EB5BFF4F308160
:101F300031965081451730F4301738F0041728F0E7
:101F400080E013C03017D0F3FBCFFC01ED5BFF4FF7
:101F500030818C5B9F4FFC018081681740F481E0E9
:101F6000321718F081E0261758F70F9108953217AD
:101F7000C8F3E6CF2F923F924F925F926F927F927B
:101F80008F929F92AF92BF92CF92DF92EF92FF9289
:101F90000F931F93CF93DF93EC014C0183E4880EE2
:101FA000911CF4011082329720805E01F4E4AF0EA0
:101FB000B11CF50120823FAC6E01F5E4CF0ED11CBF
:101FC000F6013082359740807E01F6E4EF0EF11C79
:101FD000F70140823496108132976080319670808C
:101FE00032975080012F262D472D652DCE010E945E
:101FF000930FCD58DF4F811114C01882DF91CF911C
:102000001F910F91FF90EF90DF90CF90BF90AF9016
:102010009F908F907F906F905F904F903F902F9008
:10202000089581E08883552011F0F40150826214F4
:1020300010F4F5016082371410F4F6017082141563
:10204000E8F6F7011083DACFFC01E758FF4F633061
:1020500010F46083089581E0808308950F93DC017C
:10206000802FFD01ED58FF4F90819923E9F1222344
:10207000D9F1223020F0023079F56F5F621B082F12
:102080000170FD0180FD32C0EB5BFF4F808148177E
:1020900058F131968081481738F532979081319701
:1020A0008081260F2617F0F46917D8F42FEF290F37
:1020B0008217D0F4681708F4682F291708F4922FB4
:1020C000961BD696ED91FC91D7970480F581E02D73
:1020D000292FCD01199508C0033089F64F5F421BA7
:1020E000CECF682F691720F30F910895ED5BFF4F56
:1020F00080816817C8F3319680816817A8F73296F7
:10210000908131978081240F241778F4491760F467
:102110002FEF290F821740F7481708F4482F291787
:1021200008F4922F941BCDCF482F4917E8F6F2CF31
:10213000213039F020F0223031F0840F0895860FDD
:102140000895841B0895861B0895213039F020F0EE
:10215000223031F0861B0895840F0895860F08956C
:10216000841B08955F926F927F928F929F92AF929D
:10217000BF92CF92DF92EF92FF920F931F93CF9374
:10218000DF935C01162F642EEC01C15BDF4FDC8016
:10219000ED804C0189E7880E911CFE80FD18C12E50
:1021A000F11608F4CF2C5B800C85202F4E2D6D2D61
:1021B0008A810E949810782E202F4E2D6D2D852D0E
:1021C0000E94A510482F662071F08A85F401808353
:1021D0002C2D672DC5010E942E101F1548F01F19C8
:1021E000E394D12CDACF89858111F7CF8B85EECF9F
:1021F0001D0D1C83ED82DF91CF911F910F91FF90F8
:10220000EF90DF90CF90BF90AF909F908F907F9096
:102210006F905F900895DC0118964C911897ED919E
:10222000FC911197249130E0042E02C0359527953A
:102230000A94E2F7842F860F883068F03196119661
:10224000FC93EE93E49198E0941B01C0EE0F9A95F5
:10225000EAF72E2B885018968C938FEF9FEF01C0D2
:10226000880F6A95EAF7809582230895FC01E60FAE
:10227000F11D849190E0982F88273196E4918E0F7C
:10228000911D0895CF93DF93EC016BAFEEA9FFA9E9
:102290000190F081E02D1995EEA9FFA90280F3814C
:1022A000E02DCE01DF91CF911994AF92BF92CF92E2
:1022B000DF92EF92FF920F931F93CF93DF9300D0A3
:1022C0001F921F92CDB7DEB78C01DC01DA96AC907D
:1022D000DA97DB96EC90DB97ED91FC91B188FE2CC0
:1022E000D12CC12CD801ED91FC9111978089D89601
:1022F0002D913C911C82FD828B83B8E08B9FC001A5
:1023000011248C9DA0018D9D500D9C9D500D11247C
:10231000240F351F3A832983D8011496ED91FC913F
:102320009E012F5F3F4F41E06FE0C8011995F39484
:102330008F2D8E198A1528F4BFEFCB1ADB0AFB14F8
:1023400088F20F900F900F900F900F90DF91CF9128
:102350001F910F91FF90EF90DF90CF90BF90AF90C3
:102360000895CF92DF92EF92FF920F931F93CF9336
:10237000DF937C01162FC42FC22ED02FD62ED20E63
:10238000042F0D0F2D2D0E94930F882319F100E0CB
:102390002C2D4C2F612FC7010E942E10D230D0F06F
:1023A000D250CF5FDD2379F001E02D2F4C2F612F2C
:1023B000C7010E942E106FEF6D0D2D2F4C2FC701FE
:1023C0000E942E10CD0F00E02C2D4C2F612FC70145
:1023D0000E942E10DF91CF911F910F91FF90EF90EF
:1023E000DF90CF900895DF92EF92FF920F931F93AB
:1023F000CF93DF937C01162FC42FD22ED42FD00F72
:10240000262F2D0D0D2F0E94930F811110C0DF91EB
:10241000CF911F910F91FF90EF90DF90089500E012
:102420002D2D4C2F612FC7010E942E10CF5FDC1382
:10243000F6CFEDCF0F931F93CF93DF93EC01862F51
:10244000642F8C3208F03AC08A3208F060C08832BB
:1024500009F44BC0893209F460C0803408F475C0B7
:10246000982F9F73FE01E90FF11D868D8F3F09F4B0
:102470004EC0903108F436C0282F30E0F901E858FA
:10248000FB4F8491F901EE5CFB4F0491F901E4519B
:10249000FC4F1491112379F081110E949409E12FCE
:1024A000F0E0EE0FFF1FE256FC4FA591B491EC91C6
:1024B0000E2381E009F480E0898F29C08D3299F1E3
:1024C00008F4CBCF94EB980F923008F0C6CF8F73FF
:1024D000C80FD11D8E8D411134C061E00E94290AC0
:1024E00060E08E8D0E94FB0912C08E01025E1F4FBC
:1024F000D0E0F80181918F018F3F31F061E0D03160
:1025000008F062E00E94290ADF5FD63191F781E08E
:10251000DF91CF911F910F91089570E090E080E0DE
:102520000E947F0AF4CF85E090E0433010F082E013
:1025300090E0880F991F880F991F05970197F1F771
:10254000E6CF62E00E94290AE2CF80E0E1CFDC0121
:10255000ED91FC910088F189E02D1994DC01ED9159
:10256000FC910190F081E02D1994FF920F931F933D
:10257000CF93DF938C01EB01F42E642FDC011196D5
:102580008D919C910E94A712DC011296ED91FC9115
:1025900013973696259134912C233D23232B71F0EC
:1025A000ED91FC910284F385E02D2F2DA801BE0151
:1025B000DF91CF911F910F91FF90199490E080E0EF
:1025C000DF91CF911F910F91FF9008950F931F936B
:1025D000CF93DF938C01D0E0C0E0D8018D919C9126
:1025E0001197C817D9079CF4CE01880F991F12962E
:1025F000ED91FC91E80FF91F85919491DC01ED912B
:10260000FC910684F785E02D19952196E6CFDF91A0
:10261000CF911F910F9108950F93DC01ED91FC91E3
:102620000488F589E02D01E021E030E041E061E03F
:1026300070E0199580E00F910895CF93DF93CDB7A7
:10264000DEB7DF91CF91089580E00895EF92FF9279
:102650000F931F93CF93DF93EC01142F7901E8813F
:10266000F9810488F589E02D64E070E01995E8812E
:10267000F9810190F081E02D60E2112331F0609149
:102680004305EF2811F060914205CE01DF91CF9113
:102690001F910F91FF90EF9019940895BF92CF92E0
:1026A000DF92EF92FF920F931F93CF93DF937C0102
:1026B0008B01B42EFB01C42E440FDD08EF012196DF
:1026C000649161110EC0C01BD10B8C2F8150DF9122
:1026D000CF911F910F91FF90EF90DF90CF90BF901F
:1026E0000895BB2029F0E01BF10BEC15FD055CF70C
:1026F000D701ED91FC910190F081E02DC701199572
:10270000FE01DCCFCF93DF93CDB7DEB7DF91CF9162
:10271000089580E008950895DC011296ED91FC91F2
:102720003296859194918170089581E090E00895AA
:102730000F931F93CF93DF938B01DC011296CD9102
:10274000DC911397ED91FC910190F081E02D1995AA
:10275000FE013C9625913491682F880F770BC801B4
:102760000E94B93AFC01EE0FFF1FE20FF31F8591A3
:102770009491DF91CF911F910F910895DC01CB01CE
:10278000BA011296ED91FC91139725913491AD0108
:10279000F9011994FC0186810895DC0117962C91AA
:1027A00017971496ED91FC91B5E02B02E00DF11D09
:1027B0001124818192810895CF93DF93EC010E94CF
:1027C000CD132F81AC81BD8135E02302A00DB11D59
:1027D0001124EC01E881F9810088F189E02D6C91E8
:1027E000DF91CF911994DC011296ED91FC91329614
:1027F0008591949196958795969587958170089582
:10280000DC011296ED91FC913896859194916823A4
:10281000792381E0672B09F480E00895DC011296AA
:10282000ED91FC913296859194916823792381E012
:10283000672B09F480E00895CF93DF93DC011696AF
:102840008C911697811111C01296ED91FC911397FE
:102850003C96C591D49181E018964D915C91288168
:1028600039814217530709F480E0DF91CF91089531
:10287000CF93DF93DC0116961C9216971296ED917A
:10288000FC9113973C96C591D491888199811996B2
:102890009C938E931897DF91CF910895DC011D963C
:1028A000ED91FC9180819181DC01ED91FC91068498
:1028B000F785E02D1994CF93DF93EC01ED85FE852C
:1028C00080819181DC01ED91FC910084F185E02D06
:1028D0001995892B69F0ED85FE8580819181DC0158
:1028E000ED91FC910484F585E02DDF91CF91199451
:1028F0008FEF9FEFDF91CF910895CF93DF93EC019E
:10290000ED85FE8580819181DC01ED91FC91008453
:10291000F185E02D1995892BD9F0ED85FE85808113
:102920009181DC01ED91FC910284F385E02D1995F4
:102930002091090230910A022817390761F02FEF20
:102940003FEF30930A0220930902DF91CF9108955F
:102950008FEF9FEFEDCF8FEF9FEFF7CFDC011D964D
:10296000ED91FC9180819181DC01ED91FC910084DD
:10297000F185E02D1994DC011D96ED91FC9180818B
:102980009181DC01ED91FC910680F781E02D199495
:1029900090E080E00895109208021092070290E003
:1029A00080E0089581E090E0909308028093070210
:1029B00090E080E00895DC011D968D919C91DC01F2
:1029C000ED91FC910680F781E02D1994DC011D96B4
:1029D0008D919C91DC01ED91FC910284F385E02DB9
:1029E0001994DC011D968D919C91DC01ED91FC9177
:1029F0000484F585E02D1994DC011D968D919C9140
:102A0000DC01ED91FC910084F185E02D1994DC014D
:102A10001D968D919C91DC01ED91FC910190F081CE
:102A2000E02D1994DC011D968D919C91DC01ED91B6
:102A3000FC910190F081E02D1994EF92FF920F9399
:102A40001F93CF93DF938C017B01D0E0C0E0F701AF
:102A5000EC0FFD1F6491662361F0D801ED91FC91AC
:102A60000190F081E02DC8011995892B11F0219674
:102A7000EECF8C2FDF91CF911F910F91FF90EF90B0
:102A800008950F93CF93DF93EC01E881F9810288D9
:102A9000F389E02D20E040E060E01995E881F981BC
:102AA0000488F589E02D00E021E030E040E061E0BD
:102AB00070E0CE0119958E819F81DF91CF910F91AA
:102AC0000C947A090F93CF93DF93EC01AB89BC8907
:102AD000ED89FE8950E0C5E0C69FC001C79F900DFB
:102AE00011242130310519F4400F511D0296480F71
:102AF000591FE40FF51F6491CD010496DF91CF912A
:102B00000F910C942410DC0153968D919C91DC0163
:102B1000ED91FC910190F081E02D1994CF92DF921C
:102B2000EF92FF920F931F93CF93DF936C01EB0112
:102B30007B01E40EF51E10E000E0CE15DF0561F02C
:102B40006991D601ED91FC910190F081E02DC601D3
:102B50001995080F191FF1CFC801DF91CF911F916F
:102B60000F91FF90EF90DF90CF9008952F923F92BA
:102B70004F925F926F927F928F929F92AF92BF928D
:102B8000CF92DF92EF92FF920F931F93CF93DF9339
:102B900000D000D0CDB7DEB77C016C0124E0C20EBE
:102BA000D11CFC01E158FF4F0190F081E02DC601DE
:102BB00019958C018E3F9F4F08F05BC0370182E86A
:102BC000680E711CF301F081FB83470121E8820E3E
:102BD000911CF401F081FD839701215A3F4F3A8304
:102BE0002983F9018081813009F46AC008F45CC04E
:102BF000823009F471C0833009F47AC0F701EB5ACE
:102C0000FF4F2D81208331963B8130833797808120
:102C1000918147969C838B830F3F110511F008F03B
:102C200015C1B4960136110530F40134110558F080
:102C3000F701EF58FF4F808191812B813C81280F54
:102C4000391F3C832B838B819C810196FC0124914D
:102C500021115AC0412CE981FA818081813009F427
:102C600092C108F48BC1823009F48FC1833009F41A
:102C700091C181E090E026960FB6F894DEBF0FBEBA
:102C8000CDBFDF91CF911F910F91FF90EF90DF901B
:102C9000CF90BF90AF909F908F907F906F905F90FC
:102CA0004F903F902F900895F701EF5AFF4F0190FA
:102CB000F081E02DC6011995FB81F80FFB839ECFB3
:102CC000F701EF5AFF4F0190F081E02DC6011995F1
:102CD0002D81281B2D8392CFF701EF5AFF4F0190D2
:102CE000F081E02DC60119953B81381B3B8386CFCF
:102CF000F701EF5AFF4F0190F081E02DC6011995C1
:102D00009D81980F9D837ACFEB81FC8124912017C0
:102D1000110609F094C0CF010296009709F49ACFEA
:102D2000F701ED5AFF4FFE83ED8391838083108678
:102D3000719660818D819E810E940B11ED81FE81D3
:102D40008683F701EB59FF4F60818D819E810E9440
:102D50000B11582EED81FE818783970123583F4F39
:102D60003C832B83F9019081ED81FE81928781E084
:102D7000911180E0ED81FE818387F701EA59FF4FD1
:102D8000B0806B2D8D819E810E940B11382EF70132
:102D9000E959FF4F2080622D8D819E810E940B1189
:102DA000182FF701E859FF4F0081602F8D819E8118
:102DB0000E940B11015021E030E0A90101C0440F35
:102DC0000A95EAF7482E441AED81FE810681101615
:102DD0000CF041CFBA94C90101C0880FBA94EAF748
:102DE000381AB484150D2A9401C0220F2A94EAF7E8
:102DF000A22EA11A2B2D4A2D632D82810E9498109C
:102E0000182FED81FE8182832B2D4A2D632D838126
:102E10000E94A510ED81FE818383F1E0BF1609F4C5
:102E200093C0BF1608F450C022E0B21609F492C055
:102E300033E0B31609F499C0082F212F49C0FC01D3
:102E400084912B813C81280F311DFBCEF701EB587B
:102E5000FF4F80819181EB81FC81E80FF91FFC839A
:102E6000EB835F0160E0C5010E9436112B813C813C
:102E7000280F391F3C832B8362E0C5010E94361165
:102E800034E0A30EB11C8017910760F3EB81FC8145
:102E9000849190E0982F88273196E4918E2B0097AB
:102EA00009F4D8CE0817190721F48B819C81039669
:102EB00034CFEB81FC813296E4912B813C812E0F43
:102EC000311D3C832B83E2CF202F210F082F050DCE
:102ED000482F612FC6010E94930F882309F4BBCEAF
:102EE000ED81FE81148215825701F2E6AF0EB11C0E
:102EF00023E6E20EF11CF50160818D819E810E9426
:102F00000B11082FF70160818D819E810E940B11AA
:102F1000182F40E0602FC6010E94B21041E0612FDF
:102F2000C6010E94B21061E08D819E810E940B114A
:102F30008111EFCFED81FE8185818515E4F28285D7
:102F4000EB81FC81808387CEB51821E0210F080F2B
:102F50001B0DBECF91E0392F301B21E0210F9519B9
:102F600001E0080F890F130FB3CF212F250D982FE4
:102F7000901B01E0080F81E0890FAACFF401808146
:102F8000480E408276CEF301FACFF4018081841995
:102F900080836FCEF301FACF0895DC011296ED9194
:102FA000FC913A9684910895DC011296ED91FC9182
:102FB0003B9685919491E62FEE0FFF0BE80FF91FDA
:102FC000859194910895DC011296ED91FC913E96C5
:102FD0008491089590E080E00895FC0116820895A0
:102FE00080E0089590E080E00895CF92DF92EF9224
:102FF000FF920F931F93CF93DF93EC018B01888196
:1030000099810E94E6121D870C87FF24F394F986AC
:10301000CE010E94CD13DC011696FC92011511051C
:1030200049F1E880F980D0E0C0E0F701808191812A
:10303000C817D907FCF40280F381E02DCE01880F78
:10304000991FE80FF91FC590D49070E060E0C601A9
:10305000F8011995892B71F4D60118968C9180FF8F
:1030600002C02196E2CF61E070E0C601F801199537
:103070000197B9F7DF91CF911F910F91FF90EF90DA
:10308000DF90CF900895CF92DF92EF92FF920F934F
:103090001F93CF93DF93EC01AB01DB011A968D9167
:1030A0009C91892BE1F4EB81FC812FB7F8948091FE
:1030B000380590913905A0913A05B0913B052FBF95
:1030C000848B958BA68BB78B11E0812FDF91CF91ED
:1030D0001F910F91FF90EF90DF90CF90089589811D
:1030E0009A81DC01ED91FC910680F781E02D00E0F2
:1030F00021E0BE011995182F8111D5CFEB81FC81FC
:103100008189882311F3808D918D892BF1F22FB75E
:10311000F894609138057091390580913A05909145
:103120003B052FBF0B80DC81C02DCC88DD88EE886D
:10313000FF886C197D098E099F0928EE33E040E075
:1031400050E00E94CD3A888D998DB0E0A0E08217C2
:103150009307A407B50708F0B8CF6A857B85CE0131
:103160000E94F517B2CFCF93DF93EC018E859F8538
:1031700021E0DC0116962C930E948C139F818823FA
:1031800009F440C0992369F191509F832C813D81BE
:10319000F90145E09402E00DF11D1124CF014081B9
:1031A00064E070E00E94B512CE010E94CD1321E0D0
:1031B000FC012683CE010E94CD139F878E87DC0100
:1031C0001296ED91FC9132968591949184FF03C003
:1031D000CE010E94B31861E070E08FEFDF91CF91D4
:1031E00008958989882301F38C819D81DC014C91AC
:1031F00064E070E00E94B5126A857B85CE010E9472
:10320000F517D2CF2C813D81F90145E09402E00D04
:10321000F11D1124CF01408164E070E00E94B512DD
:103220008A819B81DC01ED91FC910684F785E02D7C
:1032300060E01995B9CF0F931F93CF93DF93EC0103
:103240008B012330310509F463C0F0F421303105DE
:1032500011F12230310509F18E81882309F46AC009
:10326000D8011396ED91FC91828960E071E08111A3
:1032700002C062E070E0F8014081C801DF91CF91A7
:103280001F910F910C94B5122430310509F44AC0F6
:103290002730310509F781E08F838F81882321F161
:1032A0001F8281E08E83E881F9810288F389E02D15
:1032B000CE011995D8011396ED91FC91828960E0B9
:1032C00071E0811102C062E070E0F8014081C80144
:1032D0000E94B512D80113968D919C91DF91CF91E8
:1032E0001F910F910C94B318D8011396ED91FC9196
:1032F00080898111D5CFE881F9810088F189E02D9D
:10330000CE011995882361F281E08F838E83A4CF4B
:10331000E881F9810488F589E02D61E070E0CE0153
:1033200019959ACFE881F9810488F589E02D6FEF2E
:103330007FEFF5CFDF91CF911F910F910895DF922D
:10334000EF92FF920F931F93CF93DF93EC010E94B4
:10335000DC13DC0114968D919C91892B09F4B1C08A
:10336000CE010E94DC138C01DC01ED91FC91E08424
:10337000F184CE010E94DC132F814C815D81B5E088
:103380002B02400D511D11249C0161E070E0C80129
:10339000F7011995892B09F094C0CE010E94DC1326
:1033A0007C01DC011296ED91FC913296059114910D
:1033B000027011270E948C13D82E2F818C819D8141
:1033C000B5E02B02800D911D1124FC01408162E0CB
:1033D00070E00E94B512009709F063C0DD2009F487
:1033E00073C0012B61F402E010E0B8018FEFDF91B0
:1033F000CF911F910F91FF90EF90DF9008959F81E3
:103400008E819817A4F5CE010E94CD1311E0DC0146
:1034100016961C93CE010E94DC132F812F5F2F8301
:10342000EC81FD81B5E02B02E00DF11D11249283AA
:1034300081831082CE010E94CD13FC011683D70137
:10344000ED91FC9100851185CE010E94DC132F8146
:103450004C815D81B5E02B02400D511D11249C0172
:1034600062E070E0C701F801199502E006C061EC66
:103470007CE1CE010E94F51700E010E0FF86EE86A9
:1034800081E0D70116968C93D110AFCF8A819B81B2
:10349000DC01ED91FC910684F785E02D61E0199542
:1034A000A4CF019751F4CE010E94DC130E948C132B
:1034B000811103C0CE010E94B318012B09F493CFF0
:1034C000D4CF60E070E092CF012B09F48CCFFF865F
:1034D000EE8681E0F701868302E010E0D7CF9F926D
:1034E000AF92BF92CF92DF92EF92FF920F931F9312
:1034F000CF93DF938C016A01EA01E62EDC019C90F8
:103500004330510509F487C0B0F44130510509F446
:10351000D9C04230510509F4DEC0BE018E2DDF91C5
:10352000CF911F910F91FF90EF90DF90CF90BF90C0
:10353000AF909F9008954430510509F497C0CA0197
:103540000797029750F767FDE8CFF80181819281D4
:103550000E94AE12E8160CF75601FE2CD801119607
:103560008D919C91DC011296ED91FC913296259102
:1035700034912C703327232B09F4B3C021E0FC01D4
:103580002683F80141815281DA0112968D919C9136
:10359000FC0136962591349127FF08C0FC01259146
:1035A0003491B80180E890E0F9011995492D60E265
:1035B00070E0C8010E94B512D801FC92B7E0CB1AA6
:1035C000D108E501E2E0CE16D10448F4D801139603
:1035D0008D919C910E949F19C62FD72FE82E4F2DB9
:1035E00060E170E0C8010E94B512F801418152818A
:1035F000DA0112968D919C91FC01369625913491B9
:1036000026FF8BCFFC0125913491B80180E490E036
:10361000F901199582CFFC01818192810E94AE123D
:10362000882309F47ACFFF24F394F90CD80111967A
:103630008D919C910E94AE12F8168CF0F801818158
:103640009281DC011296ED91FC913896259134918E
:1036500020FD58C00E94AE12FF24FA94F80E33E009
:10366000A32EB12C9F107ACFE50157CFFC018181A9
:103670009281911009C0DC011296ED91FC91329675
:103680002591349124FD1EC00E94AE12882309F4B6
:1036900044CFFF24FA94F90CF7FE11C0F8018181A0
:1036A0009281DC011296ED91FC913896259134912E
:1036B00020FF2DC00E94AE12FF24FA94F80E94E071
:1036C000A92ECFCFF801838194810E94B318C62F11
:1036D000D72FE82E22CF13968D919C910E949F198F
:1036E000F6CF692D0E94A712C1E0DC011696CC939B
:1036F0006F2DF801818192810E94A712DC0116963C
:10370000CC933FCF23E0A22EB12CF12CABCF84E0A1
:10371000A82EFACFCF92DF92EF920F931F93CF9301
:10372000DF938C01EB016901E42EDC01ED91FC914A
:103730000288F389E02D199588836E2DA601CE01AC
:103740000E946F1A6B01D801ED91FC910488F589F4
:10375000E02D6881C8011995B2E0CB16D10459F467
:103760008B819C81DF91CF911F910F91EF90DF9022
:10377000CF900C94B318DF91CF911F910F91EF90E0
:10378000DF90CF900895CB01642FA9010C946F1A9C
:1037900068EC7CE188EC95E00E94F51790E080E011
:1037A00008950E940B3BFB0101900020E9F731973F
:1037B000AF01461B570BDC01ED91FC910280F381B8
:1037C000E02D199468EA73E00C94D31B1F93CF93F8
:1037D000DF93EC01142F8F8587FD05C0841719F046
:1037E000CE010E94E21B1F87DF91CF911F910895A8
:1037F0002FEFFC012787858596850C94E21B0F939C
:103800001F93CF93DF938C01C62F0E94E21BD80138
:103810001696ED91FC91CC0FDD0B0280F381E02D2B
:10382000EC0FFD1F11821082DF91CF911F910F913C
:103830000895CF93DF93EC010E94E21B8E819F815C
:10384000DF91CF910C947A096115710511F00C94F8
:10385000D31B90E080E008950F931F93CF93DF93E5
:10386000EC010E94241C8C01CE010E94E21B800FFF
:10387000911FDF91CF911F910F9108950F931F9387
:10388000CF93DF93EC018B01E881F9810684F78502
:10389000E02D19950130110589F050F00230110525
:1038A00081F090E080E0DF91CF911F910F9108951A
:1038B0006BEA73E0CE010E942C1CF3CF6CEB73E03B
:1038C000F9CF69EC73E0F6CF0F9362E374E0002365
:1038D00011F068ED73E00E94241C81E00F910895BF
:1038E0000F936CED73E0002311F06AED73E00E941A
:1038F000241C81E00F9108958F929F92AF92BF9206
:10390000EF92FF920F931F93CF93DF93CDB7DEB764
:10391000A1970FB6F894DEBF0FBECDBF7B01FC01AF
:103920002085318550E040E019A28E010F5D1F4FC8
:103930008AE0882E912CA12CB12CCA01B901A501D5
:1039400094010E94CD3A605DF80162938F012115C8
:1039500031054105510589F7BF01C7010E94241CAB
:10396000A1960FB6F894DEBF0FBECDBFDF91CF9109
:103970001F910F91FF90EF90BF90AF909F908F900D
:1039800008956EED73E00E94D31B90E080E00895EF
:10399000CF93DF936130710569F5EC01E881F9811E
:1039A0000288F389E02D20E040E060E019956AE1AB
:1039B00074E0CE010E94D31BE881F9810288F3896B
:1039C000E02D20E041E060E0CE01199565E274E071
:1039D000CE010E94D31BE881F9810288F389E02D92
:1039E00020E042E060E0CE01199564E374E0CE018E
:1039F0000E94D31B90E080E0DF91CF9108951F9348
:103A0000CF93DF9385ED8093BC008091C8049091A3
:103A1000C904A091CA04B091CB040796A11DB11DA1
:103A200023E0B695A795979587952A95D1F720918C
:103A3000BC0024FD03C01092100552C04091C80480
:103A40005091C9046091CA047091CB04452B462B58
:103A5000472B69F30097A105B10541F02AE22A95A9
:103A6000F1F700C00197A109B109E1CF8091C70426
:103A7000C1E0C093C604882399F1D091B800109199
:103A8000BA008091BC008A7B8093BC0060E084E136
:103A90000E94FB0960E085E10E94FB09109210057D
:103AA000C09312051092110561E084E10E94FB09A8
:103AB00061E085E10E94FB098091B9008E7F8093CF
:103AC000B9008091B9008D7F8093B90088E480931C
:103AD000B80085E48093BC001093BA00D093B8007E
:103AE000DF91CF911F910895FC01A081B181509683
:103AF0002C9182AD38E0839FC0011124289FA00142
:103B0000299F500D112470E060E080AD91AD0C94C0
:103B1000103B1F93CF93DF93EC010E9455111BAD17
:103B20008AAD180FE881F9818189181768F0EC8156
:103B3000FD8130E020E040E060E1CE01199580E0B9
:103B4000DF91CF911F910895FE01E658FF4F8081CC
:103B5000882319F0CE010E94741D612FCE010E94AE
:103B6000421181E0EDCFCF93DF93EC01FC01E658E9
:103B7000FF4F8081882319F0CE010E94741D60E000
:103B8000CE01DF91CF910C944211CF93DF93C62FDA
:103B9000DC011396ED91FC91828D882381F0062E35
:103BA000000C770B83E494E00E94173B892B39F0DB
:103BB00067E070E08FEC8C0FDF91CF9108958091DA
:103BC000AC0481111CC081E0CB31F1F0409144057F
:103BD00050914505FA0130E020E00C2E000CDD0B81
:103BE00062816C171D0659F5F901EE0FFF1FE20FF8
:103BF000F31FE40FF51F608171818FEFDDCF8130FE
:103C000051F4CB3529F482E08093AC0460E00EC01F
:103C10001092AC04FBCF8230C9F61092AC0463E082
:103C2000C23421F02CF464E0C13481F770E0E5CFB8
:103C300062E0C334D9F361E0C434C1F3E7CF2F5F4E
:103C40003F4F33962A30310559F6E0CFEF92FF927D
:103C50000F931F93CF93DF93EC018B01CA01E8818F
:103C6000F981E684F784DA01ED91FC910284F38511
:103C7000E02D1995682FC8010E94C51D9B01482F92
:103C8000B801CE01F701DF91CF911F910F91FF9005
:103C9000EF901994CF92DF92FF920F931F93CF93DF
:103CA000DF93EC016B018A01DA01ED91FC91008454
:103CB000F185E02DCA011995892B09F46BC0D80153
:103CC000ED91FC910484F585E02DC8011995F82E3D
:103CD000809147058823E1F0E0914405F091450586
:103CE0008385F81649F08685F81631F08085F81638
:103CF00019F08581F8120CC0A801B601CE01DF9140
:103D0000CF911F910F91FF90DF90CF900C94261EC2
:103D1000B8E0FB16D9F0EDE0FE1244C0D801ED91F9
:103D2000FC910284F385E02DC80119951F8281E082
:103D30008E831986F60183819481DF91CF911F9143
:103D40000F91FF90DF90CF900C94B318D801ED91B4
:103D5000FC910284F385E02DC80119956985062E32
:103D6000000C770BCE010E949813EA81FB813A96F2
:103D700025913491FC0180819985290F311D97FD92
:103D80003A95D9018C938985882311F081508987D0
:103D900081E08E83DF91CF911F910F91FF90DF9093
:103DA000CF9008956985062E000C770BCE010E94F6
:103DB00098136F2D0F2C000C770B0E94173B892B4B
:103DC00009F49ACFD801ED91FC910284F385E02D9E
:103DD000C8011995EA81FB813A96859194912985CC
:103DE000820F911D27FD9A95FC01F0828985EA8159
:103DF000FB813A96A591B491FD0101900020E9F76D
:103E00003197EA1BFB0B282F082E000C330B0E2ECC
:103E1000000CFF0B31978F5F2E173F070CF4B7CFC5
:103E2000B7CFCF92DF92EF92FF920F931F93CF9372
:103E3000DF93EC012230310509F453C068F42130DE
:103E4000310509F469C0DF91CF911F910F91FF9067
:103E5000EF90DF90CF9008952330310509F463C0CF
:103E60002430310581F769858F81882309F4A8C042
:103E7000062E000C770BCE010E9498137C010A815C
:103E80001B81065F1F4FF80185919491C9840C2C0A
:103E9000000CDD088C0D9D1DFC016081062E000CC0
:103EA000770BC7010E94173B009709F46CC08E196D
:103EB0009F09815087FF07C0D7010D900020E9F7C7
:103EC0008A2F8E198250F80125913491F701E80F5D
:103ED000F11D87FDFA958081C20ED31EF601808305
:103EE0006CC08F819885992389F081110FC0188645
:103EF0001986FB0183819481DF91CF911F910F91EE
:103F0000FF90EF90DF90CF900C94B31891E0892749
:103F10008F839E83988797CF81E08E838F818823BC
:103F200031F31F8290CF8985682F082E000C770B04
:103F30009F81992361F1CE010E9498137C010A812F
:103F40001B81065F1F4FF80185919491C9840C2C49
:103F5000000CDD088C0D9D1DFC016081062E000CFF
:103F6000770BC7010E94173B009779F08E199F09C4
:103F70008F5FF70101900020E9F73197EE19FF09F3
:103F80008E170CF4A0CF80E09ECF81E0F2CFEA81C3
:103F9000FB813A96A591B491FD0101900020E9F7CB
:103FA0003197EA1BFB0B0E2E000CFF0B31976E179F
:103FB0007F0714F48F5F8987188681E08E8343CF53
:103FC0006623D1F361506987F7CF2F923F924F92CA
:103FD0005F926F927F928F929F92AF92BF92CF9299
:103FE000DF92EF92FF920F931F93CF93DF9300D056
:103FF00000D01F92CDB7DEB71C017B836A835F833D
:104000004E83DA01ED91FC910484F585E02DCA011F
:1040100019958D3209F041C0AE81BF81ED91FC91BF
:1040200011970284F385E02DCD011995AE81BF81F2
:10403000ED91FC9111970484F585E02DCD01199542
:10404000BC0183E494E00E94173B892B09F0B1C0C6
:10405000D101ED91FC910684F785E02D24E030E05C
:104060004FEF6A817B81C10127960FB6F894DEBFBE
:104070000FBECDBFDF91CF911F910F91FF90EF90B9
:10408000DF90CF90BF90AF909F908F907F906F9078
:104090005F904F903F902F901994682F880F770B67
:1040A00083E494E00E94173B892B09F4E0C080E090
:1040B000EE81FF81F485FD83FF2309F4D0C0412CFC
:1040C000512C20E8622E2FEB722E811106C0412C5C
:1040D000512C90E8692E9FE3792E8E819F810E945A
:1040E000B20A8C0197FDB7C0AE81BF81ED91FC9102
:1040F0000284F385E02D8D32910509F05CC0812C9E
:10410000912C80E8A82E8FE3B82EC12CD12C7601FB
:1041100019821C820130110561F10D32110509F47B
:1041200056C00E32110509F455C0C801C0970A9750
:1041300000F5AAE0B0E0A70196010E94703A68017C
:10414000110FEE08FF08C60ED71EE81EF91EB0E3D9
:10415000CB1AD108E108F108E981EE2351F02DECEA
:104160003CEC4CEC5DE3C501B4010E94B2394B015B
:104170005C01AE81BF81ED91FC9111970284F385C2
:10418000E02DCD0119958E819F810E94B20A8C018C
:10419000C0970A9708F4BECF0E321105F1F4B98129
:1041A000BB2309F4B7CFFC81FF2369F1FC81F983BC
:1041B0001BC081E07DCFC0970A9708F4A0CF0E32D4
:1041C000110509F49CCF8E819F81199586CFFD81C1
:1041D000FC83CFCF2D812983CCCF0130110509F489
:1041E00099CFEC81EE2341F0F094E094D094C09408
:1041F000C11CD11CE11CF11CC701B6010E9477391A
:104200002981222341F0C701B6010E947739A50117
:1042100094010E94B239D1011296ED91FC913C9625
:10422000259134913F832E839B01AC01C301B201E0
:104230000E94B2390E948A3AAE81BF816D937C930D
:1042400081E0F10187830190F081E02D0684F785FC
:10425000E02D22E004CF60E070E0CB01DCCFD101A3
:10426000ED91FC910684F785E02D27E0F8CED10191
:10427000ED91FC9106851785AE81BF81ED91FC9192
:1042800011970284F385E02DCD011995682F8A815D
:104290009B810E94C51D9B01482F6A817B81C101C2
:1042A000F801E2CECF93DF9300D01F92CDB7DEB7F7
:1042B00024E06202B0011124680F791F44E050E04D
:1042C000CE0101960E946C3969817A818B819C8133
:1042D0000F900F900F900F90DF91CF910895FC01F8
:1042E000808191810E945221892F08952F923F92BF
:1042F0004F925F926F927F928F929F92AF92BF92F6
:10430000CF92EF92FF920F931F93CF93DF93EC0125
:104310002B015A01122FE881F9810488F589E02DDB
:1043200000E021E030E040E061E070E0199560E1FC
:1043300070E0C5010E940E14882309F45DC0912C21
:10434000812CD501ED91FC910190F081E02DC5010A
:104350001995082E000C990B881699060CF0D6C0FA
:10436000D501ED91FC910088F189E02D682DC50102
:1043700019953C01FC0124813581E881F98104888B
:10438000F589E02D00E040E061E070E0CE01199594
:10439000D30114962D913C91E881F9810688F78923
:1043A000E02DE12E40E0682DCE011995F301248126
:1043B0003581E881F9810488F589E02D40E061E0EC
:1043C00070E0CE011995D301ED91FC9124803580E8
:1043D000EE81FF81612F808191810E945221C12E47
:1043E000E82E082D9E0140E0B201C301F1011995AC
:1043F000FFEF8F1A9F0AA5CFE881F9810088F18924
:10440000E02D612FCE011995E881F9810288F389A9
:10441000E02D212F40E060E0CE011995312C612F75
:104420008E819F810E946F2138160CF06FC0D501DC
:10443000ED91FC910190F081E02DC50119953816A0
:104440000CF064C0D501ED91FC910088F189E02D5C
:10445000632DC50119954C01FC01E480F580E881CC
:10446000F9810484F585E02DC12C00E030E020E0E6
:10447000412F632DCE011995E881F9810288F389D6
:10448000E02D212F432D60E0CE011995D401149623
:104490002D913C91E881F9810488F589E02D40E077
:1044A00061E070E0CE011995F40124813581E88145
:1044B000F9810688F789E02DE12E40E0632DCE01D9
:1044C0001995D40114962D913C91E881F9810488C5
:1044D000F589E02D40E061E070E0CE011995D4014E
:1044E000ED91FC9164807580EE81FF81612F808168
:1044F00091810E945221C12EE82E032D9E0140E0A1
:10450000B201C401F3011995339489CFDF91CF91A2
:104510001F910F91FF90EF90CF90BF90AF909F9021
:104520008F907F906F905F904F903F902F90089565
:104530005F926F927F928F929F92AF92BF92CF9233
:10454000DF92EF92FF920F931F93CF93DF93DC01E3
:1045500016961C911111E7C0502E022F3A017B01D3
:10456000EC0164E170E00E940E14882341F1D12C2B
:10457000C12CE881F9810190F081E02DCE011995DF
:10458000082E000C990BC816D90614F5E881F9819C
:104590000088F189E02D6C2DCE011995DC01ED919B
:1045A000FC910680F781E02D052D20E0A301B701E5
:1045B00019958111B8C0BFEFCB1ADB0ADACFF7012A
:1045C000818192818C179D0711F4011112C01E8107
:1045D000812FDF91CF911F910F91FF90EF90DF908E
:1045E000CF90BF90AF909F908F907F906F905F9093
:1045F00008950380F481E02DC7800E94F313BC2D41
:10460000E5E0BE02500111248823D1F0D7011396B2
:10461000ED91FC91B5E0AB1AB108648175816A0D2A
:104620007B1DFB0181819281DC01ED91FC91068073
:10463000F781E02D052D21E0A3011995182FC8CF92
:1046400060E0F301868197810E946F21082F62E06C
:1046500070E0CE010E940014811161C0D701139651
:10466000ED91FC918085882309F45BC064E070E0E3
:10467000CE010E94001491E08927081BF301848079
:1046800095800C2C000CDD08D7011396ED91FC9160
:1046900064817581A60EB71EF501A180B28060E12C
:1046A00070E0C5010E940E14811105C064E070E045
:1046B000C5010E940E14C81AD1088C0C9D1CD4018F
:1046C0009C90D12CC12CA02E000FBB08092D0C0DE5
:1046D000CA14DB040CF07CCFE881F9810190F081F1
:1046E000E02DCE01199508170CF072CFE881F98101
:1046F0000088F189E02D602FCE011995DC01ED9144
:10470000FC910680F781E02D052D20E0A301B70183
:104710001995811108C0BFEFCB1ADB0AD7CF81E012
:10472000ACCF80E0AACF11E053CF0F930E94982224
:104730000F9108956F927F928F929F92AF92BF9246
:10474000CF92DF92EF92FF920F931F93CF93DF935D
:10475000EC017B016A01622E1E8264E170E00E941E
:104760000E14882329F110E000E0E881F98101901E
:10477000F081E02DCE011995082E000C990B081739
:1047800019070CF0C1C0E881F9810088F189E02D9A
:10479000602FCE011995DC01ED91FC910280F3812F
:1047A000E02D20E0A601B70119950F5F1F4FDDCF67
:1047B000D7011396ED91FC917780CE010E94F313FF
:1047C000B72DE5E0BE02400111248823B1F0D701E6
:1047D0001396ED91FC9164817581C4010597680F72
:1047E000791FFB0181819281DC01ED91FC910280B6
:1047F000F381E02D262DA601199560E0F601868152
:1048000097810E946F21B82E62E070E0CE010E9475
:104810000014AA24A394811110C0D7011396ED911E
:10482000FC918085A12C882341F064E070E0CE01EA
:104830000E94001491E0A82EA926F601048115819A
:10484000D7011396ED91FC9184819581880E991E74
:10485000F4018180928060E170E0C4010E940E1436
:10486000811105C064E070E0C4010E940E1466204E
:1048700009F44AC0272D770C330BA901481B5109B5
:10488000CA01800F911FDC017C90912C812CBA18F9
:10489000AB2CBB0CBB08172D180D8A149B04A4F578
:1048A000E881F9810190F081E02DCE01199518176A
:1048B0005CF5E881F9810088F189E02D612FCE0156
:1048C0001995DC01ED91FC910280F381E02D20E04F
:1048D000A601B7011995E881F9810088F189E02DD9
:1048E000612FCE011995DC01ED91FC910680F781D5
:1048F000E02D00E020E0A601B7011995811104C068
:10490000BFEF8B1A9B0AC7CFDF91CF911F910F91F9
:10491000FF90EF90DF90CF90BF90AF909F908F90DF
:104920007F906F9008952F923F924F925F926F9277
:104930007F928F929F92AF92BF92CF92DF92EF922F
:10494000FF920F931F93CF93DF93CDB7DEB763979B
:104950000FB6F894DEBF0FBECDBF9B8B8A8B2B01A9
:10496000142FDB011396ED91FC9165E070E08685D4
:1049700097850E940E14082FF20183819481DC0137
:10498000011154C01E968D919C91DC01ED91FC911A
:104990000680F781E02D20E04A895B89B2011995F4
:1049A000882309F1D2011396ED91FC91A684B78476
:1049B000D501ED91FC9184809580AA89BB891696DA
:1049C000ED91FC91612F808191810E945221F20131
:1049D00063817481C12EE82E00812A893B8941E0E0
:1049E000C501F4011995F20181819281AA89BB89DF
:1049F0001B969C938E931A9780E063960FB6F8945B
:104A0000DEBF0FBECDBFDF91CF911F910F91FF9001
:104A1000EF90DF90CF90BF90AF909F908F907F905E
:104A20006F905F904F903F902F9008951796AC90A5
:104A3000AA2031F00E94CD130E94F3138111AA9491
:104A40000A2C000CBB08AA89BB891496ED91FC9135
:104A5000EA0DFB1D608060E170E0F20181819281CE
:104A60000E940E14382ED2011196ED91FC911297EE
:104A7000828193810896FC012591349121FD0BC020
:104A80001396ED91FC917084772099F0FC0185914B
:104A9000949182FD0DC031100BC0612FEA89FB8912
:104AA000868197810E946F217724739482300CF461
:104AB000712CD20111968D919C910E94F31381115A
:104AC00029C0C72CD12CEA89FB898485882309F465
:104AD0008BC0D201FC900680F781E02D612F808190
:104AE00091810E945221AA89BB891496ED91FC9173
:104AF000EA0DFB1D2F2D0F2C000C330B672F690FB8
:104B0000062E000C770B6C197D09C9010E94B93A79
:104B1000F81AF082EA89FB89408540FD34C00480A0
:104B2000F581E02DEA0DFB1D808186112CC0AA893C
:104B3000BB891A968D919C911B97F201218132813C
:104B40008217930701F51696ED91FC910280F3818F
:104B5000E02D212F220F330BE20FF31F2081318133
:104B60002415350581F400E041FD0DC0DC01ED9117
:104B7000FC910680F781E02D00E021E04A895B8905
:104B8000B2011995082FD2011196ED91FC91D680B2
:104B9000D02A29F4EA89FB89808581FF2DCFAA8953
:104BA000BB891696ED91FC91612F808191810E94C5
:104BB0005221982E711061C1F20181819281DC0134
:104BC000ED91FC910680F781E02D00E020E04A891C
:104BD0005B89B201199581113FC1D11040C13320C9
:104BE00009F4A1C11982A8C1F20180814601880E91
:104BF000911C87FD9A94AA89BB891496ED91FC912A
:104C00001597EA0DFB1DE0800E2C000CFF08612FAC
:104C100016968D919C910E946F21E80EF11C87FDE4
:104C2000FA948E149F045CF0AA89BB891496ED91C6
:104C3000FC91EA0DFB1D80818F5F8083D5CFAA890F
:104C4000BB891496ED91FC91EA0DFB1D9081F20158
:104C5000808189175CF4AA89BB891496ED91FC9137
:104C6000EA0DFB1D808181508083E9CF2181328153
:104C7000992309F44FCFC9010E94AE12E82E880F84
:104C8000FF08AA89BB891496ED91FC911597EA0D4E
:104C9000FB1D8081E81AF10887FDF394612F1696B9
:104CA0008D919C910E946F21082E000C990B8C19FC
:104CB0009D09E816F9067CF22DCF332009F433C1A3
:104CC0006FE474E08A899B890E94D31B8BCF612F8C
:104CD000EA89FB89868197810E946F21082E000C4A
:104CE000990B29853A85821B930BE816F9060CF47B
:104CF0004AC179CEDC01ED91FC910680F781E02D6F
:104D000000E020E04A895B89B2011995811158C100
:104D1000839432C1332009F484C02A813B81621616
:104D2000730609F07EC06CED73E08A899B890E944E
:104D3000D31BF92CEE24EA94EF0CF5012481358184
:104D4000AA89BB89ED91FC9111970488F589E02D22
:104D50000C81422D61E070E0CD0119951E140CF517
:104D6000F20163817481D501ED91FC910480F5819C
:104D7000E02DC12E082D2A893B89422DC5011995A8
:104D800018167CF4332069F0EA81FB8162E374E059
:104D90006E167F0611F06AEA73E08A899B890E9489
:104DA000241C2A813B816216730609F0B1CFAA89BF
:104DB000BB891696ED91FC918481082E000C990B0D
:104DC000EE85FF85E817F9070CF0A2CFC5010E9418
:104DD0008C13882349F0D5011296ED91FC913296FF
:104DE0008591949184FF1FC0AA89BB891696ED9185
:104DF000FC910280F381E02D2F813885E20FF31FB3
:104E000080819181892B09F483CFAA89BB89ED9197
:104E1000FC9111970088F189E02D6B85CD011995E2
:104E200077CFF92C40C1D20113966D917C912B85DF
:104E3000A5018A899B890E947621AA89BB89169639
:104E4000ED91FC910280F381E02D2F813885E20FF6
:104E5000F31F518240825CCFDD2009F42ECF311048
:104E60002FCFAA89BB89ED91FC9111970088F18918
:104E7000E02D612FCD01199556C0D11027C13110F9
:104E80001FCFAA89BB89ED91FC9111970488F58900
:104E9000E02D00E021E030E040E065E070E0CD0191
:104EA0001995AA89BB89ED91FC9111970484F58528
:104EB000E02DC12CEE24E394F12C25E030E0412FCD
:104EC00060E0CD011995AA89BB89ED91FC911197FC
:104ED0000488F589E02D21E030E041E065E070E0F4
:104EE000CD011995AA89BB89ED91FC911197028892
:104EF000F389E02D212F40E060E0CD011995F2010A
:104F00008181928163817481DC01ED91FC91048047
:104F1000F581E02DC12E4EEFE42EE90C0FEF2A892A
:104F20003B8941E01995EA89FB8984819581A80E26
:104F3000B91ED501BC91B983812F012E000C990BAC
:104F40000196FC01EE0FFF1FF887EF83812C272DC0
:104F500030E03A872987A9810A2E000CBB0BBD8758
:104F6000AC879F878E87B1E0B10FBB87E981EF5C8B
:104F7000E88BFDEFF90DF98BE82C082C000CFF08ED
:104F8000332009F4A4CE6C847D846E0C7F1CD20186
:104F900011968D919C910E94AE12082E000C990BD7
:104FA000681679060CF01FCD6981680DD201119643
:104FB0008D919C910E94A7125C01DD2009F49ACE8C
:104FC000E985FA85EE0DFF1DFE83ED83D2018C91FC
:104FD000E82F880FFF0BFB83EA83222423946E16AD
:104FE0007F0609F0212CF1E0FC83D20111968D910E
:104FF0009C918A159B0509F01C82311020C0F50197
:10500000E480F580AA89BB89ED91FC911197048415
:10501000F585E02DC12C022D30E020E0412F6D817F
:10502000CD011995AA89BB89ED91FC911197028850
:10503000F389E02D212F4D8160E0CD011995F50117
:1050400024813581AA89BB89ED91FC91119704884F
:10505000F589E02D0C81422D61E070E0CD011995BC
:10506000D2011396ED91FC91828D882309F452CEE2
:10507000311053CEEA89FB89808582FFD2CE088920
:10508000080D6BE5CF010E94EE0A0A330CF00DE229
:10509000602F8A899B890E94EE0A6DE58A899B8927
:1050A0000E94EE0AF988D50114962D913C91AA89A7
:1050B000BB89ED91FC9111970688F789E02DE12ECF
:1050C0000C81422D6D81CD01199534CE3110F8CD72
:1050D000AA89BB89ED91FC9111970088F189E02D97
:1050E000612FCD011995CDCE2F923F924F925F92B5
:1050F0006F927F928F929F92AF92BF92CF92DF92E8
:10510000EF92FF920F931F93CF93DF9300D01F92E4
:10511000CDB7DEB73C016B01912C812CD3018D9171
:105120009C911197881699060CF004C11296ED9186
:10513000FC91C401880F991FE80FF91F0591149184
:10514000F8018085918581729927892B09F48DC09A
:10515000D60113960D90BC91A02DBA83A983CD01E1
:105160000E94CD13E981FA81E7800E2C000CFF0824
:105170000E94F313811183C0D6011396ED91FC9127
:10518000B5E0BE9D1001BF9D300C11248481958136
:10519000280E391ED8011696ED91FC91B481EB2FA3
:1051A0000E2E000CFF0B3197FC83EB83EE16FF06EF
:1051B00014F4FC82EB82D80118968C9183FF08C00E
:1051C000EB81FC81309709F45EC03197FC83EB835F
:1051D000B12CA12C97018B819C81281B390B3A8320
:1051E0002983AB81BC81AA16BB060CF04CC0F6012A
:1051F0006381748189819A818A0D9B1DF5E0F89FF6
:105200007001F99FF00C1124DB0114968D919C9193
:10521000E80EF91E2501440C551CF801808581FF1C
:105220000DC00680F781E02D0280F381E02DE40DB2
:10523000F51D80819181E816F90699F0D701119644
:105240004D915C912A2DC8010E947621D8011696B5
:10525000ED91FC9182819381480E591EF201F182F9
:10526000E082FFEFAF1ABF0ABCCFB801C6010E94AF
:10527000431881116DCF8FEF881A980A4FCFF1E054
:10528000EF1AF10879CFD8011696ED91FC91BB8108
:10529000B5834B2FB101C8010E949324EB80FC80A1
:1052A000EE0CFF1CD8011696ED91FC910280F38163
:1052B000E02DEE0DFF1DD182C082EB81FC81329684
:1052C000FA83E983D8011696ED91FC9117978481B2
:1052D000082E000C990B29813A81281739075CF6B2
:1052E000570134E0A30EB11C0280F381E02DEA0DDA
:1052F000FB1D80819181892B99F0ED91FC910088B3
:10530000F189E02D6981C8011995D8011696ED91B2
:10531000FC9182819381A80EB91EF5011182108241
:1053200029813A812F5F3F4F3A83298332E0E30E90
:10533000F11CC8CF1A821982D3018D919C911197CB
:10534000E981FA81E817F907ECF4CF01880F991F7A
:105350001296ED91FC91E80FF91F45915491D601F9
:1053600011968D919C91DC01ED91FC910280F3816D
:10537000E02D21E0B6011995E981FA813196FA8391
:10538000E983DACF80E00F900F900F900F90DF91BC
:10539000CF911F910F91FF90EF90DF90CF90BF9032
:1053A000AF909F908F907F906F905F904F903F90C5
:1053B0002F900895AF92BF92CF92EF92FF920F93EA
:1053C0001F93CF93DF938C015B01E9014E2DDC012C
:1053D0001296ED91FC91349665917491E881F98172
:1053E0000084F185E02DC9011995F82ED801129697
:1053F000ED91FC913296859194918571992745970D
:10540000A1F4F501878164817581F5E08F02600D5B
:10541000711D1124DB0111968D919C9108171907BC
:1054200079F44C2DCE010E9493248F2DDF91CF91E2
:105430001F910F91FF90EF90CF90BF90AF90089584
:105440002C2DA801B501CE010E947621EECF6F92DE
:105450007F928F929F92AF92BF92CF92DF92EF9204
:10546000FF920F931F93CF93DF93EC014B01D42E48
:1054700059011E2D0E94DA29FE2CF81AE881F981C3
:10548000648875880288F389E02DCE011995682F0C
:10549000CE01F3011995E82E812F012E000C990BF6
:1054A0008F199109F7FC939597FD50C0C4010E9494
:1054B000CD1360E2C817D90709F46AE3D4011E9638
:1054C0006D907C90C5010E94EE0AFA949F2C01E039
:1054D000C615D70509F000E02C813D81D501ED917D
:1054E000FC910488F589E02D4D2D62E070E0C50146
:1054F00019951F14D4F4E881F9810088F189E02D11
:105500006E2DCE011995DC011296ED91FC91349629
:1055100065917491D501ED91FC910084F185E02DA8
:105520004F2DC50119959F2C981A812F8919DF914C
:10553000CF911F910F91FF90EF90DF90CF90BF9090
:10554000AF909F908F907F906F90089580E0EFCF05
:105550002F923F924F925F926F927F928F929F9283
:10556000AF92BF92CF92DF92EF92FF920F931F9371
:10557000CF93DF9300D0CDB7DEB79B838A834B01F7
:105580005901F02E5E2CDB011E966D907C90332429
:1055900033948615970509F0312CE52C0F2D9501D4
:1055A000B4018A819B810E94DA29182F85156CF439
:1055B000EA81FB816FE474E0E615F70511F061E51F
:1055C00074E0C5010E94241C1F5FD40117968C91C2
:1055D00017971496CD90DC90B5E08B02C00CD11CCF
:1055E000112462E070E0F601818192810E94001432
:1055F000811183C0D6011396ED91FC91149780859B
:10560000882309F47CC064E070E011968D919C9130
:105610000E94001491E0892744244394410EF80E1F
:10562000952D9419EA81FB81818589170CF469C055
:10563000891BAA81BB8112962D913C91265F3F4F19
:10564000F90145915491C82E082E000CDD08F50192
:10565000A081B1814C0D5D1DFA019081992309F45F
:1056600053C022242394210E15150CF04CC0F1E0F8
:10567000F80FF983EA81FB81918598136AC0EA816A
:10568000FB81E615F70509F064C05896ED91FC9191
:10569000E12CAA81BB8117960C912F2D422DB401CC
:1056A000C5011995182F120DAA81BB811296ED9193
:1056B000FC913A9685919491C80ED91ED501ED9131
:1056C000FC910190F081E02DD6016C91C5011995F6
:1056D000D501ED91FC91028CF38DE02DAA81BB8167
:1056E00017960C912F2D412FB401C5011995422C0D
:1056F000282E210E8981122D9CCF81E08DCF80E054
:105700008BCF80E096CF122D5C96ED91FC91C12C51
:10571000AA81BB811796EC90032D2F2D442DB40147
:10572000C5011995812F0F900F900F90DF91CF91A8
:105730001F910F91FF90EF90DF90CF90BF90AF90AF
:105740009F908F907F906F905F904F903F902F90A1
:105750000895F90185919491C80ED91EED91FC919F
:10576000D6016C91C5011995C5CF6F927F928F922A
:105770009F92AF92BF92CF92DF92EF92FF920F93E0
:105780001F93CF93DF93EC014B01D42E5901FE2CD4
:105790000E94DA29182FE881F981648875880288C7
:1057A000F389E02DCE011995682FCE01F3011995EB
:1057B000782E01E0D4011E968D919C918C179D0747
:1057C00009F000E02C813D81D501ED91FC91048828
:1057D000F589E02D4D2D62E070E0C50119958F2D02
:1057E0000F2C000C990B811B910917FD939518162E
:1057F0001906D4F4E881F9810088F189E02D672D3C
:10580000CE011995DC011296ED91FC9134966591CB
:1058100074914F2D411BD501ED91FC910084F185D0
:10582000E02DC5011995180F812FDF91CF911F91A0
:105830000F91FF90EF90DF90CF90BF90AF909F902F
:105840008F907F906F900895CF92EF920F93DB012E
:105850001E96ED91FC918E179F0731F40E94DA2974
:105860000F91EF90CF9008950E94272AF9CF6F9261
:105870007F928F929F92AF92BF92CF92DF92EF92E0
:10588000FF920F931F93CF93DF93EC014B01D42E24
:105890005901FE2CEA81FB813C96A591B4918D9132
:1058A0009C9199878887CE010E94DA29182F8E153E
:1058B0000CF052C0D4011E966D907C90C615D70591
:1058C00041F4DD2031F08F816AE3882319F06EE323
:1058D00001C060E2C5010E94EE0A1F5F1F150CF0B7
:1058E0003BC099249394C615D70509F0912C2C81BF
:1058F0003D81D501ED91FC910488F589E02D092DBC
:105900004D2D62E070E0C5011995E881F9810688A6
:10591000F789E02DB501CE011995180F1F15E4F494
:105920002C813D81D501ED91FC910488F589E02D14
:105930004D2D63E070E0C5011995EA81FB813A962F
:1059400065917491D501ED91FC910084F185E02D74
:105950004F2DC5011995180F812FDF91CF911F9100
:105960000F91FF90EF90DF90CF90BF90AF909F90FE
:105970008F907F906F900895AF92BF92CF92DF92F9
:10598000EF92FF920F931F93CF93DF93EC01C62EFC
:10599000F42E59016E2DEE81FF81808191810E944C
:1059A0005221D62E172FE881F9810488F589E02D40
:1059B00000E095014F2D64E070E0CE011995EB8871
:1059C000FC880E85EE81FF8160E0808191810E94DC
:1059D00052219D85989F202D11241C0D8E854A896A
:1059E000189F400D112469899D9D600D1124C701E8
:1059F00004960E94B111DF91CF911F910F91FF90FA
:105A0000EF90DF90CF90BF90AF900895CF92FF922C
:105A10000F931F93CF93DF93002339F16C2DF22E58
:105A2000142FEC01EE81FF81808191810E9452212F
:105A30000E853D8521E0230F7F0D4A89709F400D23
:105A40001124812F110F990B860F911D67FD9A95D7
:105A5000019769899F85690F6150389F600D1124F6
:105A60008B899C8904960E94B11180E0DF91CF91CF
:105A70001F910F91FF90CF900895EF92FF920F9397
:105A80001F93CF93DF93002359F16E2DF22E142F25
:105A9000EC01EE81FF81808191810E9452210E856F
:105AA0002D857F0D4A89709F400D112489899F851E
:105AB000890F610F629F800D1124682F8B899C894B
:105AC00004960E94F311E881F9810488F589E02D9C
:105AD00000E021E030E040E061E070E0CE011995A7
