:020000040000FA
:100000000C94800B0C94B10B0C94B10B0C94B10BB1
:100010000C94B10B0C94B10B0C94B10B0C94B10B70
:100020000C94B10B0C94B10B0C94B10B0C94B10B60
:100030000C94B10B0C94B10B0C94B10B0C94B10B50
:100040000C94B10B0C94B10B0C94B10B0C94B10B40
:100050000C94A4300C94B10B0C94B10B0C94FA2FAB
:100060000C94B10B0C946E300C9444300C94B10B86
:100070000C94B10B0C94B10B0C94B10B0C94B10B10
:100080000C94B10B0C94B10B0C94B10B0C94B10B00
:100090000C94B10B0C94B10B0C94B10B0C94CF30AD
:1000A0000C94B10B0C94B10B0C94B10B0C94B10BE0
:1000B0000C94B10B0C94B10B0C94B10B0C94B10BD0
:1000C0000C94B10B0C94B10B0C94B10B0C94B10BC0
:1000D0000C94B10B0C94B10B0C94B10B0C94B10BB0
:1000E0000C94B10B0C94431A0C9414100C94160E2F
:1000F0000C94692C0C9473190C942C1A0C942F10DA
:100100000C947A100C946D2E0C94F8190C94E42B2A
:100110000C9485160C94130C0C94880C0C944E17AC
:100120000C94D90F0C94241A0C94660C0C94630C48
:100130000C94960C0C9423100C94B3190C94A021DD
:100140000C947C210C94570C0C94BB170C94EC1E53
:100150000C94AE170C940F210C945B0C0C944E2550
:100160000C9403210C9481200C94EA2C0C94972B72
:100170000C94B30B0C94C12D0C94BC130C94B10FC4
:100180000C9465190C94020E0C94B32C0C943E1A2A
:100190000C94251A0C94811C0C947E0C0C940C204D
:1001A0000C9441170C943B1A0C9403190C942D2FAA
:1001B0000C94970F0C94FF170C94310F0C94F30DC3
:1001C0000C946C0C0C94BE170C940A190C94760CBD
:1001D0000C940A320C9405200C940E0C0C94A80F6D
:1001E0000C940C0C0C940D100C9446130C94CC2015
:1001F0000C94191A0C94D7190C9426200C94BD0B4E
:100200000C94910C0C947A0C0C945F0C0C942010B0
:100210000C94F8180C949D120C948A2D0C94840C58
:100220000C9416100C9470170C94D3200C94521349
:100230000C94240E0C94160C0C94700C0C94DA177D
:100240000C94532D0C946B1A0C94D80F0C94C60D6F
:100250000C9453240C94920C0C94E6110C948C0C7A
:100260000C94510C0C94A1170C940C2E0C94411A64
:100270000C94F02E0C94981D0C94A90E0C945C0E0A
:100280000C94252D0C94B7200C94F31F0C94F017AC
:100290000C94AF0F0C94351954064A065B064D4179
:1002A000494E204D454E550000506C617465204309
:1002B0006F756E740053746172740070067706690E
:1002C00006620653455454494E4753003C4261630D
:1002D0006B00486F6D696E672054756E696E6700BC
:1002E000506C6174652020436F756E742000930616
:1002F0008C0685067E064D6F746F722054756E698C
:100300006E67003C4261636B004361726F75736599
:100310006C2032205370656564004361726F7573A1
:10032000656C2031205370656564004163747561AC
:10033000746F722020205370656564000000002FE8
:100340000000000000F0FF01000000007EE4070054
:100350000000C0AF391E000000F8522A79000000EA
:100360001EA575F6000080933FEAAE0300C0EDE8DD
:1003700055510700706D80AA670C00903505552E09
:100380003F00C811F82BF97B006CBAFFFFDCED00D1
:100390005CF5FDFFB7BB01AEFEFF7F5F6A0156DF74
:1003A00007F0FB6503A6F3008077FF079A3D000086
:1003B000FEAF07A61F0000B8530FDE0E0000F0A727
:1003C0000EF47700C0E45E0DCCFF00E0C1AE1C98D7
:1003D000FB98F0C1DF1FB073FCF0912F0FE031FCF0
:1003E000C080AB0DC001FC0000EF068000FE0000E5
:1003F0007E038000FC0000DE03C000FC00A0EC00D7
:100400004000F800007D0040000000A00C0040000B
:10041000000000080060000000800A00600000008A
:1004200040190020000000000800200000004009E2
:1004300000200000000008006000000000080040EC
:10044000000000400C0040000000000D00C0000053
:100450000050040080000000500200000100000075
:10046000030000030000C00100000C000070000049
:10047000003800003C000000E001A00F00000080F8
:100480009FFD0100000000F0070000000000000CCC
:100490000000000000E07F0000000000FCF303000B
:1004A0000000801FA50F000000E0933A1D0000002F
:1004B0007864A5720000009F9D6AD5000080677B6C
:1004C000D5AA0300C0D561AAA9070070699A55573B
:1004D0000E00B02580AD3E1B00C8BAA945D93E002C
:1004E0006C15FF7FECE700ACF6EFFEB7DD005EF9C0
:1004F000FDFF6FB901A29E5F7E5E6B03AAFE01C085
:100500007FFB03567B0080F7BD07AB370000DC475D
:1005100007961F0000BC3B05DE0C0000F0B70EF490
:100520003F0040E0561DCC7F00F0C8CC1DC8FB004A
:10053000F0D1AF0E30FBFEE081AF0FF073FCE09026
:100540004B0DE001FC0020BF078000FC0000F70617
:100550008000DC0060DE038000FC00009601C0002B
:10056000FC0040FD0040007800007C0040000000DE
:10057000A0180040000000000C006000000080098E
:1005800000200000000008002000000000080020FB
:10059000000000401A002000000000090060000078
:1005A0000040080060000000A009004000000000BA
:1005B0000C0040000000000C00C0000000500600CD
:1005C0008000000040020000010000200300000342
:1005D000000080010000060000E40000001C000094
:1005E000380000007000001E000000C003E007009B
:1005F000000000FE7F0000000000C00100000000BD
:1006000000000E0000000000C0FF0000000000FC21
:10061000E303000000C09F7A0F000000F855A639E0
:100620000000005EA26DF6000080573F5696010064
:10063000C0E9D9A9590700706BC0AAA70E00902580
:1006400005555E3E00483A783FFD7B00ECD5FFFD46
:1006500061EE005CFAFFEFBFA701A6DDFFFFDF5DE3
:10066000035EFE01E07BFB03A67B0000EFDC069649
:100670003F0000BC5F07CE1F0000F8A30EFE0C0079
:1006800000F45F0DE47F00E0C0A61E98FF10F0C1EB
:100690006D1F98FBFCF0918F0EF071FCE0803F0F16
:1006A000C001FC0020DF068000FC0040FE0380004B
:1006B000FE0000AE03C000FC00A0EE004000780089
:1006C000003C0040000000000C0040000000400919
:1006D000006000000080080020000000000B0020E7
:1006E000000000001A002000000040080060000028
:1006F0000080080060000000200D004000000000A5
:100700000C004000000040040080000000300600A3
:1007100080010000000300000300008001000006CB
:100720000000E40000001800003C000000700080A1
:100730000F000000801FFC0100000000F81F0000F7
:1007400000000000060000000000F03F0000000074
:1007500000BCE201000000804FB507000000F091EE
:10076000161E0000003E7F733A0000C0AFFB6EFA19
:10077000000070D180C9940300986C80A9A507007F
:10078000CC36DD5F5F1F007E91FFFE78F900A6FA90
:10079000FDCFEFEF016BDD5FFE5F240757FF03F036
:1007A000F7FF06AE730000FF9D0F963F00009CD739
:1007B0000F960E0000F0570EEC2F0040E0AE1FC861
:1007C000FF00F0D16C0E98FB94F0C1AF0EF0FBFC73
:1007D000F0808F07C001FC4030BF078000FC0000A4
:1007E000FF038000FC0060AE01C000FC0000EE00D2
:1007F0004000FC00407C0040003000001D00600014
:100800000000400800200000004008002000000018
:100810000009002000000040180020000000000B2C
:10082000002000000000080060000000A00D004053
:10083000000000800C00C0000000100400800000D8
:10084000001002000001000080030000030000C04F
:100850000100000C0000780000003000001C0000C7
:1008600000E003E00700000000FC3F000000000083
:10087000E00F0000000000000C0000000000F0FF8E
:1008800001000000007FF307000000E0AB851E00C0
:1008900000007C5035730000009FBFEBF60100C0E4
:1008A000916B96680700E0EDC0A9970E00B02A840E
:1008B000B12E3E00CC36FB5FFE7B006CD2DFFFE941
:1008C000D700D6FDFDDF9FF5016ADE0FFCFF3B037D
:1008D00016FF01C0F7FA07AF730000DEDE05D61F72
:1008E0000000BC270FAE0E0000F0A70EEC7700E072
:1008F000E05E1ED8FF00F0C1AE1F98FBFCF0A15FC8
:100900000EE063FC60908F0DC001FC0000FF0780CB
:1009100000FC0020BE03C000FC0040EE014000FCD3
:1009200000007D0040007000403C004000000000DE
:1009300008006000000040090060000000001A008C
:100940002000000040080020000000800800600037
:100950000000000B004000000020090040000000E3
:10096000000C00C0000000200600800000002003F2
:10097000000003000088010000060000E000000005
:100980001C0000780000007000800F000000805FF5
:10099000FE0100000000E00B000000000021002428
:1009A0000027002A002D0030003300010100000460
:1009B0000107010A0100002200250028002B002E5B
:1009C000003100340002010000050108010B0100A4
:1009D0000020002300260029002C002F00320000F8
:1009E00001000003010601090105050505070508C9
:1009F000080808020202020A0A08080404040401A2
:100A000001010101010101030303030303030304C3
:100A10000707070C0C0C0C0C0C0C0C020202020653
:100A2000060606060606060B0B0B0B0B0B0B0B0143
:100A300002102020080810204010204080020102EF
:100A400001080402010102040810204080804020B7
:100A500010080402018004020180402010080402F2
:100A60000108040201010204081020408001020470
:100A7000081020408000000A0B02090C0D0E080728
:100A8000030401000000000000000000000000005E
:100A90000000000000000000000000000000000056
:100AA0000012111000000000000000000000000013
:100AB00000000000000000000000000000280A24E0
:100AC000060F060000000101010101000001010103
:100AD000000001010100000001000001010101000E
:100AE0000000001204160C03009E02000001000327
:100AF0009802160C0600A90200000100A8020002DC
:100B0000000032000A000100F0170000B5020200E8
:100B10000000D3200300C302FFFF000004BB02203B
:100B2000102000CC0202000000D3200000D202FFFF
:100B3000FF0000D3200000E002FFFF0000D32003ED
:100B400000F602FFFF000004EE0220102000030365
:100B500002000000D32000000903FFFF0000D320A3
:100B600000001A03FFFF0000D32000002B03FFFF4B
:100B70000000BF0203020304010204070D00FE0986
:100B8000FE090001BA03AD0B6F2006EFFCF97F21CF
:100B90000AEFFC6971DFE19C06220CEFFC494998E1
:100BA0008449CE9F002311EFFC999230C9062DC9CC
:100BB000062D09939C09240FEFFCD9D2214AD23586
:100BC0008986346703250FEFFC2959526A8DD35269
:100BD0004B2D27012610EFFCB9885116856294D45D
:100BE000B225A7002709EFFC69719DBF01280DEF11
:100BF000FC89699CC6F538CF4900290DEFFC49797D
:100C00009CC7D538CD89002A0DEFFCB944A1366CBC
:100C1000629473022B0CEFFCB9C5E120C639370092
:100C20002C0AEFFCF9A751CC51002D09EFFCF93249
:100C3000E87C012E0AEFFCF9B774CD31002F0DEFDF
:100C4000FCA9711AA7E534CEA9003011EFFC496266
:100C5000544CC2244CC2248C8A3A0D310CEFFC69EE
:100C6000A998C43D0E3A053210EFFC2943142661C1
:100C70009C86621A0F3B05330FEFFCF1614EAB7B94
:100C80009C84D19093003411EFFC89A99864512D74
:100C9000CAA2618D7312003510EFFCF161892B93AC
:100CA0001657C268C849003611EFFC495B1A57262F
:100CB0002D0993301A721200370DEFFCF1614ECB03
:100CC000699CC639153814EFFC2943142661124675
:100CD000431426611246434E023911EFFC29431496
:100CE000266192494B5CCD761A003A0CEFFCB9A50F
:100CF0006B4E4ED71C033B0CEFFCB9A56B4E1DC5CC
:100D00001C053C09EFFCA9BD77A7003D0BEFFCB922
:100D10000F3B65D8B9003E0AEFFC2979D7EE5400A5
:100D20003F0FEFFC29431426619C967338A70140BE
:100D300014EFFC2943142661122DA5A4A244497D79
:100D4000C849004113EFFC4962544CC2244C86252B
:100D50004CC224CC29004213EFFCF1412B65511603
:100D60000D59298BB264D04900430EEFFC2943147E
:100D700026718FD19093004413EFFCF1412B655104
:100D8000166551166551960C3A09450EEFFCF16156
:100D900089CB431697879D02460DEFFCF16189CB05
:100DA0004316B793014711EFFC2943142671D31260
:100DB0002699B4E414004814EFFCF130099330098B
:100DC0009361099330099330A700490CEFFC298304
:100DD00018F771D029004A0CEFFC696BDC5396EDD3
:100DE00034004B12EFFCF130C9A25A12AA4918651F
:100DF000A530A7004C0AEFFCF1B89F879D024D1467
:100E0000EFFCF13091144949948A524CC2244CC2EF
:100E10009C024E14EFFCF13009132D292551525339
:100E2000C2244CC29C024F14EFFC294314266112C9
:100E300026611226611246434E025010EFFCF1412A
:100E40000A93300993418ADBC9005116EFFC29430C
:100E50001426611226611226A5244AA221CF110070
:100E60005213EFFCF1410A93300993414AC2282BF7
:100E70008539055311EFFC29431426713EE47112A4
:100E800046434E02540AEFFC298318F73B0D5514D4
:100E9000EFFCF13009933009933009933009A32115
:100EA00027015611EFFCF130099330AA455914AAD5
:100EB000761A005715EFFCF130099330099344A9D5
:100EC0002889A4484A9853005812EFFCF13009A32E
:100ED0005A148A5116159330A700590EEFFC295960
:100EE0009455C2248DBBD3005A0DEFFCF1614EAB7B
:100EF0006AF3B053005B0CEFFC91218BFBF3904342
:100F0000005C0DEFFC29711EE7E53CCE29005D0B6E
:100F1000EFFC9121EEDF861C025E0BEFFC6969920B
:100F2000D5F90B005F09EFFCF9EFC38E006009EF04
:100F3000FCA13CE7BF01610FEFFC7919F26850C2D8
:100F40002493969C026211EFFCF1B865D2923009AD
:100F5000132D49761200630EEFFC7919A230898BAC
:100F6000D19093006411EFFCA97169A9296112263F
:100F700099B4E41400650FEFFC7919A23019963882
:100F80008C869C04660DEFFC495B294E87306EA76A
:100F9000026710EFFC79596A51966DF91085D110EE
:100FA000016811EFFCF1B865D292300993300973F2
:100FB0000A00690CEFFCD97254EE38E814006A0D8F
:100FC000EFFC597354EE94455936016B0FEFFCF169
:100FD000B82DAA8D51560A730A006C0AEFFC4972AB
:100FE0003F0E3A056D11EFFC7951B2A494949252E0
:100FF00052CA720A006E10EFFCB927939684499882
:1010000084499853006F10EFFC7919A2300993308E
:1010100009A3212701700FEFFCB9279396848996C5
:1010200024535C06710EEFFC79596A4A9864D21217
:10103000B700720BEFFCB9275B296EA702730FEFA5
:10104000FC7919A230D2A5301A721200740DEFFC8F
:1010500059E27408E3B66C27017510EFFCB98749B3
:101060009884499864D2925300760FEFFC79C9A214
:101070002CCA2A6192E634007710EFFC79C9A22CC1
:101080004A4A4929A9253909780DEFFCB9875151F8
:1010900015A3624E017911EFFCB98749988449265E
:1010A0002D71124643047A0BEFFCB90F6BD761A781
:1010B000007B0DEFFCB12DAE877A1AD777047C093F
:1010C000EFFC69717FA7017D0DEFFC913DAEE662FB
:1010D0001ED7760C7E0AEFFC492DA53A7F02A006AA
:1010E000EFFCF97FA10AEFFC6939DCEF3400A210B4
:1010F000EFFC69E9969492300993DA9AB301A30E52
:10110000EFFC495B294ED7B896243B09A410EFFCAD
:10111000D9C368C8A22CCA8628CC5900A511EFFCF7
:10112000F12CCA2A61920D623888714E04A60AEF2A
:10113000FC69713BDC9D06A711EFFC2131CA7231BD
:10114000CAA250CFA250A701A80BEFFC295116E567
:10115000FC1300A915EFFC2943142689D29494921C
:10116000529228C568C84900AA0FEFFC497B364453
:101170005936E4D0A07301AB11EFFCD9922CC9927F
:101180002C49933449939C05AC0AEFFCF932C8759D
:101190002E00AD09EFFCF932E47C02AE15EFFC291C
:1011A00043142689D2A25494446951C268C84900A4
:1011B000AF09EFFC2983CE7F01B00CEFFC496294AC
:1011C00045A1CE6F00B10EEFFCD9E27010E31C1CFC
:1011D000741600B20CEFFCA13489D3F2CE3700B301
:1011E0000CEFFC9139CDC324CDF908B409EFFCB163
:1011F00034E73F02B511EFFCB98749988449984814
:101200004AA2D46100B614EFFC2983B2444BB46403
:101210004A9884499884494E02B708EFFCF9A4F330
:101220000DB808EFFCF9DFD210B90AEFFCA1546E3B
:10123000DDF906BA0EEFFC49629445A10E0E394F56
:1012400000BB11EFFCE9499AA4499A6449966449A4
:10125000CE08BC10EFFC91546E4B1631099370CE42
:101260002900BD0EEFFC91546E8A86244ECB3B05BF
:10127000BE10EFFCE7340F93A824266112CE390587
:10128000BF0EEFFC49395C2D8749180D3909C01292
:10129000EFFCA13C47C5A89884C9B0844998530085
:1012A000C112EFFCB13487C5A89884C9B0844998AD
:1012B0005300C213EFFC2131CA41312A2661322C7E
:1012C0006112E61400C313EFFC11298974508C8A53
:1012D00049980C4B98843905C413EFFC91288B7204
:1012E000508C8A49980C4B98843905C513EFFC2122
:1012F000310A55312A2661322C6112E61400C614D7
:10130000EFFC29C9524CC2244CA631099330197202
:101310000A00C70EEFFC29431426718FD1901601E5
:10132000C810EFFCA13CC786258E872C8E879D02B6
:10133000C910EFFCB1340787258E872C8E879D025C
:10134000CA11EFFC2131CAA16189E3218BE361A7B6
:1013500000CB12EFFC91288B726858E278C8E278D3
:10136000D82900CC0EEFFCA13C070731EE38E81479
:1013700000CD0EEFFCB134470731EE38E81400CE53
:101380000EEFFCB134C9B1418C3B0E3A05CF0FEFE3
:10139000FC912CCA726810E38E834E01D013EFFCCF
:1013A000F1412B6551964CB5288BB264D04900D1E0
:1013B00015EFFC11298974284CB4A494949228A99F
:1013C00029614E01D213EFFCA13C0787284CC224AF
:1013D0004CC2248C869C04D313EFFCB1344787287D
:1013E0004CC2244CC2248C869C04D414EFFC2131C2
:1013F000CAB1210A933009933009A3212701D515D9
:10140000EFFC112989746C88C2244CC2244CC26838
:10141000C84900D615EFFC91288B726C88C2244C09
:10142000C2244CC268C84900D70DEFFCD9C3A8A894
:101430008A51316701D816EFFCD1688832254A4AB3
:101440004953524A4A89160D510E03D913EFFCA194
:101450003CC7C2244CC2244CC2248C869C04DA13A0
:10146000EFFCB134072B6112266112266134E424AB
:1014700000DB14EFFC2131CAA1300993300993300D
:1014800009A3212701DC15EFFC91288B72284CC29F
:10149000244CC2244CC268C84900DD0EEFFCC134A4
:1014A00007B328ABA4713B0DDE10EFFCF17890C2BE
:1014B000244CC26490E23A19DF13EFFC4962944570
:1014C000591226619495B228D14900E011EFFC49E8
:1014D000790E0E7934286192494B4E01E111EFFCEF
:1014E00069698E0E7934286192494B4E01E212EF00
:1014F000FC49629463431E0D4A9864D2925300E300
:1015000013EFFC295212E9D8904783122699B4E4CC
:101510001400E413EFFC295116E5D89047831226F6
:1015200099B4E41400E513EFFC21310A7570C8A3E7
:101530004109934C5A720A00E611EFFC7951D2240A
:101540001A94288B9248C94900E70EEFFC7919A23A
:1015500030898BD1901601E811EFFC49790E0E51BC
:10156000980C4B1C46434E02E911EFFC69698E0E44
:1015700051980C4B1C46434E02EA12EFFC49629410
:1015800063431426C31287D1909300EB13EFFC2919
:101590005116E5D81085C9B0C46134E42400EC0CC0
:1015A000EFFC49798ECA1D079D02ED0CEFFC6969BD
:1015B0000ECB1D079D02EE0DEFFC4962948372C7AE
:1015C00041A700EF0EEFFC295116E5A0DC71D029F0
:1015D00000F014EFFC912814933C1BA230099330C7
:1015E00009A3212701F113EFFC295212E9503269B6
:1015F0004998844998843905F212EFFC49790E0E16
:10160000519884499884D1909300F312EFFC696952
:101610008E0E519884499884D1909300F413EFFC76
:10162000496294634314266112266134E42400F570
:1016300013EFFC295212E9D8108549988449180DF6
:101640003909F613EFFC295116E5D810854998841D
:1016500049180D3909F70DEFFCD9E21C1C7430CE86
:10166000D900F812EFFCB94643942951D29468D1BD
:1016700010E53000F912EFFC49798E8549988449CC
:101680009864D2925300FA11EFFC69690E56C22495
:101690004CC22493969C02FB13EFFC496294436175
:1016A000122661122699B4E41400FC13EFFC2951B0
:1016B00016E550988449988449262D3905FD13EF85
:1016C000FC69690E56C2244C32698993301A220093
:1016D000FE11EFFCE97165D2923009132D49A6384D
:1016E00006FF15EFFC295116E5509884499864D2FD
:1016F00012276134440000000004FFFF00000A329A
:1017000011241FBECFEFD1E2DEBFCDBF00E00CBF82
:1017100027E0A6EEB3E001C01D92A135B207E1F7C4
:1017200013E0A0E0B2E0ECE5F5E700E00BBF02C09B
:1017300007900D92A63EB107D9F71BE0C0E8DBE0A9
:1017400000E006C021970109802FFE010E94793A2E
:10175000CF37D10780E00807A9F70E9484350C94A1
:10176000AC3A0C940000662329F06A3019F0862FF9
:1017700090E008958FEF9FEF08950F93CF93DF933D
:10178000DC01ED91FC915089362F3770E0E8F0E0F4
:1017900002C0F595E7953A95E2F73E2FA52FB0E008
:1017A000FC01C0ADD1AD669566956695E62FF0E07B
:1017B000549FE00DF11D1124EC0FFD1FEC01C758E3
:1017C000DF4F011116C08881823018F49081932B6D
:1017D00090838881813019F090819327908336958A
:1017E00011F4319630E8215071F7DF91CF910F91CC
:1017F00008958881823018F49081932B908388819A
:10180000813019F0908193279083EA0FFB1F2150BC
:1018100081F7EBCF80E0089580E008958A589F4FCC
:10182000FC018081089590E080E0089590E080E0E0
:10183000089530E020E0DC0114964C911497042EBA
:10184000000C550B241735076CF4A901440F551FE4
:101850001296ED91FC91E40FF51F118210822F5F1B
:101860003F4FE9CF08958150823108F05AC0E82FE8
:10187000F0E08827E15CF34F8F4F0C94793A5F0CCE
:10188000630C510C570C5B0C910C660C6C0C700CBF
:10189000760C7A0C7E0C840C880C910C8C0C920CBF
:1018A000960C809180008F778093800008958091BE
:1018B00080008F7DF9CF80918000877FF5CF84B540
:1018C0008F7784BD089584B58F7DFBCF8091B00064
:1018D0008F778093B00008958091B0008F7DF9CF0D
:1018E000809190008F778093900008958091900070
:1018F0008F7DF9CF80919000877FF5CF8091A000F8
:101900008F778093A00008958091A0008F7DF9CFFC
:101910008091A000877FF5CF809120018F77809301
:1019200020010895809120018F7DF9CF80912001C1
:10193000877FF5CFCF93DF93282F30E0F901EB5865
:10194000F54F8491F901E15DF54FD491F901E7512B
:10195000F64FC491CC23A1F081110E94330CEC2FDF
:10196000F0E0EE0FFF1FE153F64FA591B491EC911B
:10197000ED2381E090E009F480E0DF91CF910895BC
:1019800080E090E0FACF1F93CF93DF93282F30E0D1
:10199000F901EB58F54F8491F901E15DF54FD491D0
:1019A000F901E751F64FC491CC23A9F0162F81110C
:1019B0000E94330CEC2FF0E0EE0FFF1FEB54F64FBC
:1019C000A591B4918FB7F894EC91111108C0D095FE
:1019D000DE23DC938FBFDF91CF911F910895DE2B23
:1019E000F8CFCF93DF9390E0FC01E15DF54F2491B8
:1019F0008751964FFC0184918823C9F090E0880FAD
:101A0000991FFC01E556F64FA591B491FC01EB54EA
:101A1000F64FC591D49161110DC09FB7F8948C9188
:101A2000209582238C938881282328839FBFDF9170
:101A3000CF910895623051F49FB7F8943C91822F72
:101A4000809583238C93E8812E2BEFCF8FB7F8946A
:101A5000EC912E2B2C938FBFEACF3FB7F894809157
:101A6000A3049091A404A091A504B091A60426B566
:101A7000A89B05C02F3F19F00196A11DB11D3FBFC6
:101A8000BA2FA92F982F8827BC01CD01620F711D95
:101A9000811D911D42E0660F771F881F991F4A958F
:101AA000D1F708958F929F92AF92BF92CF92DF921B
:101AB000EF92FF926B017C010E942D0D4B015C01A6
:101AC000C114D104E104F104B9F00E942D0D68198C
:101AD00079098A099B09683E73408105910580F365
:101AE00021E0C21AD108E108F10888EE880E83E0EF
:101AF000981EA11CB11CE4CFFF90EF90DF90CF9017
:101B0000BF90AF909F908F9008952FB7F8946091F9
:101B10009F047091A0048091A1049091A2042FBF12
:101B200008950F931F93CF93DF93EC010E94850DCF
:101B3000688779878A879B87E881F9810484F5859E
:101B4000E02DCE01199597FF15C00E94850D0885DF
:101B500019852A853B85601B710B820B930B0C81C9
:101B60001D812E813F81601771078207930720F343
:101B70008FEF9FEFDF91CF911F910F910895DC01BF
:101B8000ED91FC910190F081E02D1994AF92BF92FC
:101B9000CF92DF92EF92FF920F931F93CF93DF9339
:101BA0006C017B018B01040F151FEB015E01AE1868
:101BB000BF08C017D10759F06991D601ED91FC918A
:101BC0000190F081E02DC6011995892B79F7C501A7
:101BD000DF91CF911F910F91FF90EF90DF90CF9009
:101BE000BF90AF900895FC01538D448D252F30E0B8
:101BF000842F90E0821B930B541710F0CF9608951A
:101C000001970895FC01918D828D981761F0A28D46
:101C1000AE0FBF2FB11D5D968C91928D9F5F9F730C
:101C2000928F90E008958FEF9FEF0895FC01918DC2
:101C3000828D981731F0828DE80FF11D858D90E02F
:101C400008958FEF9FEF0895FC01918D228D892FCC
:101C500090E0805C9F4F821B91098F7399270895B4
:101C600087E695E00E94240E21E0892B09F420E00C
:101C7000822F0895FC01A48DA80FB92FB11DA35A7E
:101C8000BF4F2C91848D90E001968F739927848F9C
:101C9000A689B7892C93A089B1898C9183708064BF
:101CA0008C93938D848D981306C00288F389E02D60
:101CB00080818F7D80830895EF92FF920F931F9311
:101CC000CF93DF93EC0181E0888F9B8D8C8D9813EF
:101CD0001AC0E889F989808185FF15C09FB7F894FB
:101CE000EE89FF896083E889F98980818370806447
:101CF00080839FBF81E090E0DF91CF911F910F9192
:101D0000FF90EF900895F62E0B8D10E00F5F1F4FA0
:101D10000F731127E02E8C8D8E110CC00FB607FCAF
:101D2000FACFE889F989808185FFF5CFCE010E943D
:101D30003A0EF1CFEB8DEC0FFD2FF11DE35AFF4F63
:101D4000F0829FB7F8940B8FEA89FB8980818062CB
:101D5000CFCFCF93DF93EC01888D8823B9F0AA8988
:101D6000BB89E889F9898C9185FD03C0808186FD56
:101D70000DC00FB607FCF7CF8C9185FFF2CF8081A5
:101D800085FFEDCFCE010E943A0EE9CFDF91CF91D2
:101D9000089580E090E0892B29F00E94300E811197
:101DA0000E94000080E090E0892B49F080E090E004
:101DB000892B29F00E94000081110E94000080E020
:101DC00090E0892B49F080E090E0892B29F00E9477
:101DD000000081110E94000080E090E0892B49F012
:101DE00080E090E0892B29F00E94000081110C9482
:101DF00000000895FC01F8948481958120852230AB
:101E0000D1F49C0121703327358324837894208575
:101E10002430D1F49595879595958795268522232D
:101E2000C1F021853285232F332797FF15C0C901C3
:101E3000809590950895243021F49C0123703327D8
:101E4000E3CF15821482E2CF223041F79595879532
:101E5000E5CF30E020E0E9CF009711F0C90101960D
:101E600008950895DC01ED91FC910088F189E02D41
:101E70001994DC01ED91FC910190F081E02D199411
:101E8000FF920F931F93CF93DF938C01EB01F42EFE
:101E9000642FDC0111968D919C910E94320FDC0120
:101EA0001296ED91FC9113973696259134912C233F
:101EB0003D23232B71F0ED91FC910284F385E02DFD
:101EC0002F2DA801BE01DF91CF911F910F91FF909F
:101ED000199490E080E0DF91CF911F910F91FF90D6
:101EE00008950F931F93CF93DF938C01D0E0C0E050
:101EF000D8018D919C911197C817D9079CF4CE01F8
:101F0000880F991F1296ED91FC91E80FF91F8591AA
:101F10009491DC01ED91FC910684F785E02D1995F3
:101F20002196E6CFDF91CF911F910F9108950F93E6
:101F3000DC01ED91FC910488F589E02D01E021E0C0
:101F400030E041E061E070E0199580E00F91089584
:101F5000CF93DF93CDB7DEB7DF91CF91089580E0C7
:101F60000895EF92FF920F931F93CF93DF93EC01AD
:101F7000142F7901E881F9810488F589E02D64E066
:101F800070E01995E881F9810190F081E02D60E21F
:101F9000112331F06091AA04EF2811F06091A90497
:101FA000CE01DF91CF911F910F91FF90EF90199487
:101FB0000895BF92CF92DF92EF92FF920F931F93FB
:101FC000CF93DF937C018B01B42EFB01C42E440F11
:101FD000DD08EF012196649161110EC0C01BD10B89
:101FE0008C2F8150DF91CF911F910F91FF90EF9037
:101FF000DF90CF90BF900895BB2029F0E01BF10B3C
:10200000EC15FD055CF7D701ED91FC910190F08195
:10201000E02DC7011995FE01DCCFCF93DF93CDB73B
:10202000DEB7DF91CF91089580E008950895DC0137
:102030001296ED91FC91329685919491817008955C
:1020400081E090E00895DC01CB01BA011296ED9198
:10205000FC91139725913491AD01F9011994FC017C
:1020600086810895DC0117962C9117971496ED91AF
:10207000FC91B5E02B02E00DF11D112481819281CC
:102080000895CF93DF93EC010E9432102F81AC8131
:10209000BD8135E02302A00DB11D1124EC01E881C2
:1020A000F9810088F189E02D6C91DF91CF9119942D
:1020B000DC011296ED91FC91329685919491969562
:1020C00087959695879581700895DC011296ED911C
:1020D000FC913296859194916823792381E0672B56
:1020E00009F480E00895DC011A96ED91FC9130E04E
:1020F00020E019941F93CF93DF93EC01A881B9815D
:10210000683109F49BC038F4643109F489C067313F
:1021100049F080E00EC0693109F4D4C06032C9F7DB
:102120006AE488C01C968C9180FD3FC0411105C0B7
:1021300081E0DF91CF911F910895F90181919F0175
:102140004150DFB7F894A0918804B0918904C09100
:102150008704E0918504F091860470918404609175
:10216000830481110EC08C918C238C9388E0908124
:10217000972B90839081962390838150C1F7DFBF86
:10218000D5CF1091820498E05C9187FF0CC0512B51
:102190005C935081572B5083880F50815623508376
:1021A000915091F7ECCF5C23F3CF442309F4C0CFD7
:1021B000F90181919F014150DFB7F894A091880403
:1021C000B0918904C0918704E0918504F091860460
:1021D000609184047091830481110EC08C918C23D2
:1021E0008C9388E09081972390839081962B9083A5
:1021F0008150C1F7DFBFD9CF1091820498E05C9184
:1022000087FF0CC0512B5C93508157235083880F5C
:102210005081562B5083915091F7ECCF5C23F3CF34
:1022200011964C9169E40E947310E881F98144850C
:10223000417060E4CE010E9473107ACF4C9169E442
:102240000E947310A881B981EA85FB8530E020E007
:1022500012964C916CE2CE0119958E8D90E0FC01A6
:10226000E751F64FE491F0E0EE0FFF1FEB54F64F0D
:10227000259134913093860420938504FC01E15D1F
:10228000F54FE491E0938404E095E09383048F8D0F
:1022900090E0FC01E751F64FE491F0E0EE0FFF1FF4
:1022A000EB54F64F259134913093890420938804A0
:1022B000FC01E15DF54FE491E0938204E095E09349
:1022C000870436CFEA85FB8530E020E013964C91F9
:1022D0006CE21995E881F981418169E4ABCFDC01B9
:1022E0001496ED91FC9130E020E040E060E119941B
:1022F000DC011696ED91FC9130E020E040E069E1D0
:102300001994DC011696ED91FC9130E020E040E05C
:1023100068E119949A01DC011696ED91FC91462F23
:1023200067E11994EF92FF920F931F93CF93DF937E
:102330001F92CDB7DEB77C018B01D8016C9167315C
:1023400029F150F46531A0F40F90DF91CF911F91E6
:102350000F91FF90EF9008956A3118F16E3FA1F749
:10236000F8014181498369E2C7010E9473100BC0E3
:10237000F80141814983D7011696ED91FC9130E037
:1023800020E0C70119950E5F1F4FD7CFF80181815B
:102390008983AE014F5F5F4F61E0C7010E948A11E0
:1023A000F2CF0F5F1F4FD7011696ED91FC9130E0F1
:1023B00020E040E0C7011995C0CF462FDC011696FA
:1023C000ED91FC9130E020E065E11994AF92BF926D
:1023D000CF92DF92EF92FF920F931F93CF93DF93F1
:1023E000EC01693089F48DE292E0998388831C8A3C
:1023F00081E0DF91CF911F910F91FF90EF90DF90DF
:10240000CF90BF90AF90089579016B3009F440C030
:102410006F3009F444C080E06A3059F7EA85FB85E3
:1024200030E020E040E068E2CE011995EE81FF81C6
:1024300030E020E040E064E1CE01199541E06BE43A
:10244000CE010E947310E881F981448169E2CE01D6
:102450000E94731040E06BE4CE010E947310E8818B
:10246000F981448169E2CE010E94731041E06BE47E
:10247000CE010E947310E881F981458169E2CE01A5
:102480000E9473106AE172E0CE010E949211B0CFF7
:1024900063E172E04423C1F368E072E0F5CFF90133
:1024A0000481000F000F000F13811695003210F009
:1024B0000052185FCE010E948111F701A080B18007
:1024C0006EE3CE010E94DD116EE3CE010E94DD11AC
:1024D000D12C1068602F6D0D6068CE010E94DD1157
:1024E000612FCE010E94DD11F701C280A5016C2D84
:1024F000CE010E948A11AC0CB11CD394F8E0DF121B
:10250000E9CFCE010E94781173CF9A01DC011896B1
:10251000ED91FC91462F67E11994CF93DF931F92C1
:10252000CDB7DEB76983AE014F5F5F4F61E00E94B8
:1025300085120F90DF91CF910895CF92DF92EF92A5
:10254000FF920F931F93CF93DF93EC01142F790128
:102550006631C1F130F4643149F06531A9F080E0B1
:1025600040C0673109F446C06A31C8F7E885F9858B
:102570009701412FCE01DF91CF911F910F91FF90D5
:10258000EF90DF90CF90199468EF0E948D1241E098
:102590006CE2CE010E947310612F607FCE010E9419
:1025A0008D1241E06CE2CE010E947310612F6295A2
:1025B000607FCE010E948D1241E06CE2CE010E944C
:1025C00073100EC068EF0E948D12612F607FCE01E4
:1025D0000E948D12612F6295607FCE010E948D1244
:1025E00081E0DF91CF911F910F91FF90EF90DF90ED
:1025F000CF9008956AEF0E948D1241E06CE2CE0107
:102600000E947310DE2CCF2C012F083008F5012F0B
:10261000069506950695D12E88EF089FD00C1124BB
:10262000E8E00E9F800111240E0D1F1DDD2021F218
:10263000F801F1908F016F2D607FCE010E948D1205
:102640006F2D6295607FCE010E948D12DA94EECFDD
:10265000AAE8B4E0ED2DFC2D9F01285F3F4F81914A
:10266000982F907F9C938295807F11968C931197E1
:102670001296E217F30799F7DE2ECF2E08504AE89C
:1026800054E060E1CE010E948512BFCF0F93DC01C0
:10269000DE963C91DE97431BD496ED91FC91199503
:1026A0000F910895CF93DF93FC01A081B18182AD9A
:1026B000982F990F990F990F95AF50969C9150971D
:1026C000903208F09FE1990F990F990F94AF23ADC5
:1026D000922F990F990F990F96AF51963C91519760
:1026E000682F620F7727771F3617170614F4832F8A
:1026F000821B97AFEF01C05CDF4F880F880F880FF8
:10270000890F8883219680EF888354968D919C91C0
:102710005597813F910508F48883EE5BFF4F5696ED
:102720008C918083DF91CF9108950F93FC01EB5B37
:10273000FF4F308131965081451730F4301738F013
:10274000041728F080E013C03017D0F3FBCFFC0152
:10275000ED5BFF4F30818C5B9F4FFC0180816817E0
:1027600040F481E0321718F081E0261758F70F91F6
:1027700008953217C8F3E6CF2F923F924F925F929F
:102780006F927F928F929F92AF92BF92CF92DF9281
:10279000EF92FF920F931F93CF93DF93EC014C01C5
:1027A00083E4880E911CF4011082329720805E0130
:1027B000F4E4AF0EB11CF50120823FAC6E01F5E4EC
:1027C000CF0ED11CF6013082359740807E01F6E4B1
:1027D000EF0EF11CF7014082349610813297608031
:1027E0003196708032975080012F262D472D652D10
:1027F000CE010E949513CD58DF4F811114C018826D
:10280000DF91CF911F910F91FF90EF90DF90CF90CC
:10281000BF90AF909F908F907F906F905F904F9000
:102820003F902F90089581E08883552011F0F401A6
:102830005082621410F4F5016082371410F4F6012E
:1028400070821415E8F6F7011083DACFFC01E7581F
:10285000FF4F633010F46083089581E08083089512
:102860000F93DC01802FFD01ED58FF4F90819923DC
:10287000E9F12223D9F1223020F0023079F56F5F9F
:10288000621B082F0170FD0180FD32C0EB5BFF4F22
:102890008081481758F131968081481738F5329772
:1028A000908131978081260F2617F0F46917D8F4AC
:1028B0002FEF290F8217D0F4681708F4682F291713
:1028C00008F4922F961BD696ED91FC91D797048031
:1028D000F581E02D292FCD01199508C0033089F627
:1028E0004F5F421BCECF682F691720F30F910895D9
:1028F000ED5BFF4F80816817C8F3319680816817C0
:10290000A8F73296908131978081240F241778F4AC
:10291000491760F42FEF290F821740F7481708F482
:10292000482F291708F4922F941BCDCF482F491711
:10293000E8F6F2CF9F92AF92BF92CF92DF92EF92E2
:10294000FF920F931F93CF93DF937B0198E0C92EE3
:10295000C80E0C2D2AE548E065E282ED96E00E9463
:102960009513882391F1C8E0992493949C0E092D26
:102970002AE54C2F65E282ED96E00E9495138823AC
:10298000F1F0D0904B075701D5E211E0F5018491A9
:10299000812339F1D0924B0700E021E04C2F6D2FBD
:1029A00082ED96E00E943014DF5F110F21F4FFEFFB
:1029B000AF1ABF0A11E0DA3549F7D0924B0787E02A
:1029C000E80EF11CC92DC910CFCFDF91CF911F9117
:1029D0000F91FF90EF90DF90CF90BF90AF909F90BE
:1029E000089580914A078111DFCF81E0D11080E006
:1029F00080934B07D1CF213039F020F0223031F0D5
:102A0000840F0895860F0895841B0895861B0895EA
:102A1000213039F020F0223031F0861B0895840FE8
:102A20000895860F0895841B08955F926F927F9298
:102A30008F929F92AF92BF92CF92DF92EF92FF92CE
:102A40000F931F93CF93DF935C01162F642EEC013D
:102A5000C15BDF4FDC80ED804C0189E7880E911C63
:102A6000FE80FD18C12EF11608F4CF2C5B800C857A
:102A7000202F4E2D6D2D8A810E94FB14782E202F41
:102A80004E2D6D2D852D0E940815482F662071F062
:102A90008A85F40180832C2D672DC5010E94301496
:102AA0001F1548F01F19E394D12CDACF89858111C5
:102AB000F7CF8B85EECF1D0D1C83ED82DF91CF917B
:102AC0001F910F91FF90EF90DF90CF90BF90AF904C
:102AD0009F908F907F906F905F900895DC01189683
:102AE0004C911897ED91FC911197249130E0042EB0
:102AF00002C0359527950A94E2F7842F860F883017
:102B000068F031961196FC93EE93E49198E0941B53
:102B100001C0EE0F9A95EAF72E2B885018968C93E9
:102B20008FEF9FEF01C0880F6A95EAF780958223A7
:102B30000895FC01E60FF11D849190E0982F8827FD
:102B40003196E4918E0F911D0895CF93DF93EC01A0
:102B50006BAFEEA9FFA90190F081E02D1995EEA9C8
:102B6000FFA90280F381E02DCE01DF91CF9119946E
:102B7000AF92BF92CF92DF92EF92FF920F931F938B
:102B8000CF93DF9300D01F921F92CDB7DEB78C0199
:102B9000DC01DA96AC90DA97DB96EC90DB97ED915E
:102BA000FC91B188FE2CD12CC12CD801ED91FC9167
:102BB00011978089D8962D913C911C82FD828B8340
:102BC000B8E08B9FC00111248C9DA0018D9D500DFC
:102BD0009C9D500D1124240F351F3A832983D80161
:102BE0001496ED91FC919E012F5F3F4F41E06FE005
:102BF000C8011995F3948F2D8E198A1528F4BFEF0B
:102C0000CB1ADB0AFB1488F20F900F900F900F90F5
:102C10000F90DF91CF911F910F91FF90EF90DF9078
:102C2000CF90BF90AF90089582ED96E00E94B815C6
:102C300082ED96E00C946F11CF92DF92EF92FF92AB
:102C40000F931F93CF93DF937C01162FC42FC22EB7
:102C5000D02FD62ED20E042F0D0F2D2D0E9495139E
:102C6000882319F100E02C2D4C2F612FC7010E9401
:102C70003014D230D0F0D250CF5FDD2379F001E0B4
:102C80002D2F4C2F612FC7010E9430146FEF6D0D57
:102C90002D2F4C2FC7010E943014CD0F00E02C2D9A
:102CA0004C2F612FC7010E943014DF91CF911F91EB
:102CB0000F91FF90EF90DF90CF900895DF92EF9209
:102CC000FF920F931F93CF93DF937C01162FC42F96
:102CD000D22ED42FD00F262F2D0D0D2F0E949513FD
:102CE000811110C0DF91CF911F910F91FF90EF9054
:102CF000DF90089500E02D2D4C2F612FC7010E9419
:102D00003014CF5FDC13F6CFEDCF0F931F93CF932B
:102D1000DF938C01C62F642FCC32E8F4CA3208F05E
:102D200041C0C83271F1C93209F442C080E0C034F8
:102D3000D0F1CF73F801EC0FF11D868D8F3F91F12B
:102D4000C031E0F00E949A0C21E0892B09F420E0C8
:102D5000F801218F27C0CD3289F140F384EB8C0F2D
:102D6000823020F7CF73C00FD12FD11D8E8D41112E
:102D700033C061E00E94F10C60E08E8D0E94C30CB4
:102D800011C0025E1F4FD0E0F80181918F018F3F8B
:102D900031F061E0D03108F062E00E94F10CDF5FB9
:102DA000D63191F781E0DF91CF911F910F91089576
:102DB00070E090E080E00E94520DF4CF85E090E05A
:102DC000433010F082E090E0880F991F880F991F20
:102DD00005970197F1F7E6CF62E00E94F10CE2CF90
:102DE00020913804260F3327331F21323105ECF4AC
:102DF00020915C04FC0190E080E0243069F082E0E6
:102E00000895A09138042191AC01485E5B4FA40F56
:102E1000B52FB11D2C930196861798F38091380435
:102E2000680F6093380480E0089581E00895089564
:102E30008FEF9FEF08958FEF9FEF0895809111041A
:102E400090E09195819591090895CF93DF93CB01FF
:102E5000EA01642F0E94F016CE01DF91CF91089510
:102E6000CF93DF931F92CDB7DEB7698361E0CE01C8
:102E700001960E94F01681E090E00F90DF91CF91D3
:102E80000895DC011D96ED91FC9180819181DC011A
:102E9000ED91FC910684F785E02D1994CF93DF9393
:102EA000EC01ED85FE8580819181DC01ED91FC9145
:102EB0000084F185E02D1995892B69F0ED85FE855B
:102EC00080819181DC01ED91FC910484F585E02DF8
:102ED000DF91CF9119948FEF9FEFDF91CF910895FC
:102EE000CF93DF93EC01ED85FE8580819181DC013C
:102EF000ED91FC910084F185E02D1995892BD9F095
:102F0000ED85FE8580819181DC01ED91FC9102844B
:102F1000F385E02D199520910202309103022817C4
:102F2000390761F02FEF3FEF309303022093020245
:102F3000DF91CF9108958FEF9FEFEDCF8FEF9FEF50
:102F4000F7CFDC011D96ED91FC9180819181DC0130
:102F5000ED91FC910084F185E02D1994DC011D9622
:102F6000ED91FC9180819181DC01ED91FC910680D5
:102F7000F781E02D199490E080E00895CF93DF93DE
:102F8000DC0116968C911697811111C01296ED9165
:102F9000FC9113973C96C591D49181E018964D9180
:102FA0005C91288139814217530709F480E0DF9151
:102FB000CF910895CF93DF93DC0116961C9216975C
:102FC0001296ED91FC9113973C96C591D49188810E
:102FD000998119969C938E931897DF91CF910895BC
:102FE00064EF71E080E090E00E94520D81E090E09B
:102FF00090939D0480939C0490E080E00895CF928C
:10300000DF92EF92FF920F931F93CF93DF930E9473
:10301000850D6B017C018091CD06882399F080910C
:10302000C8069091C90602979093C9068093C80676
:103030008091C8069091C90697FF04C01092C906F6
:103040001092C8068091BF060E949A0C2091C20679
:10305000C3E02817190609F0C0E08091C0060E945D
:103060009A0C2091C2062817190611F481E0C8278E
:103070008091C5069091C6068C1B80FFA4C00C2EC3
:10308000000CDD0BD093C606C093C5062091C30685
:103090003091C4068270082E000C990B0197820FA4
:1030A000931F9093C4068093C30681E09091CD0650
:1030B000992391F0882381F08091C8069091C906E8
:1030C000883E9B4048F48091C8069091C906499675
:1030D0009093C9068093C8068091C106882309F49D
:1030E00069C040910D0450910E0460910F047091DD
:1030F000100497018601041B150B260B370BB90131
:10310000A8014A3051056105710508F453C0C09209
:103110000D04D0920E04E0920F04F09210040E946D
:103120009A0C2091C2062817190691F480910B047D
:1031300090910C04019690930C0480930B048937B2
:10314000910530F083E090E09093CB068093CA061F
:103150008091C1060E949A0C2091C20631E023277B
:1031600028171906C1F480910B0490910C04892B47
:1031700071F08091CA069091CB06039731F584E0F7
:1031800090E09093CB068093CA0610920A041092A6
:103190000C0410920B0480910A04882359F0825089
:1031A00080930A04811106C085E090E09093CB06DD
:1031B0008093CA06DF91CF911F910F91FF90EF90FE
:1031C000DF90CF90089580E071CF80910A04823023
:1031D00028F08C33E0F686E090E0D3CF8091CC06E7
:1031E000811104C081E080930A04D1CF8CE3FBCF2E
:1031F000DC011D968D919C91DC01ED91FC9101907B
:10320000F081E02D199470E0FC01718B608B81E0FE
:1032100090E00895CF93DF93EC01E881F981048475
:10322000F585E02D19951D8A1C8AE091AB04F0917B
:10323000AC0423852817190661F44F85288939893C
:10324000240F311D47FD3A95398B288BDF91CF91A3
:103250000895268528171906C9F74F8528893989C1
:10326000241B310947FD3395EFCFDC01ED91FC9133
:103270000484F585E02D199521E030E0019611F4E4
:1032800030E020E0C9010895CF93DF93EC018D85F4
:103290009E850E94FA0E2A893B89820F931F9B8B81
:1032A0008A8B8C899D89892B69F4ED85FE858385C0
:1032B0009485238534852330310511F014861386D7
:1032C0009D8B8C8BDF91CF910895CF93DF93EC0191
:1032D0001D8A1C8A0E9444198A899B89998B888B34
:1032E000DF91CF910895CF93DF93EC010E944419B1
:1032F0008C899D898530910549F4E091AB04F0916A
:10330000AC04808590E0DF91CF910895069731F469
:10331000E091AB04F091AC048581F4CF1D8A1C8A46
:103320002A893B8988899989281B390B8F85082E22
:10333000000C990B44275527481B590B421753077C
:1033400034F0E091AB04F091AC048685DBCF281714
:10335000390734F0E091AB04F091AC048385D2CF0F
:103360008FEF9FEFD0CFEF92FF920F931F93CF93EA
:10337000DF938C017B01D0E0C0E0F701EC0FFD1F73
:103380006491662361F0D801ED91FC910190F08188
:10339000E02DC8011995892B11F02196EECF8C2FC5
:1033A000DF91CF911F910F91FF90EF9008950F93B0
:1033B000CF93DF93EC01E881F9810288F389E02D56
:1033C00020E040E060E01995E881F9810488F58902
:1033D000E02D00E021E030E040E061E070E0CE016F
:1033E00019958E819F81DF91CF910F910C94190CCB
:1033F0000F93CF93DF93EC01AB89BC89ED89FE89F4
:1034000050E0C5E0C69FC001C79F900D1124213038
:10341000310519F4400F511D0296480F591FE40F52
:10342000F51F6491CD010496DF91CF910F910C941B
:103430002614DC0153968D919C91DC01ED91FC9159
:103440000190F081E02D19940895DC011296ED9120
:10345000FC913A9684910895DC011296ED91FC91CD
:103460003B9685919491E62FEE0FFF0BE80FF91F25
:1034700085919491089590E080E00895FC01168272
:10348000089580E00895CF92DF92EF92FF920F931C
:103490001F93CF93DF936C01EB017B01E40EF51ECC
:1034A00010E000E0CE15DF0561F06991D601ED91E5
:1034B000FC910190F081E02DC6011995080F191FAC
:1034C000F1CFC801DF91CF911F910F91FF90EF9045
:1034D000DF90CF9008952F923F924F925F926F921C
:1034E0007F928F929F92AF92BF92CF92DF92EF9294
:1034F000FF920F931F93CF93DF9300D000D0CDB7EF
:10350000DEB77C016C0124E0C20ED11CFC01E15845
:10351000FF4F0190F081E02DC60119958C018E3F7F
:103520009F4F08F05BC0370182E8680E711CF30101
:10353000F081FB83470121E8820E911CF401F081A8
:10354000FD839701215A3F4F3A832983F9018081F6
:10355000813009F46AC008F45CC0823009F471C09B
:10356000833009F47AC0F701EB5AFF4F2D81208395
:1035700031963B81308337978081918147969C8338
:103580008B830F3F110511F008F015C1B496013679
:10359000110530F40134110558F0F701EF58FF4FD1
:1035A000808191812B813C81280F391F3C832B83A3
:1035B0008B819C810196FC01249121115AC0412CE0
:1035C000E981FA818081813009F492C108F48BC1CC
:1035D000823009F48FC1833009F491C181E090E019
:1035E00026960FB6F894DEBF0FBECDBFDF91CF9108
:1035F0001F910F91FF90EF90DF90CF90BF90AF9011
:103600009F908F907F906F905F904F903F902F9002
:103610000895F701EF5AFF4F0190F081E02DC601A8
:103620001995FB81F80FFB839ECFF701EF5AFF4FEF
:103630000190F081E02DC60119952D81281B2D8365
:1036400092CFF701EF5AFF4F0190F081E02DC601B4
:1036500019953B81381B3B8386CFF701EF5AFF4F0B
:103660000190F081E02DC60119959D81980F9D83F1
:103670007ACFEB81FC8124912017110609F094C0C8
:10368000CF010296009709F49ACFF701ED5AFF4F48
:10369000FE83ED83918380831086719660818D8196
:1036A0009E810E946E15ED81FE818683F701EB59A4
:1036B000FF4F60818D819E810E946E15582EED8195
:1036C000FE818783970123583F4F3C832B83F90169
:1036D0009081ED81FE81928781E0911180E0ED8102
:1036E000FE818387F701EA59FF4FB0806B2D8D81F2
:1036F0009E810E946E15382EF701E959FF4F2080F8
:10370000622D8D819E810E946E15182FF701E85958
:10371000FF4F0081602F8D819E810E946E150150A8
:1037200021E030E0A90101C0440F0A95EAF7482ED4
:10373000441AED81FE81068110160CF041CFBA9437
:10374000C90101C0880FBA94EAF7381AB484150D7C
:103750002A9401C0220F2A94EAF7A22EA11A2B2D37
:103760004A2D632D82810E94FB14182FED81FE816A
:1037700082832B2D4A2D632D83810E940815ED81B4
:10378000FE818383F1E0BF1609F493C0BF1608F4ED
:1037900050C022E0B21609F492C033E0B31609F427
:1037A00099C0082F212F49C0FC0184912B813C81B5
:1037B000280F311DFBCEF701EB58FF4F808191811F
:1037C000EB81FC81E80FF91FFC83EB835F0160E074
:1037D000C5010E9499152B813C81280F391F3C831C
:1037E0002B8362E0C5010E94991534E0A30EB11C41
:1037F0008017910760F3EB81FC81849190E0982F12
:1038000088273196E4918E2B009709F4D8CE0817BB
:10381000190721F48B819C81039634CFEB81FC81C5
:103820003296E4912B813C812E0F311D3C832B83FA
:10383000E2CF202F210F082F050D482F612FC60141
:103840000E949513882309F4BBCEED81FE8114827A
:1038500015825701F2E6AF0EB11C23E6E20EF11C11
:10386000F50160818D819E810E946E15082FF70100
:1038700060818D819E810E946E15182F40E0602F1F
:10388000C6010E94151541E0612FC6010E94151561
:1038900061E08D819E810E946E158111EFCFED81D7
:1038A000FE8185818515E4F28285EB81FC81808330
:1038B00087CEB51821E0210F080F1B0DBECF91E078
:1038C000392F301B21E0210F951901E0080F890FD6
:1038D000130FB3CF212F250D982F901B01E0080F58
:1038E00081E0890FAACFF4018081480E408276CE14
:1038F000F301FACFF4018081841980836FCEF30144
:10390000FACF90E080E00895CF92DF92EF92FF929D
:103910000F931F93CF93DF93EC018B0188819981E3
:103920000E94710F1D870C87FF24F394F986CE0146
:103930000E943210DC011696FC920115110549F126
:10394000E880F980D0E0C0E0F70180819181C8175C
:10395000D907FCF40280F381E02DCE01880F991F76
:10396000E80FF91FC590D49070E060E0C601F8013F
:103970001995892B71F4D60118968C9180FF02C09D
:103980002196E2CF61E070E0C601F8011995019738
:10399000B9F7DF91CF911F910F91FF90EF90DF90DA
:1039A000CF900895CF92DF92EF92FF920F931F93E3
:1039B000CF93DF93EC01AB01DB011A968D919C91C3
:1039C000892BA1F40B80DC81C02D0E94850D6C8BAE
:1039D0007D8B8E8B9F8B11E0812FDF91CF911F917B
:1039E0000F91FF90EF90DF90CF90089589819A8199
:1039F000DC01ED91FC910680F781E02D00E021E0F3
:103A0000BE011995182F8111DDCFEB81FC818189D1
:103A1000882311F3808D918D892BF1F20E94850D01
:103A20000B80DC81C02DCC88DD88EE88FF886C1986
:103A30007D098E099F0928EE33E040E050E00E94A6
:103A4000573A888D998DB0E0A0E082179307A407BC
:103A5000B50710F66A857B85CE010E94841CBCCF19
:103A6000CF93DF93EC018E859F8521E0DC011696D4
:103A70002C930E9417109F81882309F440C099233A
:103A800069F191509F832C813D81F90145E09402B9
:103A9000E00DF11D1124CF01408164E070E00E942F
:103AA000400FCE010E94321021E0FC012683CE019E
:103AB0000E9432109F878E87DC011296ED91FC9157
:103AC00032968591949184FF03C0CE010E94301DEF
:103AD00061E070E08FEFDF91CF91089589898823AD
:103AE00001F38C819D81DC014C9164E070E00E94C7
:103AF000400F6A857B85CE010E94841CD2CF2C8129
:103B00003D81F90145E09402E00DF11D1124CF0142
:103B1000408164E070E00E94400F8A819B81DC015B
:103B2000ED91FC910684F785E02D60E01995B9CF01
:103B30000F931F93CF93DF93EC018B01233031055B
:103B400009F463C0F0F42130310511F12230310560
:103B500009F18E81882309F46AC0D8011396ED918A
:103B6000FC91828960E071E0811102C062E070E046
:103B7000F8014081C801DF91CF911F910F910C9402
:103B8000400F2430310509F44AC02730310509F7C8
:103B900081E08F838F81882321F11F8281E08E83D2
:103BA000E881F9810288F389E02DCE011995D801C9
:103BB0001396ED91FC91828960E071E0811102C061
:103BC00062E070E0F8014081C8010E94400FD80116
:103BD00013968D919C91DF91CF911F910F910C9431
:103BE000301DD8011396ED91FC9180898111D5CFBC
:103BF000E881F9810088F189E02DCE0119958823AB
:103C000061F281E08F838E83A4CFE881F9810488FB
:103C1000F589E02D61E070E0CE0119959ACFE88139
:103C2000F9810488F589E02D6FEF7FEFF5CFDF9103
:103C3000CF911F910F910895DF92EF92FF920F9312
:103C40001F93CF93DF93EC010E944110DC01149687
:103C50008D919C91892B09F4B1C0CE010E94411035
:103C60008C01DC01ED91FC91E084F184CE010E9495
:103C700041102F814C815D81B5E02B02400D511D1B
:103C800011249C0161E070E0C801F7011995892BAE
:103C900009F094C0CE010E9441107C01DC01129613
:103CA000ED91FC91329605911491027011270E94BA
:103CB0001710D82E2F818C819D81B5E02B02800DAD
:103CC000911D1124FC01408162E070E00E94400FD0
:103CD000009709F063C0DD2009F473C0012B61F483
:103CE00002E010E0B8018FEFDF91CF911F910F91AB
:103CF000FF90EF90DF9008959F818E819817A4F533
:103D0000CE010E94321011E0DC0116961C93CE0108
:103D10000E9441102F812F5F2F83EC81FD81B5E040
:103D20002B02E00DF11D1124928381831082CE01BC
:103D30000E943210FC011683D701ED91FC910085A1
:103D40001185CE010E9441102F814C815D81B5E02B
:103D50002B02400D511D11249C0162E070E0C7014F
:103D6000F801199502E006C06CEC70E2CE010E94E9
:103D7000841C00E010E0FF86EE8681E0D7011696F5
:103D80008C93D110AFCF8A819B81DC01ED91FC91A6
:103D90000684F785E02D61E01995A4CF019751F4D1
:103DA000CE010E9441100E941710811103C0CE0164
:103DB0000E94301D012B09F493CFD4CF60E070E056
:103DC00092CF012B09F48CCFFF86EE8681E0F701BC
:103DD000868302E010E0D7CFDF92EF92FF920F933D
:103DE0001F93CF93DF93EB017901088123303105D5
:103DF00009F47AC080F42130310509F4B9C02230C9
:103E0000310509F4C0C0DF91CF911F910F91FF9050
:103E1000EF90DF9008952430310509F483C0C90183
:103E20000797029780F7142F47FDEDCF89819A817C
:103E30000E94390F18173CF789819A81DC0112968C
:103E4000ED91FC913296259134912C703327232BE0
:103E500009F4A4C021E0FC01268349815A81DA01DA
:103E600012968D919C91FC0136962591349127FFF5
:103E700008C0FC0125913491BE0180E890E0F90171
:103E80001995402F60E270E0CE010E94400F188328
:103E9000F7E0EF1AF10882E0E816F10420F48B81D4
:103EA0009C810E941C1E412F60E170E0CE010E94A7
:103EB000400F49815A81DA0112968D919C91FC0143
:103EC00036962591349126FF9ECFFC0125913491A1
:103ED000BE0180E490E0F901DF91CF911F910F9135
:103EE000FF90EF90DF90199489819A810E94390F99
:103EF000882309F488CF11E0100F89819A810E94EC
:103F0000390F181764F089819A81DC011296ED91BE
:103F1000FC9138962591349120FF25C010E00113C3
:103F20008BCF71CF89819A81011109C0DC01129672
:103F3000ED91FC9132962591349124FD19C00E9497
:103F4000390F882309F45FCF1FEF100F17FFE7CF5A
:103F500089819A81DC011296ED91FC913896259128
:103F6000349120FFDBCF0E94390F1FEF180FD7CFFE
:103F70008B819C81DF91CF911F910F91FF90EF90EA
:103F8000DF900C94301D8B819C81DF91CF911F912C
:103F90000F91FF90EF90DF900C941C1E602F0E94F9
:103FA000320FDD24D394DC011696DC92612F8981D7
:103FB0009A810E94320FFC01D6824FCF0E94953A1F
:103FC000FB0101900020E9F73197AF01461B570B29
:103FD000DC01ED91FC910280F381E02D199461E404
:103FE00073E00C94E01F1F93CF93DF93EC01142F29
:103FF0008F8587FD05C0841719F0CE010E94EF1F41
:104000001F87DF91CF911F9108952FEFFC01278724
:10401000858596850C94EF1F0F931F93CF93DF93A5
:104020008C01C62F0E94EF1FD8011696ED91FC91CE
:10403000CC0FDD0B0280F381E02DEC0FFD1F118210
:104040001082DF91CF911F910F910895CF93DF934D
:10405000EC010E94EF1F8E819F81DF91CF910C9424
:10406000190C6115710511F00C94E01F90E080E0CF
:1040700008958F929F92AF92BF92EF92FF920F930B
:104080001F93CF93DF93CDB7DEB7A1970FB6F89408
:10409000DEBF0FBECDBF7C01FA01CB0119A22230D9
:1040A00008F42AE08E010F5D1F4F822E912CB12C57
:1040B000A12CBF01A50194010E94573AF901CA0140
:1040C0006A30ECF4605DD8016E938D01232B242BB4
:1040D000252B79F7BD01C7010E943120A1960FB6AB
:1040E000F894DEBF0FBECDBFDF91CF911F910F912E
:1040F000FF90EF90BF90AF909F908F900895695C74
:10410000E2CFCF92DF92EF92FF920F931F93CF9364
:10411000DF938B01FC01C084D1840D2C000CEE08D0
:10412000FF08F7FE1BC06DE2C8010E94BF0DEC0145
:1041300044275527BA014C195D096E097F092AE009
:10414000C8010E9439208C0F9D1FDF91CF911F91D4
:104150000F91FF90EF90DF90CF9008952AE0B70184
:10416000A601C8010E943920F0CF0C9431206130A3
:10417000710561F030F06230710559F090E080E037
:10418000089564E473E00E94B520F8CF65E573E01C
:10419000FACF62E673E0F7CF61E773E00E94B520E3
:1041A00090E080E00895CF92DF92EF92FF926C0151
:1041B0006DEA73E087E695E00E94B5200D2C000CB7
:1041C000EE08FF082AE0B701A601F7FE0DC06DE278
:1041D00087E695E00E94BF0D44275527BA014C1988
:1041E0005D096E097F092AE087E695E00E94392083
:1041F00087E695E00E94EF1F90E080E0FF90EF904F
:10420000DF90CF9008950F9367EB73E0002311F0D8
:1042100065EB73E00E94312081E00F9108950F93C8
:104220006BEB73E0002311F069EB73E00E94312027
:1042300081E00F910895CF93DF93C62FDC01139691
:10424000ED91FC91828D882381F0062E000C770B76
:104250008DEB93E00E94A13A892B39F067E070E082
:104260008FEC8C0FDF91CF91089580919A0481118A
:104270001CC081E0CB31F1F04091AB045091AC0413
:10428000FA0130E020E00C2E000CDD0B62816C178F
:104290001D0659F5F901EE0FFF1FE20FF31FE40FA2
:1042A000F51F608171818FEFDDCF813051F4CB3507
:1042B00029F482E080939A0460E00EC010929A0480
:1042C000FBCF8230C9F610929A0463E0C23421F029
:1042D0002CF464E0C13481F770E0E5CF62E0C334D0
:1042E000D9F361E0C434C1F3E7CF2F5F3F4F33967A
:1042F0002A30310559F6E0CFEF92FF920F931F93CA
:10430000CF93DF93EC018B01CA01E881F981E68448
:10431000F784DA01ED91FC910284F385E02D199583
:10432000682FC8010E941B219B01482FB801CE01B4
:10433000F701DF91CF911F910F91FF90EF901994AA
:104340002F923F924F925F926F927F928F929F92A5
:10435000AF92BF92CF92DF92EF92FF920F931F9393
:10436000CF93DF9300D000D01F92CDB7DEB71C01F2
:104370007B836A835F834E83DA01ED91FC91048431
:10438000F585E02DCA0119958D3209F041C0AE8145
:10439000BF81ED91FC9111970284F385E02DCD0151
:1043A0001995AE81BF81ED91FC9111970484F5853B
:1043B000E02DCD011995BC018DEB93E00E94A13A4F
:1043C000892B09F0B1C0D101ED91FC910684F785EC
:1043D000E02D24E030E04FEF6A817B81C101279618
:1043E0000FB6F894DEBF0FBECDBFDF91CF911F9106
:1043F0000F91FF90EF90DF90CF90BF90AF909F9084
:104400008F907F906F905F904F903F902F90199476
:10441000682F880F770B8DEB93E00E94A13A892BD0
:1044200009F4E0C080E0EE81FF81F485FD83FF2385
:1044300009F4D0C0412C512C20E8622E2FEB722EB3
:10444000811106C0412C512C90E8692E9FE3792EF2
:104450008E819F810E94910D8C0197FDB7C0AE8126
:10446000BF81ED91FC910284F385E02D8D329105A1
:1044700009F05CC0812C912C80E8A82E8FE3B82E27
:10448000C12CD12C760119821C820130110561F1F9
:104490000D32110509F456C00E32110509F455C04C
:1044A000C801C0970A9700F5AAE0B0E0A7019601FD
:1044B0000E94F3396801110FEE08FF08C60ED71EDF
:1044C000E81EF91EB0E3CB1AD108E108F108E98132
:1044D000EE2351F02DEC3CEC4CEC5DE3C501B40156
:1044E0000E9435394B015C01AE81BF81ED91FC9199
:1044F00011970284F385E02DCD0119958E819F815E
:104500000E94910D8C01C0970A9708F4BECF0E321D
:104510001105F1F4B981BB2309F4B7CFFC81FF2366
:1045200069F1FC81F9831BC081E07DCFC0970A97B8
:1045300008F4A0CF0E32110509F49CCF8E819F8123
:10454000199586CFFD81FC83CFCF2D812983CCCFD8
:104550000130110509F499CFEC81EE2341F0F0947C
:10456000E094D094C094C11CD11CE11CF11CC70183
:10457000B6010E94FA382981222341F0C701B60111
:104580000E94FA38A50194010E943539D101129692
:10459000ED91FC913C96259134913F832E839B01B4
:1045A000AC01C301B2010E9435390E940D3AAE81BF
:1045B000BF816D937C9381E0F10187830190F0814D
:1045C000E02D0684F785E02D22E004CF60E070E066
:1045D000CB01DCCFD101ED91FC910684F785E02D74
:1045E00027E0F8CED101ED91FC9106851785AE81CB
:1045F000BF81ED91FC9111970284F385E02DCD01EF
:104600001995682F8A819B810E941B219B01482F4D
:104610006A817B81C101F801E2CECF93DF9300D0A4
:104620001F92CDB7DEB724E06202B0011124680FFB
:10463000791F44E050E0CE0101960E94EF38698175
:104640007A818B819C810F900F900F900F90DF915A
:10465000CF910895FC01808191810E940D23892FC3
:1046600008952F923F924F925F926F927F928F9216
:104670009F92AF92BF92CF92EF92FF920F931F93B0
:10468000CF93DF93EC012B015A01122FE881F981BE
:104690000488F589E02D00E021E030E040E061E0B1
:1046A00070E0199560E170E0C5010E9465108823F3
:1046B00009F45DC0912C812CD501ED91FC91019004
:1046C000F081E02DC5011995082E000C990B881674
:1046D00099060CF0D6C0D501ED91FC910088F189C6
:1046E000E02D682DC50119953C01FC01248135811F
:1046F000E881F9810488F589E02D00E040E061E07F
:1047000070E0CE011995D30114962D913C91E8816A
:10471000F9810688F789E02DE12E40E0682DCE0171
:104720001995F30124813581E881F9810488F5899F
:10473000E02D40E061E070E0CE011995D301ED91EC
:10474000FC9124803580EE81FF81612F80819181F1
:104750000E940D23C12EE82E082D9E0140E0B201DB
:10476000C301F1011995FFEF8F1A9F0AA5CFE881C8
:10477000F9810088F189E02D612FCE011995E8813A
:10478000F9810288F389E02D212F40E060E0CE011D
:104790001995312C612F8E819F810E942A23381612
:1047A0000CF06FC0D501ED91FC910190F081E02DEE
:1047B000C501199538160CF064C0D501ED91FC9136
:1047C0000088F189E02D632DC50119954C01FC018C
:1047D000E480F580E881F9810484F585E02DC12C21
:1047E00000E030E020E0412F632DCE011995E881F3
:1047F000F9810288F389E02D212F432D60E0CE015D
:104800001995D40114962D913C91E881F981048881
:10481000F589E02D40E061E070E0CE011995F401EA
:1048200024813581E881F9810688F789E02DE12E20
:1048300040E0632DCE011995D40114962D913C9141
:10484000E881F9810488F589E02D40E061E070E0BD
:10485000CE011995D401ED91FC9164807580EE81B3
:10486000FF81612F808191810E940D23C12EE82E4E
:10487000032D9E0140E0B201C401F3011995339468
:1048800089CFDF91CF911F910F91FF90EF90CF9043
:10489000BF90AF909F908F907F906F905F904F9060
:1048A0003F902F9008956F927F928F929F92AF9238
:1048B000BF92CF92DF92EF92FF920F931F93CF930D
:1048C000DF93EC017B016A01622E1E8264E170E0DD
:1048D0000E946510882329F110E000E0E881F98149
:1048E0000190F081E02DCE011995082E000C990B56
:1048F000081719070CF0C3C0E881F9810088F18915
:10490000E02D602FCE011995DC01ED91FC91028024
:10491000F381E02D20E0A601B70119950F5F1F4F2D
:10492000DDCFD7011396ED91FC917780CE010E94E7
:104930005810B72DE5E0BE02400111248823B1F0E4
:10494000D7011396ED91FC9164817581C40105979F
:10495000680F791FFB0181819281DC01ED91FC914F
:104960000280F381E02D262DA601199560E0F60165
:10497000868197810E942A23082F8A819B8108962D
:10498000FC0125913491F701A381B48111E021FD4F
:1049900011C018962C91189710E0222359F0FC01B1
:1049A000859194919695879596958795F1E08F27B7
:1049B000182F1170F601A480B58014968D919C91EA
:1049C000880E991ED40111968D909C9060E170E044
:1049D000C4010E946510811105C064E070E0C4014B
:1049E0000E946510662009F44AC0272D770C330B0E
:1049F000F901E81BF109CF018A0D9B1DDC017C90B8
:104A0000B12CA12C011B802E000F9908172D1A0D17
:104A1000A814B904A4F5E881F9810190F081E02D92
:104A2000CE01199518175CF5E881F9810088F189A4
:104A3000E02D612FCE011995DC01ED91FC910280F2
:104A4000F381E02D20E0A601B7011995E881F981F5
:104A50000088F189E02D612FCE011995DC01ED91DF
:104A6000FC910680F781E02D00E020E0A601B7016F
:104A70001995811104C0BFEFAB1ABB0AC7CFDF91F4
:104A8000CF911F910F91FF90EF90DF90CF90BF904B
:104A9000AF909F908F907F906F9008955F926F92EC
:104AA0007F928F929F92AF92BF92CF92DF92EF92BE
:104AB000FF920F931F93CF93DF93DC0116961C9107
:104AC0001111ECC0502E022F6A017B01EC0164E150
:104AD00070E00E946510882341F1B12CA12CE8817F
:104AE000F9810190F081E02DCE011995082E000C7E
:104AF000990BA816B90614F5E881F9810088F189A7
:104B0000E02D6A2DCE011995DC01ED91FC91068016
:104B1000F781E02D052D20E0A601B701199581113F
:104B2000BDC0BFEFAB1ABB0ADACFF701818192811A
:104B3000C817D90711F4011112C01E81812FDF910E
:104B4000CF911F910F91FF90EF90DF90CF90BF908A
:104B5000AF909F908F907F906F905F9008950380AB
:104B6000F481E02DA780CE010E945810BA2DE5E017
:104B7000BE02300111248823D1F0D7011396ED91A4
:104B8000FC91B5E06B1A710864817581660D771D23
:104B9000FB0181819281DC01ED91FC910680F7811E
:104BA000E02D052D21E0A6011995182FC7CF60E053
:104BB000F601868197810E942A232A813B81285F02
:104BC0003F4FF90145915491F701A381B48141FD13
:104BD00061C018969C911897992309F45DC0F9015A
:104BE000259134913695279536952795F1E02F2715
:104BF0002170082F021BF601848095800A2C000C7E
:104C0000BB0814966D917C91660E771ED3011196A8
:104C10006D907C9060E170E0C3010E94651081118D
:104C200005C064E070E0C3010E946510A81AB108D5
:104C30008A0C9B1CF4017080B12CA12C802E000FDB
:104C40009908072D0A0DA814B9040CF077CFE88154
:104C5000F9810190F081E02DCE01199508170CF033
:104C60006DCFE881F9810088F189E02D602FCE01B8
:104C70001995DC01ED91FC910680F781E02D052D61
:104C800020E0A601B7011995811108C0BFEFAB1A4A
:104C9000BB0AD7CF21E0ADCF20E0ABCF11E04ECFA4
:104CA0002F923F924F925F926F927F928F929F923C
:104CB000AF92BF92CF92DF92EF92FF920F931F932A
:104CC000CF93DF93CDB7DEB763970FB6F894DEBF0F
:104CD0000FBECDBF9B8B8A8B2B01142FDB0113964C
:104CE000ED91FC9165E070E0868597850E946510E6
:104CF000082FF20183819481DC01011154C01E96BA
:104D00008D919C91DC01ED91FC910680F781E02D65
:104D100020E04A895B89B2011995882309F1D20103
:104D20001396ED91FC91A684B784D501ED91FC9189
:104D300084809580AA89BB891696ED91FC91612F9C
:104D4000808191810E940D23F20163817481C12EC3
:104D5000E82E00812A893B8941E0C501F4011995BB
:104D6000F20181819281AA89BB891B969C938E93C3
:104D70001A9780E063960FB6F894DEBF0FBECDBFE2
:104D8000DF91CF911F910F91FF90EF90DF90CF9027
:104D9000BF90AF909F908F907F906F905F904F905B
:104DA0003F902F9008951796AC90AA2031F00E9462
:104DB00032100E9458108111AA940A2C000CBB08D2
:104DC000AA89BB891496ED91FC91EA0DFB1D6080C8
:104DD00060E170E0F201818192810E946510382EBD
:104DE000D2011196ED91FC911297828193810896E0
:104DF000FC012591349121FD0BC01396ED91FC919E
:104E00007084772099F0FC018591949182FD0DC00A
:104E100031100BC0612FEA89FB89868197810E943E
:104E20002A237724739482300CF4712CD2011196CA
:104E30008D919C910E945810811129C0C72CD12CB2
:104E4000EA89FB898485882309F48BC0D201FC9010
:104E50000680F781E02D612F808191810E940D23D2
:104E6000AA89BB891496ED91FC91EA0DFB1D2F2DAB
:104E70000F2C000C330B672F690F062E000C770BDD
:104E80006C197D09C9010E94433AF81AF082EA8937
:104E9000FB89408540FD34C00480F581E02DEA0D9A
:104EA000FB1D808186112CC0AA89BB891A968D9121
:104EB0009C911B97F201218132818217930701F5A2
:104EC0001696ED91FC910280F381E02D212F220FA7
:104ED000330BE20FF31F208131812415350581F456
:104EE00000E041FD0DC0DC01ED91FC910680F781F1
:104EF000E02D00E021E04A895B89B2011995082F75
:104F0000D2011196ED91FC91D680D02A29F4EA893C
:104F1000FB89808581FF2DCFAA89BB891696ED91EB
:104F2000FC91612F808191810E940D23982E711038
:104F300061C1F20181819281DC01ED91FC910680D9
:104F4000F781E02D00E020E04A895B89B2011995E4
:104F500081113FC1D11040C1332009F4A1C1198290
:104F6000A8C1F20180814601880E911C87FD9A94A8
:104F7000AA89BB891496ED91FC911597EA0DFB1D4A
:104F8000E0800E2C000CFF08612F16968D919C91ED
:104F90000E942A23E80EF11C87FDFA948E149F04C8
:104FA0005CF0AA89BB891496ED91FC91EA0DFB1D7A
:104FB00080818F5F8083D5CFAA89BB891496ED91BC
:104FC000FC91EA0DFB1D9081F201808189175CF450
:104FD000AA89BB891496ED91FC91EA0DFB1D808195
:104FE00081508083E9CF21813281992309F44FCF09
:104FF000C9010E94390FE82E880FFF08AA89BB89D2
:105000001496ED91FC911597EA0DFB1D8081E81A2D
:10501000F10887FDF394612F16968D919C910E9463
:105020002A23082E000C990B8C199D09E816F90605
:105030007CF22DCF332009F433C169EC73E08A8907
:105040009B890E94B5208BCF612FEA89FB898681DD
:1050500097810E942A23082E000C990B29853A85F6
:10506000821B930BE816F9060CF44AC179CEDC01D9
:10507000ED91FC910680F781E02D00E020E04A8967
:105080005B89B2011995811158C1839432C13320D3
:1050900009F484C02A813B816216730609F07EC040
:1050A0006BEB73E08A899B890E94B520F92CEE2472
:1050B000EA94EF0CF50124813581AA89BB89ED9131
:1050C000FC9111970488F589E02D0C81422D61E057
:1050D00070E0CD0119951E140CF5F2016381748105
:1050E000D501ED91FC910480F581E02DC12E082DB4
:1050F0002A893B89422DC501199518167CF4332065
:1051000069F0EA81FB8167EB73E06E167F0611F0B0
:1051100063E473E08A899B890E94B5202A813B81E0
:105120006216730609F0B1CFAA89BB891696ED9174
:10513000FC918481082E000C990BEE85FF85E81701
:10514000F9070CF0A2CFC5010E941710882349F07F
:10515000D5011296ED91FC9132968591949184FF40
:105160001FC0AA89BB891696ED91FC910280F3813C
:10517000E02D2F813885E20FF31F80819181892BEB
:1051800009F483CFAA89BB89ED91FC91119700881E
:10519000F189E02D6B85CD01199577CFF92C40C1B0
:1051A000D20113966D917C912B85A5018A899B89EB
:1051B0000E943123AA89BB891696ED91FC91028049
:1051C000F381E02D2F813885E20FF31F5182408259
:1051D0005CCFDD2009F42ECF31102FCFAA89BB89F7
:1051E000ED91FC9111970088F189E02D612FCD019F
:1051F000199556C0D11027C131101FCFAA89BB897C
:10520000ED91FC9111970488F589E02D00E021E0F3
:1052100030E040E065E070E0CD011995AA89BB89D6
:10522000ED91FC9111970484F585E02DC12CEE24BD
:10523000E394F12C25E030E0412F60E0CD01199599
:10524000AA89BB89ED91FC9111970488F589E02D1D
:1052500021E030E041E065E070E0CD011995AA89D8
:10526000BB89ED91FC9111970288F389E02D212FE4
:1052700040E060E0CD011995F20181819281638166
:105280007481DC01ED91FC910480F581E02DC12E4B
:105290004EEFE42EE90C0FEF2A893B8941E0199586
:1052A000EA89FB8984819581A80EB91ED501BC913C
:1052B000B983812F012E000C990B0196FC01EE0F92
:1052C000FF1FF887EF83812C272D30E03A8729874D
:1052D000A9810A2E000CBB0BBD87AC879F878E87E8
:1052E000B1E0B10FBB87E981EF5CE88BFDEFF90D11
:1052F000F98BE82C082C000CFF08332009F4A4CE0D
:105300006C847D846E0C7F1CD20111968D919C91D2
:105310000E94390F082E000C990B681679060CF0C4
:105320001FCD6981680DD20111968D919C910E94CB
:10533000320F5C01DD2009F49ACEE985FA85EE0D85
:10534000FF1DFE83ED83D2018C91E82F880FFF0BA8
:10535000FB83EA83222423946E167F0609F0212C16
:10536000F1E0FC83D20111968D919C918A159B05E9
:1053700009F01C82311020C0F501E480F580AA8973
:10538000BB89ED91FC9111970484F585E02DC12C2A
:10539000022D30E020E0412F6D81CD011995AA89C1
:1053A000BB89ED91FC9111970288F389E02D212FA3
:1053B0004D8160E0CD011995F50124813581AA89DF
:1053C000BB89ED91FC9111970488F589E02D0C8142
:1053D000422D61E070E0CD011995D2011396ED9157
:1053E000FC91828D882309F452CE311053CEEA8984
:1053F000FB89808582FFD2CE0889080D6BE5CF013D
:105400000E94BF0D0A330CF00DE2602F8A899B8940
:105410000E94BF0D6DE58A899B890E94BF0DF988A6
:10542000D50114962D913C91AA89BB89ED91FC91EF
:1054300011970688F789E02DE12E0C81422D6D81B0
:10544000CD01199534CE3110F8CDAA89BB89ED91E3
:10545000FC9111970088F189E02D612FCD011995FC
:10546000CDCE2F923F924F925F926F927F928F920A
:105470009F92AF92BF92CF92DF92EF92FF920F93E3
:105480001F93CF93DF9300D01F92CDB7DEB73C01BF
:105490006B01912C812CD3018D919C9111978816D1
:1054A00099060CF004C11296ED91FC91C401880F8D
:1054B000991FE80FF91F05911491F80180859185D6
:1054C00081729927892B09F48DC0D60113960D900E
:1054D000BC91A02DBA83A983CD010E943210E9812D
:1054E000FA81E7800E2C000CFF080E9458108111F1
:1054F00083C0D6011396ED91FC91B5E0BE9D1001DD
:10550000BF9D300C112484819581280E391ED8014D
:105510001696ED91FC91B481EB2F0E2E000CFF0B33
:105520003197FC83EB83EE16FF0614F4FC82EB82CA
:10553000D80118968C9183FF08C0EB81FC813097CD
:1055400009F45EC03197FC83EB83B12CA12C970149
:105550008B819C81281B390B3A832983AB81BC81C9
:10556000AA16BB060CF04CC0F601638174818981D8
:105570009A818A0D9B1DF5E0F89F7001F99FF00C50
:105580001124DB0114968D919C91E80EF91E2501E2
:10559000440C551CF801808581FF0DC00680F78101
:1055A000E02D0280F381E02DE40DF51D80819181D5
:1055B000E816F90699F0D70111964D915C912A2DC4
:1055C000C8010E943123D8011696ED91FC91828189
:1055D0009381480E591EF201F182E082FFEFAF1A6B
:1055E000BF0ABCCFB801C6010E94D21C81116DCF89
:1055F0008FEF881A980A4FCFF1E0EF1AF10879CFB0
:10560000D8011696ED91FC91BB81B5834B2FB1016A
:10561000C8010E945026EB80FC80EE0CFF1CD801D4
:105620001696ED91FC910280F381E02DEE0DFF1DA9
:10563000D182C082EB81FC813296FA83E983D80162
:105640001696ED91FC9117978481082E000C990B0A
:1056500029813A81281739075CF6570134E0A30EF7
:10566000B11C0280F381E02DEA0DFB1D8081918148
:10567000892B99F0ED91FC910088F189E02D6981E9
:10568000C8011995D8011696ED91FC9182819381FC
:10569000A80EB91EF5011182108229813A812F5F6F
:1056A0003F4F3A83298332E0E30EF11CC8CF1A82C0
:1056B0001982D3018D919C911197E981FA81E817A4
:1056C000F907ECF4CF01880F991F1296ED91FC9128
:1056D000E80FF91F45915491D60111968D919C9137
:1056E000DC01ED91FC910280F381E02D21E0B60117
:1056F0001995E981FA813196FA83E983DACF80E05E
:105700000F900F900F900F90DF91CF911F910F91FD
:10571000FF90EF90DF90CF90BF90AF909F908F90D1
:105720007F906F905F904F903F902F900895AF9231
:10573000BF92CF92EF92FF920F931F93CF93DF937D
:105740008C015B01E9014E2DDC011296ED91FC917B
:10575000349665917491E881F9810084F185E02D9A
:10576000C9011995F82ED8011296ED91FC91329647
:1057700085919491857199274597A1F4F5018781C9
:1057800064817581F5E08F02600D711D1124DB01CC
:1057900011968D919C910817190779F44C2DCE0123
:1057A0000E9450268F2DDF91CF911F910F91FF9076
:1057B000EF90CF90BF90AF9008952C2DA801B50128
:1057C000CE010E943123EECF6F927F928F929F92F3
:1057D000AF92BF92CF92DF92EF92FF920F931F93FF
:1057E000CF93DF93EC014B01D42E5901FE2CEA81BB
:1057F000FB813C96A591B4918D919C919987888766
:10580000CE010E94972B182F8E150CF052C0D40198
:105810001E966D907C90C615D70541F4DD2031F0C1
:105820008F816AE3882319F06EE301C060E2C5014D
:105830000E94BF0D1F5F1F150CF03BC0992493946D
:10584000C615D70509F0912C2C813D81D501ED912C
:10585000FC910488F589E02D092D4D2D62E070E062
:10586000C5011995E881F9810688F789E02DB50110
:10587000CE011995180F1F15E4F42C813D81D50137
:10588000ED91FC910488F589E02D4D2D63E070E0E9
:10589000C5011995EA81FB813A9665917491D5010C
:1058A000ED91FC910084F185E02D4F2DC5011995F6
:1058B000180F812FDF91CF911F910F91FF90EF90E3
:1058C000DF90CF90BF90AF909F908F907F906F9020
:1058D0000895AF92BF92CF92DF92EF92FF920F9313
:1058E0001F93CF93DF93EC01C62EF42E59016E2D3A
:1058F000EE81FF81808191810E940D23D62E172F8A
:10590000E881F9810488F589E02D00E095014F2DAB
:1059100064E070E0CE011995EB88FC880E85EE817D
:10592000FF8160E0808191810E940D239D85989F79
:10593000202D11241C0D8E854A89189F400D11249D
:1059400069899D9D600D1124C70104960E941C1653
:10595000DF91CF911F910F91FF90EF90DF90CF904B
:10596000BF90AF900895CF92FF920F931F93CF9364
:10597000DF93002339F16C2DF22E142FEC01EE8110
:10598000FF81808191810E940D230E853D8521E05C
:10599000230F7F0D4A89709F400D1124812F110F15
:1059A000990B860F911D67FD9A95019769899F85CF
:1059B000690F6150389F600D11248B899C89049672
:1059C0000E941C1680E0DF91CF911F910F91FF90F4
:1059D000CF900895EF92FF920F931F93CF93DF9391
:1059E000002359F16E2DF22E142FEC01EE81FF8170
:1059F000808191810E940D230E852D857F0D4A891E
:105A0000709F400D112489899F85890F610F629FC6
:105A1000800D1124682F8B899C8904960E945E1644
:105A2000E881F9810488F589E02D00E021E030E08B
:105A300040E061E070E0CE01199580E0DF91CF9108
:105A40001F910F91FF90EF9008950F931F93CF93A5
:105A5000DF93EC01062F142FEE81FF81622F8081EE
:105A600091810E940D232B893C89F901EF57FF4F4B
:105A7000600F9D858F854989840F699F800D112452
:105A800080832E573F4F710F8E85789F800D112494
:105A90009889891B9A89890FF9018083DF91CF91B9
:105AA0001F910F910895BF92CF92DF92EF92FF92D4
:105AB0000F931F93CF93DF93CDB7DEB76C01F42E16
:105AC000B22E102FDC011696ED91FC918081918110
:105AD0000E940D23F60146858585E49E002D112444
