:100000000C94E5080C9416090C9416090C94160926
:100010000C9416090C9416090C9416090C941609E4
:100020000C9416090C9416090C9416090C941609D4
:100030000C9416090C9416090C9416090C941609C4
:100040000C9416090C9416090C9416090C941609B4
:100050000C9444320C9416090C9416090C949A31A1
:100060000C9416090C940E320C94E4310C9416097D
:100070000C9416090C9416090C9416090C94160984
:100080000C9416090C9416090C9416090C94160974
:100090000C9416090C9416090C9416090C946F32E2
:1000A0000C9416090C9416090C9416090C94160954
:1000B0000C9416090C9416090C9416090C94160944
:1000C0000C9416090C9416090C9416090C94160934
:1000D0000C9416090C9416090C9416090C94160924
:1000E0000C9416090C94E2100C94AA0C0C94592D43
:1000F0000C945B1C0C9418090C94921D0C940F0D1D
:100100000C94CB090C9472160C94432A0C94302E48
:100110000C948E0B0C9424160C94E3090C94DB0BBA
:100120000C9422090C94D30C0C94B1230C947109F7
:100130000C94EA1C0C94250B0C94C3300C948F1671
:100140000C948B1D0C94942D0C94AC0C0C947B2E65
:100150000C94500D0C9497160C94CA140C94FE2F0A
:100160000C94110D0C94BD140C94D40C0C94B71C6D
:100170000C94C82E0C94D12B0C94F6090C94C00945
:100180000C94F80A0C94DF150C94B6090C944714DF
:100190000C94440D0C94C8090C94C30F0C94B62312
:1001A0000C94941C0C942D1F0C943B300C94C9158A
:1001B0000C94A30C0C94451D0C9492160C94F1090C
:1001C0000C94BF160C94991C0C94E1140C944730B9
:1001D0000C94FB090C94D1090C94D4150C94532C59
:1001E0000C94BE150C9488160C94BC090C947810D1
:1001F0000C94D51D0C94340B0C94480B0C94F629DC
:100200000C94EA150C94D5090C94D5180C942B1465
:100210000C947B2F0C94DA140C94C4090C94222DAA
:100220000C94C91C0C94F92D0C94080D0C948C148E
:100230000C94DF090C942C0C0C94402C0C947B092E
:100240000C9471160C94D82C0C945D140C94631DB2
:100250000C94C42A0C94A90D0C9400160C94C91D7E
:100260000C94AA330C943C2F0C9445160C94EA146D
:100270000C94F7090C94F5150C9442130C94442F2C
:100280000C94560B0C941B0D0C94661E0C948A3027
:100290000C9473090C94C22D0C94920C0C94DB09F1
:1002A0000C94D7140C940C0F0C94421E0C946616EC
:1002B0000C9401200C9495160C94EC190C9479165E
:1002C0000C946C100C94D01C0C94E9090C947809D3
:1002D0000C946A140C94ED09CE07C707D507F007F4
:1002E0004608C007B90729080508B207A807A107EB
:1002F0004D61696E206D656E75003C4578697400CE
:10030000140516051805180548657800416C6572D6
:10031000742074657374004C4544204F6666004C2D
:100320004544204F6E004F7032004F703100E60799
:10033000DC0754696D650000003A0000FE07F7070E
:100340005375622D4D656E75003C4261636B0053C1
:100350007562310022081B0814080D0843686F6F8E
:100360007365004C6173740054686972640053656E
:10037000636F6E64004669727374003F0838083119
:100380000853656C6563740054776F004F6E6500A9
:100390005A65726F0055084E084C65643A20004F4C
:1003A0006666004F6E0000002100240027002A002E
:1003B0002D003000330001010000040107010A0193
:1003C00000002200250028002B002E003100340000
:1003D00002010000050108010B01000020002300BC
:1003E000260029002C002F0032000001000003012C
:1003F00006010901050505050705080808080202A8
:1004000002020A0A080804040404010101010101AE
:1004100001010303030303030303040707070C0C91
:100420000C0C0C0C0C0C0202020206060606060658
:1004300006060B0B0B0B0B0B0B0B010210202008FD
:10044000081020401020408002010201080402012F
:10045000010204081020408080402010080402019E
:1004600080040201804020100804020108040201F7
:10047000010204081020408001020408102040807E
:1004800000000A0B02090C0D0E080703040100000E
:10049000000000000000000000000000000000005C
:1004A0000000000000000000000000001211100019
:1004B000000000000000000000000000000000003C
:1004C0000000000000000000280AC006AE06000080
:1004D0000001010101010000010101000001010111
:1004E00000000001000001010101000000001204F1
:1004F0007B090300F002000001000CD8021B0D2054
:1005000000FA02020000007B090600080300000058
:10051000000002000304991C00000C03020000000C
:10052000DA140000170302000000E11400001F03AA
:10053000020000007B0900002603000000007B0988
:1005400000002A03000000007B09170032030000AE
:100550000000022E037B090600380300000100376B
:10056000034E0500003B000A0001007B0906003B2A
:1005700003000000003903500500000B00010000DB
:10058000007B090300400300000000023C031B0D38
:1005900020004903020000007B0900004F03000017
:1005A00000007B090B005C030000000004540305FD
:1005B000027B090000630300000000FFFF7B0900CD
:1005C0000068030000000003007B0900006E0300C8
:1005D00000000002007B090000750300000000011C
:1005E000007B090F00810300000000037B0352051C
:1005F0007B09000088030000000002007B09000066
:100600008C030000000001007B0900009003000043
:10061000000000007B09090099030000000002951A
:100620000307027B0900009F030000000000007B1D
:10063000090000A303000000000100BF0203020341
:1006400004010204070D00FE09FE090001BA03AD12
:100650000B6F2006EFFCF97F210AEFFC6971DFE1E7
:100660009C06220CEFFC4949988449CE9F00231137
:10067000EFFC999230C9062DC9062D09939C0924D7
:100680000FEFFCD9D2214AD2358986346703250F72
:10069000EFFC2959526A8DD3524B2D27012610EFBA
:1006A000FCB9885116856294D4B225A7002709EFBA
:1006B000FC69719DBF01280DEFFC89699CC6F53866
:1006C000CF4900290DEFFC49799CC7D538CD890069
:1006D0002A0DEFFCB944A1366C629473022B0CEF27
:1006E000FCB9C5E120C63937002C0AEFFCF9A75147
:1006F000CC51002D09EFFCF932E87C012E0AEFFC09
:10070000F9B774CD31002F0DEFFCA9711AA7E534AC
:10071000CEA9003011EFFC4962544CC2244CC224D3
:100720008C8A3A0D310CEFFC69A998C43D0E3A054C
:100730003210EFFC29431426619C86621A0F3B0598
:10074000330FEFFCF1614EAB7B9C84D1909300346E
:1007500011EFFC89A99864512DCAA2618D73120012
:100760003510EFFCF161892B931657C268C8490018
:100770003611EFFC495B1A57262D0993301A721275
:1007800000370DEFFCF1614ECB699CC6391538146A
:10079000EFFC294314266112464314266112464396
:1007A0004E023911EFFC294314266192494B5CCD6E
:1007B000761A003A0CEFFCB9A56B4E4ED71C033BE2
:1007C0000CEFFCB9A56B4E1DC51C053C09EFFCA93F
:1007D000BD77A7003D0BEFFCB90F3B65D8B9003ED4
:1007E0000AEFFC2979D7EE54003F0FEFFC294314A0
:1007F00026619C967338A7014014EFFC2943142608
:1008000061122DA5A4A244497DC849004113EFFC03
:100810004962544CC2244C86254CC224CC29004247
:1008200013EFFCF1412B6551160D59298BB264D0A1
:100830004900430EEFFC29431426718FD190930099
:100840004413EFFCF1412B65511665511665519625
:100850000C3A09450EEFFCF16189CB431697879D51
:1008600002460DEFFCF16189CB4316B793014711A6
:10087000EFFC2943142671D3122699B4E4140048DE
:1008800014EFFCF130099330099361099330099317
:1008900030A700490CEFFC298318F771D029004AD2
:1008A0000CEFFC696BDC5396ED34004B12EFFCF15E
:1008B00030C9A25A12AA491865A530A7004C0AEF00
:1008C000FCF1B89F879D024D14EFFCF13091144963
:1008D00049948A524CC2244CC29C024E14EFFCF143
:1008E0003009132D2925515253C2244CC29C024F6A
:1008F00014EFFC2943142661122661122661124668
:10090000434E025010EFFCF1410A93300993418AA3
:10091000DBC9005116EFFC2943142661122661122F
:1009200026A5244AA221CF11005213EFFCF1410A5F
:1009300093300993414AC2282B8539055311EFFCA6
:1009400029431426713EE4711246434E02540AEFC5
:10095000FC298318F73B0D5514EFFCF13009933057
:1009600009933009933009A32127015611EFFCF1B7
:1009700030099330AA455914AA761A005715EFFC8E
:10098000F130099330099344A92889A4484A98531F
:10099000005812EFFCF13009A35A148A511615932E
:1009A00030A700590EEFFC29599455C2248DBBD3B2
:1009B000005A0DEFFCF1614EAB6AF3B053005B0CD3
:1009C000EFFC91218BFBF39043005C0DEFFC297150
:1009D0001EE7E53CCE29005D0BEFFC9121EEDF86A2
:1009E0001C025E0BEFFC696992D5F90B005F09EF01
:1009F000FCF9EFC38E006009EFFCA13CE7BF016189
:100A00000FEFFC7919F26850C22493969C02621190
:100A1000EFFCF1B865D2923009132D4976120063CC
:100A20000EEFFC7919A230898BD19093006411EFFD
:100A3000FCA97169A92961122699B4E41400650F13
:100A4000EFFC7919A2301996388C869C04660DEF5C
:100A5000FC495B294E87306EA7026710EFFC79597D
:100A60006A51966DF91085D110016811EFFCF1B84B
:100A700065D2923009933009730A00690CEFFCD9F2
:100A80007254EE38E814006A0DEFFC597354EE947A
:100A9000455936016B0FEFFCF1B82DAA8D51560A5E
:100AA000730A006C0AEFFC49723F0E3A056D11EFB4
:100AB000FC7951B2A49494925252CA720A006E10F8
:100AC000EFFCB927939684499884499853006F1096
:100AD000EFFC7919A23009933009A3212701700F87
:100AE000EFFCB927939684899624535C06710EEF28
:100AF000FC79596A4A9864D212B700720BEFFCB9BC
:100B0000275B296EA702730FEFFC7919A230D2A5DB
:100B1000301A721200740DEFFC59E27408E3B66CDF
:100B200027017510EFFCB987499884499864D292DF
:100B30005300760FEFFC79C9A22CCA2A6192E634E1
:100B4000007710EFFC79C9A22C4A4A4929A9253916
:100B500009780DEFFCB987515115A3624E01791147
:100B6000EFFCB98749988449262D71124643047ACF
:100B70000BEFFCB90F6BD761A7007B0DEFFCB12D1C
:100B8000AE877A1AD777047C09EFFC69717FA701D9
:100B90007D0DEFFC913DAEE6621ED7760C7E0AEF2E
:100BA000FC492DA53A7F02A006EFFCF97FA10AEFD0
:100BB000FC6939DCEF3400A210EFFC69E9969492ED
:100BC000300993DA9AB301A30EEFFC495B294ED7A3
:100BD000B896243B09A410EFFCD9C368C8A22CCA5C
:100BE0008628CC5900A511EFFCF12CCA2A61920D80
:100BF000623888714E04A60AEFFC69713BDC9D06E1
:100C0000A711EFFC2131CA7231CAA250CFA250A75E
:100C100001A80BEFFC295116E5FC1300A915EFFC08
:100C20002943142689D2949492529228C568C849BF
:100C300000AA0FEFFC497B36445936E4D0A073017B
:100C4000AB11EFFCD9922CC9922C49933449939C57
:100C500005AC0AEFFCF932C8752E00AD09EFFCF9BE
:100C600032E47C02AE15EFFC2943142689D2A2544B
:100C700094446951C268C84900AF09EFFC2983CE8A
:100C80007F01B00CEFFC49629445A1CE6F00B10E1C
:100C9000EFFCD9E27010E31C1C741600B20CEFFCE0
:100CA000A13489D3F2CE3700B30CEFFC9139CDC318
:100CB00024CDF908B409EFFCB134E73F02B511EFD8
:100CC000FCB9874998844998484AA2D46100B6146F
:100CD000EFFC2983B2444BB4644A98844998844910
:100CE0004E02B708EFFCF9A4F30DB808EFFCF9DFEA
:100CF000D210B90AEFFCA1546EDDF906BA0EEFFC72
:100D000049629445A10E0E394F00BB11EFFCE94931
:100D10009AA4499A6449966449CE08BC10EFFC91A4
:100D2000546E4B1631099370CE2900BD0EEFFC9125
:100D3000546E8A86244ECB3B05BE10EFFCE7340F81
:100D400093A824266112CE3905BF0EEFFC49395C09
:100D50002D8749180D3909C012EFFCA13C47C5A8E1
:100D60009884C9B08449985300C112EFFCB134870C
:100D7000C5A89884C9B08449985300C213EFFC21D8
:100D800031CA41312A2661322C6112E61400C313A4
:100D9000EFFC11298974508C8A49980C4B9884393E
:100DA00005C413EFFC91288B72508C8A49980C4B28
:100DB00098843905C513EFFC21310A55312A266183
:100DC000322C6112E61400C614EFFC29C9524CC241
:100DD000244CA63109933019720A00C70EEFFC2982
:100DE000431426718FD1901601C810EFFCA13CC7A7
:100DF00086258E872C8E879D02C910EFFCB13407A3
:100E000087258E872C8E879D02CA11EFFC2131CA5F
:100E1000A16189E3218BE361A700CB12EFFC91284C
:100E20008B726858E278C8E278D82900CC0EEFFCC3
:100E3000A13C070731EE38E81400CD0EEFFCB134C9
:100E4000470731EE38E81400CE0EEFFCB134C9B1DB
:100E5000418C3B0E3A05CF0FEFFC912CCA72681003
:100E6000E38E834E01D013EFFCF1412B6551964C7C
:100E7000B5288BB264D04900D115EFFC11298974D3
:100E8000284CB4A494949228A929614E01D213EF5E
:100E9000FCA13C0787284CC2244CC2248C869C04AD
:100EA000D313EFFCB1344787284CC2244CC2248CA6
:100EB000869C04D414EFFC2131CAB1210A93300975
:100EC000933009A3212701D515EFFC112989746CF2
:100ED00088C2244CC2244CC268C84900D615EFFC15
:100EE00091288B726C88C2244CC2244CC268C849B9
:100EF00000D70DEFFCD9C3A8A88A51316701D816D5
:100F0000EFFCD1688832254A4A4953524A4A891629
:100F10000D510E03D913EFFCA13CC7C2244CC224CF
:100F20004CC2248C869C04DA13EFFCB134072B618D
:100F300012266112266134E42400DB14EFFC213117
:100F4000CAA13009933009933009A3212701DC1588
:100F5000EFFC91288B72284CC2244CC2244CC268EE
:100F6000C84900DD0EEFFCC13407B328ABA4713BC8
:100F70000DDE10EFFCF17890C2244CC26490E23A8E
:100F800019DF13EFFC49629445591226619495B21A
:100F900028D14900E011EFFC49790E0E793428611F
:100FA00092494B4E01E111EFFC69698E0E793428AC
:100FB0006192494B4E01E212EFFC49629463431E79
:100FC0000D4A9864D2925300E313EFFC295212E9C0
:100FD000D8904783122699B4E41400E413EFFC2957
:100FE0005116E5D8904783122699B4E41400E5130E
:100FF000EFFC21310A7570C8A34109934C5A720A5B
:1010000000E611EFFC7951D2241A94288B9248C93A
:101010004900E70EEFFC7919A230898BD1901601B7
:10102000E811EFFC49790E0E51980C4B1C46434ECB
:1010300002E911EFFC69698E0E51980C4B1C464376
:101040004E02EA12EFFC49629463431426C31287EE
:10105000D1909300EB13EFFC295116E5D81085C908
:10106000B0C46134E42400EC0CEFFC49798ECA1D55
:10107000079D02ED0CEFFC69690ECB1D079D02EE8A
:101080000DEFFC4962948372C741A700EF0EEFFC9D
:10109000295116E5A0DC71D02900F014EFFC91284D
:1010A00014933C1BA23009933009A3212701F113AB
:1010B000EFFC295212E950326949988449988439E1
:1010C00005F212EFFC49790E0E519884499884D1AB
:1010D000909300F312EFFC69698E0E519884499841
:1010E00084D1909300F413EFFC4962946343142677
:1010F0006112266134E42400F513EFFC295212E951
:10110000D8108549988449180D3909F613EFFC2940
:101110005116E5D8108549988449180D3909F70DFD
:10112000EFFCD9E21C1C7430CED900F812EFFCB9E8
:101130004643942951D29468D110E53000F912EF5A
:10114000FC49798E85499884499864D2925300FA73
:1011500011EFFC69690E56C2244CC22493969C027E
:10116000FB13EFFC4962944361122661122699B485
:10117000E41400FC13EFFC295116E55098844998BB
:101180008449262D3905FD13EFFC69690E56C224EA
:101190004C32698993301A2200FE11EFFCE9716527
:1011A000D2923009132D49A63806FF15EFFC2951BC
:1011B00016E5509884499864D2122761344400009F
:1011C000000004FFFF000000AA3311241FBECFEF70
:1011D000D1E2DEBFCDBF00E00CBF28E0AAE2B5E05F
:1011E00001C01D92A33EB207E1F715E0A0E0B2E016
:1011F000E8EFFCE700E00BBF02C007900D92AA32B7
:10120000B107D9F718E0C5EED8E000E006C0219795
:101210000109802FFE010E94223DC43ED10780E0DB
:101220000807A9F70E949A370C947A3E0C940000A4
:10123000662329F06A3019F0862F90E008958FEF29
:101240009FEF08950F93CF93DF93DC01ED91FC9115
:101250005089362F3770E0E8F0E002C0F595E79549
:101260003A95E2F73E2FA52FB0E0FC01C0ADD1AD1D
:10127000669566956695E62FF0E0549FE00DF11DAA
:101280001124EC0FFD1FEC01C758DF4F011116C0F0
:101290008881823018F49081932B908388818130EB
:1012A00019F0908193279083369511F4319630E8A8
:1012B000215071F7DF91CF910F910895888182308D
:1012C00018F49081932B90838881813019F090815C
:1012D00093279083EA0FFB1F215081F7EBCF80E02B
:1012E000089580E008958A589F4FFC0180810895F9
:1012F00090E080E0089590E080E0089530E020E004
:10130000DC0114964C911497042E000C550B2417F5
:1013100035076CF4A901440F551F1296ED91FC910D
:10132000E40FF51F118210822F5F3F4FE9CF089520
:101330008150823108F05AC0E82FF0E08827EC5540
:10134000F64F8F4F0C94223DC409C809B609BC0959
:10135000C009F609CB09D109D509DB09DF09E30981
:10136000E909ED09F609F109F709FB098091800007
:101370008F77809380000895809180008F7DF9CFD2
:1013800080918000877FF5CF84B58F7784BD0895E5
:1013900084B58F7DFBCF8091B0008F778093B000B4
:1013A00008958091B0008F7DF9CF809190008F7764
:1013B000809390000895809190008F7DF9CF809167
:1013C0009000877FF5CF8091A0008F778093A00059
:1013D00008958091A0008F7DF9CF8091A000877F34
:1013E000F5CF809120018F7780932001089580911F
:1013F00020018F7DF9CF80912001877FF5CFCF939A
:10140000DF93282F30E0F901E058FB4F8491F90178
:10141000E65CFB4FD491F901EC50FC4FC491CC2316
:10142000A1F081110E949809EC2FF0E0EE0FFF1F50
:10143000E652FC4FA591B491EC91ED2381E090E050
:1014400009F480E0DF91CF91089580E090E0FACF39
:101450001F93CF93DF93282F30E0F901E058FB4F23
:101460008491F901E65CFB4FD491F901EC50FC4FFB
:10147000C491CC23A9F0162F81110E949809EC2F5A
:10148000F0E0EE0FFF1FE054FC4FA591B4918FB731
:10149000F894EC91111108C0D095DE23DC938FBF36
:1014A000DF91CF911F910895DE2BF8CFCF93DF937B
:1014B00090E0FC01E65CFB4F24918C509C4FFC01BA
:1014C00084918823C9F090E0880F991FFC01EA55A8
:1014D000FC4FA591B491FC01E054FC4FC591D4910F
:1014E00061110DC09FB7F8948C91209582238C9345
:1014F0008881282328839FBFDF91CF910895623090
:1015000051F49FB7F8943C91822F809583238C935C
:10151000E8812E2BEFCF8FB7F894EC912E2B2C93E4
:101520008FBFEACF3FB7F8948091F1059091F20513
:10153000A091F305B091F40526B5A89B05C02F3FF7
:1015400019F00196A11DB11D3FBFBA2FA92F982FE9
:101550008827BC01CD01620F711D811D911D42E0E4
:10156000660F771F881F991F4A95D1F708952FB7E7
:10157000F8946091ED057091EE058091EF059091E2
:10158000F0052FBF08950F931F93CF93DF93EC01C6
:101590000E94B70A688779878A879B87E881F981E3
:1015A0000484F585E02DCE01199597FF15C00E94A2
:1015B000B70A088519852A853B85601B710B820B4C
:1015C000930B0C811D812E813F816017710782076B
:1015D000930720F38FEF9FEFDF91CF911F910F9132
:1015E0000895DC01ED91FC910190F081E02D1994BA
:1015F000AF92BF92CF92DF92EF92FF920F931F9321
:10160000CF93DF936C017B018B01040F151FEB015E
:101610005E01AE18BF08C017D10759F06991D60115
:10162000ED91FC910190F081E02DC6011995892B77
:1016300079F7C501DF91CF911F910F91FF90EF9046
:10164000DF90CF90BF90AF900895FC01538D448DF3
:10165000252F30E0842F90E0821B930B541710F05D
:10166000CF96089501970895FC01918D828D98176A
:1016700061F0A28DAE0FBF2FB11D5D968C91928D42
:101680009F5F9F73928F90E008958FEF9FEF089573
:10169000FC01918D828D981731F0828DE80FF11D3C
:1016A000858D90E008958FEF9FEF0895FC01918D57
:1016B000228D892F90E0805C9F4F821B91098F7350
:1016C000992708958EEE96E00E94560B21E0892B13
:1016D00009F420E0822F0895FC01A48DA80FB92FF2
:1016E000B11DA35ABF4F2C91848D90E001968F734A
:1016F0009927848FA689B7892C93A089B1898C9169
:10170000837080648C93938D848D981306C00288B7
:10171000F389E02D80818F7D80830895EF92FF9281
:101720000F931F93CF93DF93EC0181E0888F9B8D04
:101730008C8D98131AC0E889F989808185FF15C0BE
:101740009FB7F894EE89FF896083E889F9898081E1
:101750008370806480839FBF81E090E0DF91CF91B0
:101760001F910F91FF90EF900895F62E0B8D10E0D2
:101770000F5F1F4F0F731127E02E8C8D8E110CC041
:101780000FB607FCFACFE889F989808185FFF5CF8C
:10179000CE010E946C0BF1CFEB8DEC0FFD2FF11DF4
:1017A000E35AFF4FF0829FB7F8940B8FEA89FB89C9
:1017B00080818062CFCFCF93DF93EC01888D882327
:1017C000B9F0AA89BB89E889F9898C9185FD03C0A4
:1017D000808186FD0DC00FB607FCF7CF8C9185FF89
:1017E000F2CF808185FFEDCFCE010E946C0BE9CF57
:1017F000DF91CF91089580E090E0892B29F00E943D
:10180000620B81110E94000080E090E0892B49F07A
:1018100080E090E0892B29F00E94000081110E9455
:10182000000080E090E0892B49F080E090E0892B77
:1018300029F00E94000081110E94000080E090E0E9
:10184000892B49F080E090E0892B29F00E9400006C
:1018500081110C94000008950895DC01ED91FC9134
:101860000088F189E02D1994DC01ED91FC91019043
:10187000F081E02D1994FF920F931F93CF93DF9384
:101880008C01EB01F42E642FDC0111968D919C915B
:101890000E942D0CDC011296ED91FC911397369667
:1018A000259134912C233D23232B71F0ED91FC9154
:1018B0000284F385E02D2F2DA801BE01DF91CF9189
:1018C0001F910F91FF90199490E080E0DF91CF91EC
:1018D0001F910F91FF9008950F931F93CF93DF9364
:1018E0008C01D0E0C0E0D8018D919C911197C81770
:1018F000D9079CF4CE01880F991F1296ED91FC91A7
:10190000E80FF91F85919491DC01ED91FC9106841B
:10191000F785E02D19952196E6CFDF91CF911F91A4
:101920000F9108950F93DC01ED91FC910488F589E6
:10193000E02D01E021E030E041E061E070E0199548
:1019400080E00F910895CF93DF93CDB7DEB7DF919D
:10195000CF91089580E00895EF92FF920F931F9327
:10196000CF93DF93EC01142F7901E881F98104888A
:10197000F589E02D64E070E01995E881F981019026
:10198000F081E02D60E2112331F06091F805EF283D
:1019900011F06091F705CE01DF91CF911F910F916A
:1019A000FF90EF9019940895BF92CF92DF92EF923B
:1019B000FF920F931F93CF93DF937C018B01B42E83
:1019C000FB01C42E440FDD08EF01219664916111E3
:1019D0000EC0C01BD10B8C2F8150DF91CF911F9176
:1019E0000F91FF90EF90DF90CF90BF900895BB20B4
:1019F00029F0E01BF10BEC15FD055CF7D701ED912B
:101A0000FC910190F081E02DC7011995FE01DCCF1A
:101A1000CF93DF93CDB7DEB7DF91CF91089580E00C
:101A200008950895DC011296ED91FC91329685910E
:101A300094918170089581E090E008950F931F9331
:101A4000CF93DF938B01DC011296CD91DC9113973C
:101A5000ED91FC910190F081E02D1995FE013C96ED
:101A600025913491682F880F770BC8010E94EC3CB8
:101A7000FC01EE0FFF1FE20FF31F85919491DF91A0
:101A8000CF911F910F910895DC01CB01BA011296FD
:101A9000ED91FC91139725913491AD01F9011994C1
:101AA000FC0186810895DC0117962C9117971496F6
:101AB000ED91FC91B5E02B02E00DF11D1124818127
:101AC00092810895CF93DF93EC010E94530D2F81F3
:101AD000AC81BD8135E02302A00DB11D1124EC01C4
:101AE000E881F9810088F189E02D6C91DF91CF9137
:101AF0001994DC011296ED91FC91329685919491A6
:101B0000969587959695879581700895DC01129634
:101B1000ED91FC913896859194916823792381E029
:101B2000672B09F480E00895DC011296ED91FC9199
:101B30003296859194916823792381E0672B09F48B
:101B400080E00895DC011A96ED91FC9130E020E0F0
:101B500019941F93CF93DF93EC01A881B981683169
:101B600009F49BC038F4643109F489C0673149F045
:101B700080E00EC0693109F4D4C06032C9F76AE46C
:101B800088C01C968C9180FD3FC0411105C081E04A
:101B9000DF91CF911F910895F90181919F014150EB
:101BA000DFB7F894A091D205B091D305C091D105CB
:101BB000E091CF05F091D0057091CE056091CD05F3
:101BC00081110EC08C918C238C9388E09081972B8F
:101BD00090839081962390838150C1F7DFBFD5CF4A
:101BE0001091CC0598E05C9187FF0CC0512B5C9361
:101BF0005081572B5083880F50815623508391502A
:101C000091F7ECCF5C23F3CF442309F4C0CFF90163
:101C100081919F014150DFB7F894A091D205B09116
:101C2000D305C091D105E091CF05F091D005609129
:101C3000CE057091CD0581110EC08C918C238C93B3
:101C400088E09081972390839081962B9083815098
:101C5000C1F7DFBFD9CF1091CC0598E05C9187FF29
:101C60000CC0512B5C93508157235083880F5081B7
:101C7000562B5083915091F7ECCF5C23F3CF119604
:101C80004C9169E40E94A20DE881F981448541707C
:101C900060E4CE010E94A20D7ACF4C9169E40E94CB
:101CA000A20DA881B981EA85FB8530E020E012967B
:101CB0004C916CE2CE0119958E8D90E0FC01EC50B8
:101CC000FC4FE491F0E0EE0FFF1FE054FC4F259134
:101CD00034913093D0052093CF05FC01E65CFB4F97
:101CE000E491E093CE05E095E093CD058F8D90E0F3
:101CF000FC01EC50FC4FE491F0E0EE0FFF1FE054CC
:101D0000FC4F259134913093D3052093D205FC01EB
:101D1000E65CFB4FE491E093CC05E095E093D105C0
:101D200036CFEA85FB8530E020E013964C916CE2DB
:101D30001995E881F981418169E4ABCFDC01169600
:101D4000ED91FC9130E020E040E069E11994DC0184
:101D50001696ED91FC9130E020E040E068E11994A6
:101D60009A01DC011696ED91FC91462F67E11994DA
:101D7000EF92FF920F931F93CF93DF931F92CDB7F4
:101D8000DEB77C018B01D8016C91673129F150F4E9
:101D90006531A0F40F90DF91CF911F910F91FF90CB
:101DA000EF9008956A3118F16E3FA1F7F801418173
:101DB000498369E2C7010E94A20D0BC0F80141816D
:101DC0004983D7011696ED91FC9130E020E0C701E0
:101DD00019950E5F1F4FD7CFF80181818983AE011E
:101DE0004F5F5F4F61E0C7010E94B00EF2CF0F5FFF
:101DF0001F4FD7011696ED91FC9130E020E040E0B6
:101E0000C7011995C0CF462FDC011696ED91FC91C4
:101E100030E020E065E11994AF92BF92CF92DF925B
:101E2000EF92FF920F931F93CF93DF93EC016930F2
:101E300089F48AE392E0998388831C8A81E0DF91A8
:101E4000CF911F910F91FF90EF90DF90CF90BF90B7
:101E5000AF90089579016B3009F440C06F3009F4F8
:101E600044C080E06A3059F7EA85FB8530E020E025
:101E700040E068E2CE011995EE81FF8130E020E07C
:101E800040E064E1CE01199541E06BE4CE010E948F
:101E9000A20DE881F981448169E2CE010E94A20D80
:101EA00040E06BE4CE010E94A20DE881F9814481FB
:101EB00069E2CE010E94A20D41E06BE4CE010E94D6
:101EC000A20DE881F981458169E2CE010E94A20D4F
:101ED00067E272E0CE010E94B80EB0CF60E272E01D
:101EE0004423C1F365E172E0F5CFF9010481000FED
:101EF000000F000F13811695003210F00052185F8A
:101F0000CE010E94A70EF701A080B1806EE3CE0142
:101F10000E94030F6EE3CE010E94030FD12C1068C4
:101F2000602F6D0D6068CE010E94030F612FCE01FE
:101F30000E94030FF701C280A5016C2DCE010E9403
:101F4000B00EAC0CB11CD394F8E0DF12E9CFCE0197
:101F50000E949E0E73CF9A01DC011896ED91FC91C0
:101F6000462F67E11994CF93DF931F92CDB7DEB769
:101F70006983AE014F5F5F4F61E00E94AB0F0F902E
:101F8000DF91CF910895CF92DF92EF92FF920F935E
:101F90001F93CF93DF93EC01142F79016631C1F1C8
:101FA00030F4643149F06531A9F080E040C0673118
:101FB00009F446C06A31C8F7E885F9859701412FD1
:101FC000CE01DF91CF911F910F91FF90EF90DF90A5
:101FD000CF90199468EF0E94B30F41E06CE2CE01FC
:101FE0000E94A20D612F607FCE010E94B30F41E0DD
:101FF0006CE2CE010E94A20D612F6295607FCE013E
:102000000E94B30F41E06CE2CE010E94A20D0EC00F
:1020100068EF0E94B30F612F607FCE010E94B30F63
:10202000612F6295607FCE010E94B30F81E0DF9146
:10203000CF911F910F91FF90EF90DF90CF90089577
:102040006AEF0E94B30F41E06CE2CE010E94A20D44
:10205000DE2CCF2C012F083008F5012F06950695B0
:102060000695D12E88EF089FD00C1124E8E00E9F32
:10207000800111240E0D1F1DDD2021F2F801F190C9
:102080008F016F2D607FCE010E94B30F6F2D62957F
:10209000607FCE010E94B30FDA94EECFA4EDB5E0DD
:1020A000ED2DFC2D9F01285F3F4F8191982F907F50
:1020B0009C938295807F11968C9311971296E217CC
:1020C000F30799F7DE2ECF2E085044ED55E060E17E
:1020D000CE010E94AB0FBFCF0F93DC01DE963C9187
:1020E000DE97431BD496ED91FC9119950F910895BD
:1020F000CF93DF93FC01A081B18182AD982F990F1E
:10210000990F990F95AF50969C915097903208F087
:102110009FE1990F990F990F94AF23AD922F990FCB
:10212000990F990F96AF51963C915197682F620F76
:102130007727771F3617170614F4832F821B97AF64
:10214000EF01C05CDF4F880F880F880F890F8883ED
:10215000219680EF888354968D919C915597813F6D
:10216000910508F48883EE5BFF4F56968C9180832F
:10217000DF91CF9108950F93FC01EB5BFF4F30810E
:1021800031965081451730F4301738F0041728F095
:1021900080E013C03017D0F3FBCFFC01ED5BFF4FA5
:1021A00030818C5B9F4FFC018081681740F481E097
:1021B000321718F081E0261758F70F91089532175B
:1021C000C8F3E6CF2F923F924F925F926F927F9229
:1021D0008F929F92AF92BF92CF92DF92EF92FF9237
:1021E0000F931F93CF93DF93EC014C0183E4880E90
:1021F000911CF4011082329720805E01F4E4AF0E4E
:10220000B11CF50120823FAC6E01F5E4CF0ED11C6C
:10221000F6013082359740807E01F6E4EF0EF11C26
:10222000F701408234961081329760803196708039
:1022300032975080012F262D472D652DCE010E940B
:10224000BB10CD58DF4F811114C01882DF91CF91A0
:102250001F910F91FF90EF90DF90CF90BF90AF90C4
:102260009F908F907F906F905F904F903F902F90B6
:10227000089581E08883552011F0F40150826214A2
:1022800010F4F5016082371410F4F6017082141511
:10229000E8F6F7011083DACFFC01E758FF4F63300F
:1022A00010F46083089581E0808308950F93DC012A
:1022B000802FFD01ED58FF4F90819923E9F12223F2
:1022C000D9F1223020F0023079F56F5F621B082FC0
:1022D0000170FD0180FD32C0EB5BFF4F808148172C
:1022E00058F131968081481738F5329790813197AF
:1022F0008081260F2617F0F46917D8F42FEF290FE5
:102300008217D0F4681708F4682F291708F4922F61
:10231000961BD696ED91FC91D7970480F581E02D20
:10232000292FCD01199508C0033089F64F5F421B54
:10233000CECF682F691720F30F910895ED5BFF4F03
:1023400080816817C8F3319680816817A8F73296A4
:10235000908131978081240F241778F4491760F415
:102360002FEF290F821740F7481708F4482F291735
:1023700008F4922F941BCDCF482F4917E8F6F2CFDF
:10238000213039F020F0223031F0840F0895860F8B
:102390000895841B0895861B0895213039F020F09C
:1023A000223031F0861B0895840F0895860F08951A
:1023B000841B08955F926F927F928F929F92AF924B
:1023C000BF92CF92DF92EF92FF920F931F93CF9322
:1023D000DF935C01162F642EEC01C15BDF4FDC80C4
:1023E000ED804C0189E7880E911CFE80FD18C12EFE
:1023F000F11608F4CF2C5B800C85202F4E2D6D2D0F
:102400008A810E94C011782E202F4E2D6D2D852D92
:102410000E94CD11482F662071F08A85F4018083D7
:102420002C2D672DC5010E9456111F1548F01F194C
:10243000E394D12CDACF89858111F7CF8B85EECF4C
:102440001D0D1C83ED82DF91CF911F910F91FF90A5
:10245000EF90DF90CF90BF90AF909F908F907F9044
:102460006F905F900895DC0118964C911897ED914C
:10247000FC911197249130E0042E02C035952795E8
:102480000A94E2F7842F860F883068F0319611960F
:10249000FC93EE93E49198E0941B01C0EE0F9A95A3
:1024A000EAF72E2B885018968C938FEF9FEF01C080
:1024B000880F6A95EAF7809582230895FC01E60F5C
:1024C000F11D849190E0982F88273196E4918E0F2A
:1024D000911D0895CF93DF93EC016BAFEEA9FFA997
:1024E0000190F081E02D1995EEA9FFA90280F381FA
:1024F000E02DCE01DF91CF911994AF92BF92CF9290
:10250000DF92EF92FF920F931F93CF93DF9300D050
:102510001F921F92CDB7DEB78C01DC01DA96AC902A
:10252000DA97DB96EC90DB97ED91FC91B188FE2C6D
:10253000D12CC12CD801ED91FC9111978089D896AE
:102540002D913C911C82FD828B83B8E08B9FC00152
:1025500011248C9DA0018D9D500D9C9D500D11242A
:10256000240F351F3A832983D8011496ED91FC91ED
:102570009E012F5F3F4F41E06FE0C8011995F39432
:102580008F2D8E198A1528F4BFEFCB1ADB0AFB14A6
:1025900088F20F900F900F900F900F90DF91CF91D6
:1025A0001F910F91FF90EF90DF90CF90BF90AF9071
:1025B0000895CF92DF92EF92FF920F931F93CF93E4
:1025C000DF937C01162FC42FC22ED02FD62ED20E11
:1025D000042F0D0F2D2D0E94BB10882319F100E050
:1025E0002C2D4C2F612FC7010E945611D230D0F0F4
:1025F000D250CF5FDD2379F001E02D2F4C2F612FDA
:10260000C7010E9456116FEF6D0D2D2F4C2FC70182
:102610000E945611CD0F00E02C2D4C2F612FC701C9
:102620000E945611DF91CF911F910F91FF90EF9073
:10263000DF90CF900895DF92EF92FF920F931F9358
:10264000CF93DF937C01162FC42FD22ED42FD00F1F
:10265000262F2D0D0D2F0E94BB10811110C0DF9170
:10266000CF911F910F91FF90EF90DF90089500E0C0
:102670002D2D4C2F612FC7010E945611CF5FDC1307
:10268000F6CFEDCF8F929F92AF92BF92CF92DF9213
:10269000EF92FF92CF93DF937C01C62F6C32B0F4A0
:1026A0006A32E8F5683249F1693209F444C080E0E1
:1026B000C034B0F1CF73F701EC0FF11D868D8F3F61
:1026C00071F1C03108F06DC0642F14C06D3209F48F
:1026D00056C068F384EB860F823048F7CF73CE0D77
:1026E000DF2DD11D8E8D411158C061E00E94560A28
:1026F00060E08E8D0E94280A12C02EE1E20EF11CCD
:10270000D0E0F70181917F018F3F31F061E0D0315E
:1027100008F062E00E94560ADF5FD63191F781E04F
:10272000DF91CF91FF90EF90DF90CF90BF90AF906F
:102730009F908F900895C42ED12CF12CE12C0E94F3
:10274000920A4B015C01C114D104E104F10439F394
:102750000E94920A681979098A099B09683E7340A8
:102760008105910580F3F1E0CF1AD108E108F10865
:1027700028EE820E23E0921EA11CB11CE4CF85E05E
:1027800090E0433010F082E090E0880F991F880FAE
:10279000991F05970197F1F7C2CF62E00E94560A90
:1027A000BECF0E94FF0921E0892B09F420E0F70148
:1027B000218FB5CF20918205260F3327331F213279
:1027C0003105ECF42091A605FC0190E080E0243076
:1027D00069F082E00895A09182052191AC014E59E3
:1027E0005A4FA40FB52FB11D2C930196861798F35D
:1027F00080918205680F6093820580E0089581E0F2
:10280000089508958FEF9FEF08958FEF9FEF08953C
:1028100080915B0590E09195819591090895CF9302
:10282000DF93CB01EA01642F0E94DA13CE01DF911E
:10283000CF910895CF93DF931F92CDB7DEB7698311
:1028400061E0CE0101960E94DA1381E090E00F90E2
:10285000DF91CF910895CF93DF93DC0116968C9191
:102860001697811111C01296ED91FC9113973C9629
:10287000C591D49181E018964D915C912881398160
:102880004217530709F480E0DF91CF910895CF9369
:10289000DF93DC0116961C9216971296ED91FC912F
:1028A00013973C96C591D4918881998119969C93F0
:1028B0008E931897DF91CF910895DC011D96ED91CD
:1028C000FC9180819181DC01ED91FC910684F7857A
:1028D000E02D1994CF93DF93EC01ED85FE85808187
:1028E0009181DC01ED91FC910084F185E02D199539
:1028F000892B69F0ED85FE8580819181DC01ED9168
:10290000FC910484F585E02DDF91CF9119948FEF30
:102910009FEFDF91CF910895CF93DF93EC01ED8589
:10292000FE8580819181DC01ED91FC910084F1852F
:10293000E02D1995892BD9F0ED85FE858081918157
:10294000DC01ED91FC910284F385E02D1995209135
:10295000090230910A022817390761F02FEF3FEF83
:1029600030930A0220930902DF91CF9108958FEFEF
:102970009FEFEDCF8FEF9FEFF7CFDC011D96ED912D
:10298000FC9180819181DC01ED91FC910084F185C5
:10299000E02D1994DC011D96ED91FC9180819181CF
:1029A000DC01ED91FC910680F781E02D199490E017
:1029B00080E00895109208021092070290E080E0F3
:1029C000089581E090E0909308028093070290E0E0
:1029D00080E00895CF92DF92EF92FF920F931F93C2
:1029E000CF93DF93C091EA05D091EB050E94B70A1F
:1029F0006B017C018E85882359F089859A85029721
:102A00009A87898789859A8597FF02C01A861986D1
:102A100088810E94FF092B8113E02817190609F00D
:102A200010E089810E94FF092B812817190611F4F3
:102A300081E018278E819F81811B80FF8BC0212F11
:102A4000110F330B3F832E832C813D818270082E22
:102A5000000C990B0197820F931F9D838C8381E05B
:102A60009E85992361F0882351F089859A85883E57
:102A70009B4028F489859A8549969A8789878A8117
:102A8000882309F45EC04091570550915805609124
:102A9000590570915A0597018601041B150B260BE9
:102AA000370BB901A8014A3051056105710508F4D9
:102AB00048C0C0925705D0925805E0925905F0924F
:102AC0005A050E94FF092B812817190681F480916D
:102AD000550590915605019690935605809355059E
:102AE0008937910520F083E090E09C878B878A816D
:102AF0000E94FF092B8131E0232728171906A1F432
:102B00008091550590915605892B51F08B859C85B8
:102B1000039711F584E090E09C878B871092540511
:102B2000109256051092550580915405882349F05E
:102B3000825080935405811104C085E090E09C8709
:102B40008B87DF91CF911F910F91FF90EF90DF90D6
:102B5000CF90089580E084CF80915405823028F092
:102B60008C33F0F686E090E0D7CF8D85811104C0DC
:102B700081E080935405D4CF8CE3FBCFDC011D961C
:102B80008D919C91DC01ED91FC910680F781E02D07
:102B90001994DC011D968D919C91DC01ED91FC91C5
:102BA0000284F385E02D1994DC011D968D919C9192
:102BB000DC01ED91FC910484F585E02D1994DC0194
:102BC0001D968D919C91DC01ED91FC910084F18525
:102BD000E02D1994DC011D968D919C91DC01ED9105
:102BE000FC910190F081E02D1994DC011D968D91EE
:102BF0009C91DC01ED91FC910190F081E02D199404
:102C0000EF92FF920F931F93CF93DF938C017B0181
:102C1000D0E0C0E0F701EC0FFD1F6491662361F086
:102C2000D801ED91FC910190F081E02DC80119953A
:102C3000892B11F02196EECF8C2FDF91CF911F9130
:102C40000F91FF90EF9008950F93CF93DF93EC01D6
:102C5000E881F9810288F389E02D20E040E060E01E
:102C60001995E881F9810488F589E02D00E021E0DB
:102C700030E040E061E070E0CE0119958E819F81E7
:102C8000DF91CF910F910C947E090F93CF93DF9337
:102C9000EC01AB89BC89ED89FE8950E0C5E0C69F97
:102CA000C001C79F900D11242130310519F4400F48
:102CB000511D0296480F591FE40FF51F6491CD0175
:102CC0000496DF91CF910F910C944C11DC01539637
:102CD0008D919C91DC01ED91FC910190F081E02DB2
:102CE00019940895DC011296ED91FC913A96849125
:102CF0000895DC011296ED91FC913B96859194919B
:102D0000E62FEE0FFF0BE80FF91F859194910895C0
:102D1000DC011296ED91FC913E968491089590E02D
:102D200080E00895FC011682089580E00895CF9216
:102D3000DF92EF92FF920F931F93CF93DF936C017B
:102D4000EB017B01E40EF51E10E000E0CE15DF057F
:102D500061F06991D601ED91FC910190F081E02D37
:102D6000C6011995080F191FF1CFC801DF91CF9146
:102D70001F910F91FF90EF90DF90CF9008952F92C9
:102D80003F924F925F926F927F928F929F92AF92FB
:102D9000BF92CF92DF92EF92FF920F931F93CF9348
:102DA000DF9300D000D0CDB7DEB77C016C0124E00A
:102DB000C20ED11CFC01E158FF4F0190F081E02DC3
:102DC000C60119958C018E3F9F4F08F05BC03701FB
:102DD00082E8680E711CF301F081FB83470121E852
:102DE000820E911CF401F081FD839701215A3F4F1F
:102DF0003A832983F9018081813009F46AC008F49B
:102E00005CC0823009F471C0833009F47AC0F701E4
:102E1000EB5AFF4F2D81208331963B8130833797CA
:102E20008081918147969C838B830F3F110511F020
:102E300008F015C1B4960136110530F401341105BE
:102E400058F0F701EF58FF4F808191812B813C8131
:102E5000280F391F3C832B838B819C810196FC01B9
:102E6000249121115AC0412CE981FA81808181305D
:102E700009F492C108F48BC1823009F48FC1833008
:102E800009F491C181E090E026960FB6F894DEBF78
:102E90000FBECDBFDF91CF911F910F91FF90EF90AB
:102EA000DF90CF90BF90AF909F908F907F906F906A
:102EB0005F904F903F902F900895F701EF5AFF4F8A
:102EC0000190F081E02DC6011995FB81F80FFB837D
:102ED0009ECFF701EF5AFF4F0190F081E02DC60120
:102EE00019952D81281B2D8392CFF701EF5AFF4FA3
:102EF0000190F081E02DC60119953B81381B3B8381
:102F000086CFF701EF5AFF4F0190F081E02DC60107
:102F100019959D81980F9D837ACFEB81FC81249137
:102F20002017110609F094C0CF010296009709F40A
:102F30009ACFF701ED5AFF4FFE83ED839183808393
:102F40001086719660818D819E810E943312ED8181
:102F5000FE818683F701EB59FF4F60818D819E8151
:102F60000E943312582EED81FE81878397012358EA
:102F70003F4F3C832B83F9019081ED81FE81928745
:102F800081E0911180E0ED81FE818387F701EA59AC
:102F9000FF4FB0806B2D8D819E810E943312382EA1
:102FA000F701E959FF4F2080622D8D819E810E949B
:102FB0003312182FF701E859FF4F0081602F8D81E0
:102FC0009E810E943312015021E030E0A90101C02E
:102FD000440F0A95EAF7482E441AED81FE810681D6
:102FE00010160CF041CFBA94C90101C0880FBA94F1
:102FF000EAF7381AB484150D2A9401C0220F2A94D6
:10300000EAF7A22EA11A2B2D4A2D632D82810E9450
:10301000C011182FED81FE8182832B2D4A2D632D47
:1030200083810E94CD11ED81FE818383F1E0BF1683
:1030300009F493C0BF1608F450C022E0B21609F498
:1030400092C033E0B31609F499C0082F212F49C06C
:10305000FC0184912B813C81280F311DFBCEF701AF
:10306000EB58FF4F80819181EB81FC81E80FF91FC4
:10307000FC83EB835F0160E0C5010E945E122B813F
:103080003C81280F391F3C832B8362E0C5010E94DD
:103090005E1234E0A30EB11C8017910760F3EB8140
:1030A000FC81849190E0982F88273196E4918E2BB3
:1030B000009709F4D8CE0817190721F48B819C8159
:1030C000039634CFEB81FC813296E4912B813C81D5
:1030D0002E0F311D3C832B83E2CF202F210F082F91
:1030E000050D482F612FC6010E94BB10882309F4EB
:1030F000BBCEED81FE81148215825701F2E6AF0E40
:10310000B11C23E6E20EF11CF50160818D819E81E8
:103110000E943312082FF70160818D819E810E94E9
:103120003312182F40E0602FC6010E94DA1141E0EF
:10313000612FC6010E94DA1161E08D819E810E949B
:1031400033128111EFCFED81FE8185818515E4F287
:103150008285EB81FC81808387CEB51821E0210F29
:10316000080F1B0DBECF91E0392F301B21E0210F3E
:10317000951901E0080F890F130FB3CF212F250DEB
:10318000982F901B01E0080F81E0890FAACFF4016E
:103190008081480E408276CEF301FACFF40180811F
:1031A000841980836FCEF301FACF90E080E0089518
:1031B000CF92DF92EF92FF920F931F93CF93DF9303
:1031C000EC018B01888199810E946C0C1D870C8712
:1031D000FF24F394F986CE010E94530DDC0116966C
:1031E000FC920115110549F1E880F980D0E0C0E0BA
:1031F000F70180819181C817D907FCF40280F3811F
:10320000E02DCE01880F991FE80FF91FC590D490CB
:1032100070E060E0C601F8011995892B71F4D601C0
:1032200018968C9180FF02C02196E2CF61E070E099
:10323000C601F80119950197B9F7DF91CF911F9158
:103240000F91FF90EF90DF90CF900895CF92DF9293
:10325000EF92FF920F931F93CF93DF93EC01AB019B
:10326000DB011A968D919C91892BA1F40B80DC8156
:10327000C02D0E94B70A6C8B7D8B8E8B9F8B11E0CB
:10328000812FDF91CF911F910F91FF90EF90DF90F1
:10329000CF90089589819A81DC01ED91FC9106809F
:1032A000F781E02D00E021E0BE011995182F811172
:1032B000DDCFEB81FC818189882311F3808D918D95
:1032C000892BF1F20E94B70A0B80DC81C02DCC88DB
:1032D000DD88EE88FF886C197D098E099F0928EE2C
:1032E00033E040E050E00E94003D888D998DB0E0D1
:1032F000A0E082179307A407B50710F66A857B85BF
:10330000CE010E94D818BCCFCF93DF93EC018E85FD
:103310009F8521E0DC0116962C930E94120D9F815F
:10332000882309F440C0992369F191509F832C812F
:103330003D81F90145E09402E00DF11D1124CF011A
:10334000408164E070E00E943B0CCE010E94530D6E
:1033500021E0FC012683CE010E94530D9F878E87BA
:10336000DC011296ED91FC9132968591949184FF47
:1033700003C0CE010E94841961E070E08FEFDF91FD
:10338000CF9108958989882301F38C819D81DC0187
:103390004C9164E070E00E943B0C6A857B85CE0115
:1033A0000E94D818D2CF2C813D81F90145E09402CA
:1033B000E00DF11D1124CF01408164E070E00E9416
:1033C0003B0C8A819B81DC01ED91FC910684F785A1
:1033D000E02D60E01995B9CF0F931F93CF93DF9342
:1033E000EC018B012330310509F463C0F0F4213086
:1033F000310511F12230310509F18E81882309F45C
:103400006AC0D8011396ED91FC91828960E071E069
:10341000811102C062E070E0F8014081C801DF91D3
:10342000CF911F910F910C943B0C2430310509F47E
:103430004AC02730310509F781E08F838F818823C7
:1034400021F11F8281E08E83E881F9810288F3896E
:10345000E02DCE011995D8011396ED91FC9182894A
:1034600060E071E0811102C062E070E0F80140812B
:10347000C8010E943B0CD80113968D919C91DF915D
:10348000CF911F910F910C948419D8011396ED914F
:10349000FC9180898111D5CFE881F9810088F1897B
:1034A000E02DCE011995882361F281E08F838E8310
:1034B000A4CFE881F9810488F589E02D61E070E00E
:1034C000CE0119959ACFE881F9810488F589E02D1C
:1034D0006FEF7FEFF5CFDF91CF911F910F9108959F
:1034E000DF92EF92FF920F931F93CF93DF93EC0144
:1034F0000E94620DDC0114968D919C91892B09F438
:10350000B1C0CE010E94620D8C01DC01ED91FC91F5
:10351000E084F184CE010E94620D2F814C815D8197
:10352000B5E02B02400D511D11249C0161E070E0BB
:10353000C801F7011995892B09F094C0CE010E94AA
:10354000620D7C01DC011296ED91FC9132960591A1
:103550001491027011270E94120DD82E2F818C8198
:103560009D81B5E02B02800D911D1124FC0140814D
:1035700062E070E00E943B0C009709F063C0DD2020
:1035800009F473C0012B61F402E010E0B8018FEF81
:10359000DF91CF911F910F91FF90EF90DF900895F1
:1035A0009F818E819817A4F5CE010E94530D11E0E2
:1035B000DC0116961C93CE010E94620D2F812F5FB5
:1035C0002F83EC81FD81B5E02B02E00DF11D11246C
:1035D000928381831082CE010E94530DFC011683D9
:1035E000D701ED91FC9100851185CE010E94620DFD
:1035F0002F814C815D81B5E02B02400D511D1124BE
:103600009C0162E070E0C701F801199502E006C074
:103610006BE87DE1CE010E94D81800E010E0FF8643
:10362000EE8681E0D70116968C93D110AFCF8A81B8
:103630009B81DC01ED91FC910684F785E02D61E032
:103640001995A4CF019751F4CE010E94620D0E94FA
:10365000120D811103C0CE010E948419012B09F4BF
:1036600093CFD4CF60E070E092CF012B09F48CCFE0
:10367000FF86EE8681E0F701868302E010E0D7CF77
:103680009F92AF92BF92CF92DF92EF92FF920F93F1
:103690001F93CF93DF938C016A01EA01E62EDC01D0
:1036A0009C904330510509F487C0B0F44130510576
:1036B00009F4D9C04230510509F4DEC0BE018E2D97
:1036C000DF91CF911F910F91FF90EF90DF90CF90FE
:1036D000BF90AF909F9008954430510509F497C072
:1036E000CA010797029750F767FDE8CFF80181817B
:1036F00092810E94340CE8160CF75601FE2CD8017A
:1037000011968D919C91DC011296ED91FC9132966F
:10371000259134912C703327232B09F4B3C021E079
:10372000FC012683F80141815281DA0112968D91C4
:103730009C91FC0136962591349127FF08C0FC012D
:1037400025913491B80180E890E0F9011995492D4F
:1037500060E270E0C8010E943B0CD801FC92B7E027
:10376000CB1AD108E501E2E0CE16D10448F4D80125
:1037700013968D919C910E94701AC62FD72FE82E18
:103780004F2D60E170E0C8010E943B0CF8014181BF
:103790005281DA0112968D919C91FC013696259109
:1037A000349126FF8BCFFC0125913491B80180E440
:1037B00090E0F901199582CFFC01818192810E94EC
:1037C000340C882309F47ACFFF24F394F90CD80140
:1037D00011968D919C910E94340CF8168CF0F80192
:1037E00081819281DC011296ED91FC9138962591B0
:1037F000349120FD58C00E94340CFF24FA94F80E36
:1038000033E0A32EB12C9F107ACFE50157CFFC01F6
:1038100081819281911009C0DC011296ED91FC9199
:1038200032962591349124FD1EC00E94340C8823C9
:1038300009F444CFFF24FA94F90CF7FE11C0F80103
:1038400081819281DC011296ED91FC91389625914F
:10385000349120FF2DC00E94340CFF24FA94F80EFE
:1038600094E0A92ECFCFF801838194810E9484191E
:10387000C62FD72FE82E22CF13968D919C910E94B0
:10388000701AF6CF692D0E942D0CC1E0DC0116964E
:10389000CC936F2DF801818192810E942D0CDC0167
:1038A0001696CC933FCF23E0A22EB12CF12CABCFB8
:1038B00084E0A82EFACFCF92DF92EF920F931F935E
:1038C000CF93DF938C01EB016901E42EDC01ED91D4
:1038D000FC910288F389E02D199588836E2DA6014D
:1038E000CE010E94401B6B01D801ED91FC91048830
:1038F000F589E02D6881C8011995B2E0CB16D10495
:1039000059F48B819C81DF91CF911F910F91EF90A2
:10391000DF90CF900C948419DF91CF911F910F917C
:10392000EF90DF90CF900895CB01642FA9010C9404
:10393000401B62E97DE18DE796E00E94D81890E097
:1039400080E008950E94633EFB0101900020E9F7AA
:103950003197AF01461B570BDC01ED91FC910280C2
:10396000F381E02D199460EB73E00C94A41C1F9379
:10397000CF93DF93EC01142F8F8587FD05C084174B
:1039800019F0CE010E94B31C1F87DF91CF911F91C8
:1039900008952FEFFC012787858596850C94B31C2D
:1039A0000F931F93CF93DF938C01C62F0E94B31CFC
:1039B000D8011696ED91FC91CC0FDD0B0280F381BE
:1039C000E02DEC0FFD1F11821082DF91CF911F912E
:1039D0000F910895CF93DF93EC010E94B31C8E8169
:1039E0009F81DF91CF910C947E096115710511F0D3
:1039F0000C94A41C90E080E008958F929F92AF9267
:103A0000BF92EF92FF920F931F93CF93DF93CDB7A7
:103A1000DEB7A1970FB6F894DEBF0FBECDBF7C0115
:103A2000FA01CB0119A2223008F42AE08E010F5DC1
:103A30001F4F822E912CB12CA12CBF01A501940106
:103A40000E94003DF901CA016A30ECF4605DD801C2
:103A50006E938D01232B242B252B79F7BD01C701F4
:103A60000E94F51CA1960FB6F894DEBF0FBECDBF25
:103A7000DF91CF911F910F91FF90EF90BF90AF908A
:103A80009F908F900895695CE2CFFB01DC0118964E
:103A90004D915C9170E060E02AE0CF010E94FD1C36
:103AA00008950F931F93CF93DF93EC010E94F51CB1
:103AB0008C01CE010E94B31C800F911FDF91CF912A
:103AC0001F910F9108950F931F93CF93DF93EC01F4
:103AD0008B01E881F9810684F785E02D1995013085
:103AE000110589F050F00230110581F090E080E07E
:103AF000DF91CF911F910F91089563EB73E0CE0199
:103B00000E94511DF3CF64EC73E0F9CF61ED73E0D7
:103B1000F6CF0C94F51C60EE73E00E94891D90E0D6
:103B200080E00895CF93DF936130710569F5EC0172
:103B3000E881F9810288F389E02D20E040E060E02F
:103B400019956CE174E0CE010E94891DE881F9812C
:103B50000288F389E02D20E041E060E0CE01199574
:103B600067E274E0CE010E94891DE881F981028834
:103B7000F389E02D20E042E060E0CE01199566E394
:103B800074E0CE010E94891D90E080E0DF91CF912A
:103B900008950F9364E374E0002311F065E474E08A
:103BA0000E94F51C81E00F9108950F9369E474E081
:103BB000002311F067E474E00E94F51C81E00F918E
:103BC0000895CF93DF93C62FDC011396ED91FC91FE
:103BD000828D882381F0062E000C770B8BE494E015
:103BE0000E946F3E892B39F067E070E08FEC8C0FFC
:103BF000DF91CF9108958091E40581111CC081E08F
:103C0000CB31F1F04091F9055091FA05FA0130E01D
:103C100020E00C2E000CDD0B62816C171D0659F59F
:103C2000F901EE0FFF1FE20FF31FE40FF51F608194
:103C300071818FEFDDCF813051F4CB3529F482E0F3
:103C40008093E40560E00EC01092E405FBCF823063
:103C5000C9F61092E40563E0C23421F02CF464E06C
:103C6000C13481F770E0E5CF62E0C334D9F361E09D
:103C7000C434C1F3E7CF2F5F3F4F33962A3031056D
:103C800059F6E0CFEF92FF920F931F93CF93DF93FC
:103C9000EC018B01CA01E881F981E684F784DA013D
:103CA000ED91FC910284F385E02D1995682FC801F0
:103CB0000E94E11D9B01482FB801CE01F701DF9161
:103CC000CF911F910F91FF90EF901994CF92DF92B7
:103CD000FF920F931F93CF93DF93EC016B018A0147
:103CE000DA01ED91FC910084F185E02DCA0119956E
:103CF000892B09F46BC0D801ED91FC910484F58502
:103D0000E02DC8011995F82E8091FC058823E1F07B
:103D1000E091F905F091FA058385F81649F086855A
:103D2000F81631F08085F81619F08581F8120CC06C
:103D3000A801B601CE01DF91CF911F910F91FF90A5
:103D4000DF90CF900C94421EB8E0FB16D9F0EDE066
:103D5000FE1244C0D801ED91FC910284F385E02D60
:103D6000C80119951F8281E08E831986F60183812F
:103D70009481DF91CF911F910F91FF90DF90CF90B1
:103D80000C948419D801ED91FC910284F385E02D07
:103D9000C80119956985062E000C770BCE010E948B
:103DA0001E0DEA81FB813A9625913491FC018081B8
:103DB0009985290F311D97FD3A95D9018C938985F5
:103DC000882311F08150898781E08E83DF91CF9124
:103DD0001F910F91FF90DF90CF9008956985062E77
:103DE000000C770BCE010E941E0D6F2D0F2C000CC6
:103DF000770B0E946F3E892B09F49ACFD801ED9181
:103E0000FC910284F385E02DC8011995EA81FB81BC
:103E10003A96859194912985820F911D27FD9A9557
:103E2000FC01F0828985EA81FB813A96A591B491E3
:103E3000FD0101900020E9F73197EA1BFB0B282FC9
:103E4000082E000C330B0E2E000CFF0B31978F5FEA
:103E50002E173F070CF4B7CFB7CFCF92DF92EF9278
:103E6000FF920F931F93CF93DF93EC012230310524
:103E700009F453C068F42130310509F469C0DF91B9
:103E8000CF911F910F91FF90EF90DF90CF90089509
:103E90002330310509F463C02430310581F7698589
:103EA0008F81882309F4A8C0062E000C770BCE0161
:103EB0000E941E0D7C010A811B81065F1F4FF801C5
:103EC00085919491C9840C2C000CDD088C0D9D1DEE
:103ED000FC016081062E000C770BC7010E946F3E2B
:103EE000009709F46CC08E199F09815087FF07C0A5
:103EF000D7010D900020E9F78A2F8E198250F80122
:103F000025913491F701E80FF11D87FDFA95808125
:103F1000C20ED31EF60180836CC08F8198859923D1
:103F200089F081110FC018861986FB018381948165
:103F3000DF91CF911F910F91FF90EF90DF90CF9085
:103F40000C94841991E089278F839E83988797CF5B
:103F500081E08E838F81882331F31F8290CF898502
:103F6000682F082E000C770B9F81992361F1CE01F9
:103F70000E941E0D7C010A811B81065F1F4FF80104
:103F800085919491C9840C2C000CDD088C0D9D1D2D
:103F9000FC016081062E000C770BC7010E946F3E6A
:103FA000009779F08E199F098F5FF701019000202B
:103FB000E9F73197EE19FF098E170CF4A0CF80E0D6
:103FC0009ECF81E0F2CFEA81FB813A96A591B49130
:103FD000FD0101900020E9F73197EA1BFB0B0E2E43
:103FE000000CFF0B31976E177F0714F48F5F8987E2
:103FF000188681E08E8343CF6623D1F361506987B1
:10400000F7CF2F923F924F925F926F927F928F9253
:104010009F92AF92BF92CF92DF92EF92FF920F9357
:104020001F93CF93DF9300D000D01F92CDB7DEB7A0
:104030001C017B836A835F834E83DA01ED91FC91DF
:104040000484F585E02DCA0119958D3209F041C02F
:10405000AE81BF81ED91FC9111970284F385E02D33
:10406000CD011995AE81BF81ED91FC91119704842A
:10407000F585E02DCD011995BC018BE494E00E94FB
:104080006F3E892B09F0B1C0D101ED91FC910684FE
:10409000F785E02D24E030E04FEF6A817B81C1019C
:1040A00027960FB6F894DEBF0FBECDBFDF91CF913C
:1040B0001F910F91FF90EF90DF90CF90BF90AF9046
:1040C0009F908F907F906F905F904F903F902F9038
:1040D0001994682F880F770B8BE494E00E946F3E51
:1040E000892B09F4E0C080E0EE81FF81F485FD8337
:1040F000FF2309F4D0C0412C512C20E8622E2FEB75
:10410000722E811106C0412C512C90E8692E9FE33C
:10411000792E8E819F810E94C30A8C0197FDB7C0C2
:10412000AE81BF81ED91FC910284F385E02D8D324B
:10413000910509F05CC0812C912C80E8A82E8FE3BA
:10414000B82EC12CD12C760119821C8201301105A8
:1041500061F10D32110509F456C00E32110509F452
:1041600055C0C801C0970A9700F5AAE0B0E0A701C2
:1041700096010E94A33C6801110FEE08FF08C60ECD
:10418000D71EE81EF91EB0E3CB1AD108E108F108EA
:10419000E981EE2351F02DEC3CEC4CEC5DE3C501E4
:1041A000B4010E94E53B4B015C01AE81BF81ED9102
:1041B000FC9111970284F385E02DCD0119958E8134
:1041C0009F810E94C30A8C01C0970A9708F4BECF52
:1041D0000E321105F1F4B981BB2309F4B7CFFC818C
:1041E000FF2369F1FC81F9831BC081E07DCFC0977B
:1041F0000A9708F4A0CF0E32110509F49CCF8E81E6
:104200009F81199586CFFD81FC83CFCF2D81298396
:10421000CCCF0130110509F499CFEC81EE2341F0A8
:10422000F094E094D094C094C11CD11CE11CF11C0A
:10423000C701B6010E94AA3B2981222341F0C70190
:10424000B6010E94AA3BA50194010E94E53BD10161
:104250001296ED91FC913C96259134913F832E83EB
:104260009B01AC01C301B2010E94E53B0E94BD3C31
:10427000AE81BF816D937C9381E0F10187830190D2
:10428000F081E02D0684F785E02D22E004CF60E088
:1042900070E0CB01DCCFD101ED91FC910684F78574
:1042A000E02D27E0F8CED101ED91FC910685178530
:1042B000AE81BF81ED91FC9111970284F385E02DD1
:1042C000CD011995682F8A819B810E94E11D9B0178
:1042D000482F6A817B81C101F801E2CECF93DF9341
:1042E00000D01F92CDB7DEB724E06202B0011124E6
:1042F000680F791F44E050E0CE0101960E949F3B79
:1043000069817A818B819C810F900F900F900F9023
:10431000DF91CF910895FC01808191810E946E21EF
:10432000892F08952F923F924F925F926F927F92C2
:104330008F929F92AF92BF92CF92EF92FF920F9384
:104340001F93CF93DF93EC012B015A01122FE881C9
:10435000F9810488F589E02D00E021E030E040E0BB
:1043600061E070E0199560E170E0C5010E94940D74
:10437000882309F45DC0912C812CD501ED91FC912D
:104380000190F081E02DC5011995082E000C990BC4
:10439000881699060CF0D6C0D501ED91FC910088E5
:1043A000F189E02D682DC50119953C01FC0124819E
:1043B0003581E881F9810488F589E02D00E040E04D
:1043C00061E070E0CE011995D30114962D913C91D6
:1043D000E881F9810688F789E02DE12E40E0682D1B
:1043E000CE011995F30124813581E881F981048892
:1043F000F589E02D40E061E070E0CE011995D30130
:10440000ED91FC9124803580EE81FF81612F8081C8
:1044100091810E946E21C12EE82E082D9E0140E060
:10442000B201C301F1011995FFEF8F1A9F0AA5CFC1
:10443000E881F9810088F189E02D612FCE0119957D
:10444000E881F9810288F389E02D212F40E060E0C6
:10445000CE011995312C612F8E819F810E948B2175
:1044600038160CF06FC0D501ED91FC910190F081F0
:10447000E02DC501199538160CF064C0D501ED91F9
:10448000FC910088F189E02D632DC50119954C013F
:10449000FC01E480F580E881F9810484F585E02D54
:1044A000C12C00E030E020E0412F632DCE011995B2
:1044B000E881F9810288F389E02D212F432D60E006
:1044C000CE011995D40114962D913C91E881F98182
:1044D0000488F589E02D40E061E070E0CE01199597
:1044E000F40124813581E881F9810688F789E02D7E
:1044F000E12E40E0632DCE011995D40114962D9143
:104500003C91E881F9810488F589E02D40E061E083
:1045100070E0CE011995D401ED91FC916480758015
:10452000EE81FF81612F808191810E946E21C12ED9
:10453000E82E032D9E0140E0B201C401F30119955C
:10454000339489CFDF91CF911F910F91FF90EF901E
:10455000CF90BF90AF909F908F907F906F905F9023
:104560004F903F902F9008955F926F927F928F921D
:104570009F92AF92BF92CF92DF92EF92FF920F93F2
:104580001F93CF93DF93DC0116961C911111E7C0A6
:10459000502E022F3A017B01EC0164E170E00E9491
:1045A000940D882341F1D12CC12CE881F98101902F
:1045B000F081E02DCE011995082E000C990BC8163C
:1045C000D90614F5E881F9810088F189E02D6C2D78
:1045D000CE011995DC01ED91FC910680F781E02D6B
:1045E000052D20E0A301B70119958111B8C0BFEFD7
:1045F000CB1ADB0ADACFF701818192818C179D07F4
:1046000011F4011112C01E81812FDF91CF911F91F2
:104610000F91FF90EF90DF90CF90BF90AF909F9061
:104620008F907F906F905F9008950380F481E02DCC
:10463000C7800E94790DBC2DE5E0BE025001112417
:104640008823D1F0D7011396ED91FC91B5E0AB1A18
:10465000B108648175816A0D7B1DFB0181819281A6
:10466000DC01ED91FC910680F781E02D052D21E024
:10467000A3011995182FC8CF60E0F30186819781B7
:104680000E948B21082F62E070E0CE010E94860D0F
:10469000811161C0D7011396ED91FC91808588232B
:1046A00009F45BC064E070E0CE010E94860D91E0E9
:1046B0008927081BF301848095800C2C000CDD08F1
:1046C000D7011396ED91FC9164817581A60EB71EFA
:1046D000F501A180B28060E170E0C5010E94940DF7
:1046E000811105C064E070E0C5010E94940DC81AF4
:1046F000D1088C0C9D1CD4019C90D12CC12CA02ED7
:10470000000FBB08092D0C0DCA14DB040CF07CCF84
:10471000E881F9810190F081E02DCE01199508170B
:104720000CF072CFE881F9810088F189E02D602FCB
:10473000CE011995DC01ED91FC910680F781E02D09
:10474000052D20E0A301B7011995811108C0BFEF25
:10475000CB1ADB0AD7CF81E0ACCF80E0AACF11E043
:1047600053CF0F930E94B4220F9108956F927F92BE
:104770008F929F92AF92BF92CF92DF92EF92FF9271
:104780000F931F93CF93DF93EC017B016A01622E9D
:104790001E8264E170E00E94940D882329F110E0EC
:1047A00000E0E881F9810190F081E02DCE011995BA
:1047B000082E000C990B081719070CF0C1C0E881EE
:1047C000F9810088F189E02D602FCE011995DC0177
:1047D000ED91FC910280F381E02D20E0A601B7016C
:1047E00019950F5F1F4FDDCFD7011396ED91FC9107
:1047F0007780CE010E94790DB72DE5E0BE02400121
:1048000011248823B1F0D7011396ED91FC916481B6
:104810007581C4010597680F791FFB018181928121
:10482000DC01ED91FC910280F381E02D262DA601A3
:10483000199560E0F601868197810E948B21B82E40
:1048400062E070E0CE010E94860DAA24A39481113B
:1048500010C0D7011396ED91FC918085A12C88237F
:1048600041F064E070E0CE010E94860D91E0A82E38
:10487000A926F60104811581D7011396ED91FC91CB
:1048800084819581880E991EF4018180928060E177
:1048900070E0C4010E94940D811105C064E070E0D5
:1048A000C4010E94940D662009F44AC0272D770C9C
:1048B000330BA901481B5109CA01800F911FDC016C
:1048C0007C90912C812CBA18AB2CBB0CBB08172DFB
:1048D000180D8A149B04A4F5E881F9810190F081F8
:1048E000E02DCE01199518175CF5E881F981008853
:1048F000F189E02D612FCE011995DC01ED91FC913C
:104900000280F381E02D20E0A601B7011995E8812E
:10491000F9810088F189E02D612FCE011995DC0124
:10492000ED91FC910680F781E02D00E020E0A601EA
:10493000B7011995811104C0BFEF8B1A9B0AC7CF2D
:10494000DF91CF911F910F91FF90EF90DF90CF906B
:10495000BF90AF909F908F907F906F9008952F920F
:104960003F924F925F926F927F928F929F92AF92FF
:10497000BF92CF92DF92EF92FF920F931F93CF934C
:10498000DF93CDB7DEB763970FB6F894DEBF0FBEE7
:10499000CDBF9B8B8A8B2B01142FDB011396ED91DE
:1049A000FC9165E070E0868597850E94940D082F44
:1049B000F20183819481DC01011154C01E968D9116
:1049C0009C91DC01ED91FC910680F781E02D20E0C7
:1049D0004A895B89B2011995882309F1D20113969E
:1049E000ED91FC91A684B784D501ED91FC91848072
:1049F0009580AA89BB891696ED91FC91612F8081E3
:104A000091810E946E21F20163817481C12EE82E92
:104A100000812A893B8941E0C501F4011995F20121
:104A200081819281AA89BB891B969C938E931A9748
:104A300080E063960FB6F894DEBF0FBECDBFDF9166
:104A4000CF911F910F91FF90EF90DF90CF90BF908B
:104A5000AF909F908F907F906F905F904F903F901E
:104A60002F9008951796AC90AA2031F00E94530D14
:104A70000E94790D8111AA940A2C000CBB08AA8906
:104A8000BB891496ED91FC91EA0DFB1D608060E1FD
:104A900070E0F201818192810E94940D382ED20142
:104AA0001196ED91FC911297828193810896FC01F9
:104AB0002591349121FD0BC01396ED91FC917084EA
:104AC000772099F0FC018591949182FD0DC0311001
:104AD0000BC0612FEA89FB89868197810E948B2117
:104AE0007724739482300CF4712CD20111968D913D
:104AF0009C910E94790D811129C0C72CD12CEA8983
:104B0000FB898485882309F48BC0D201FC90068040
:104B1000F781E02D612F808191810E946E21AA8909
:104B2000BB891496ED91FC91EA0DFB1D2F2D0F2CE6
:104B3000000C330B672F690F062E000C770B6C19D6
:104B40007D09C9010E94EC3CF81AF082EA89FB89D0
:104B5000408540FD34C00480F581E02DEA0DFB1D49
:104B6000808186112CC0AA89BB891A968D919C914F
:104B70001B97F201218132818217930701F5169666
:104B8000ED91FC910280F381E02D212F220F330B58
:104B9000E20FF31F208131812415350581F400E0F7
:104BA00041FD0DC0DC01ED91FC910680F781E02D07
:104BB00000E021E04A895B89B2011995082FD201F2
:104BC0001196ED91FC91D680D02A29F4EA89FB89CF
:104BD000808581FF2DCFAA89BB891696ED91FC9126
:104BE000612F808191810E946E21982E711061C188
:104BF000F20181819281DC01ED91FC910680F781C7
:104C0000E02D00E020E04A895B89B201199581110D
:104C10003FC1D11040C1332009F4A1C11982A8C1FC
:104C2000F20180814601880E911C87FD9A94AA8921
:104C3000BB891496ED91FC911597EA0DFB1DE08060
:104C40000E2C000CFF08612F16968D919C910E94EE
:104C50008B21E80EF11C87FDFA948E149F045CF002
:104C6000AA89BB891496ED91FC91EA0DFB1D808108
:104C70008F5F8083D5CFAA89BB891496ED91FC9173
:104C8000EA0DFB1D9081F201808189175CF4AA89ED
:104C9000BB891496ED91FC91EA0DFB1D808181503A
:104CA0008083E9CF21813281992309F44FCFC90153
:104CB0000E94340CE82E880FFF08AA89BB8914963D
:104CC000ED91FC911597EA0DFB1D8081E81AF10822
:104CD00087FDF394612F16968D919C910E948B21F4
:104CE000082E000C990B8C199D09E816F9067CF228
:104CF0002DCF332009F433C167E574E08A899B899D
:104D00000E94891D8BCF612FEA89FB89868197815B
:104D10000E948B21082E000C990B29853A85821B55
:104D2000930BE816F9060CF44AC179CEDC01ED913B
:104D3000FC910680F781E02D00E020E04A895B8944
:104D4000B2011995811158C1839432C1332009F4FD
:104D500084C02A813B816216730609F07EC069E433
:104D600074E08A899B890E94891DF92CEE24EA94BB
:104D7000EF0CF50124813581AA89BB89ED91FC9165
:104D800011970488F589E02D0C81422D61E070E0D7
:104D9000CD0119951E140CF5F20163817481D501C2
:104DA000ED91FC910480F581E02DC12E082D2A891A
:104DB0003B89422DC501199518167CF4332069F002
:104DC000EA81FB8164E374E06E167F0611F062EB0A
:104DD00073E08A899B890E94891D2A813B81621622
:104DE000730609F0B1CFAA89BB891696ED91FC91A3
:104DF0008481082E000C990BEE85FF85E817F907D2
:104E00000CF0A2CFC5010E94120D882349F0D501F4
:104E10001296ED91FC9132968591949184FF1FC07A
:104E2000AA89BB891696ED91FC910280F381E02D51
:104E30002F813885E20FF31F80819181892B09F43E
:104E400083CFAA89BB89ED91FC9111970088F189E4
:104E5000E02D6B85CD01199577CFF92C40C1D2019A
:104E600013966D917C912B85A5018A899B890E945F
:104E70009221AA89BB891696ED91FC910280F3815B
:104E8000E02D2F813885E20FF31F518240825CCFE5
:104E9000DD2009F42ECF31102FCFAA89BB89ED91E7
:104EA000FC9111970088F189E02D612FCD011995B2
:104EB00056C0D11027C131101FCFAA89BB89ED91EF
:104EC000FC9111970488F589E02D00E021E030E0A5
:104ED00040E065E070E0CD011995AA89BB89ED91AC
:104EE000FC9111970484F585E02DC12CEE24E39408
:104EF000F12C25E030E0412F60E0CD011995AA8921
:104F0000BB89ED91FC9111970488F589E02D21E092
:104F100030E041E065E070E0CD011995AA89BB89D8
:104F2000ED91FC9111970288F389E02D212F40E04B
:104F300060E0CD011995F2018181928163817481D4
:104F4000DC01ED91FC910480F581E02DC12E4EEF46
:104F5000E42EE90C0FEF2A893B8941E01995EA8993
:104F6000FB8984819581A80EB91ED501BC91B983B6
:104F7000812F012E000C990B0196FC01EE0FFF1FF3
:104F8000F887EF83812C272D30E03A872987A98184
:104F90000A2E000CBB0BBD87AC879F878E87B1E0C4
:104FA000B10FBB87E981EF5CE88BFDEFF90DF98B61
:104FB000E82C082C000CFF08332009F4A4CE6C84E4
:104FC0007D846E0C7F1CD20111968D919C910E9464
:104FD000340C082E000C990B681679060CF01FCDC6
:104FE0006981680DD20111968D919C910E942D0CC2
:104FF0005C01DD2009F49ACEE985FA85EE0DFF1DEE
:10500000FE83ED83D2018C91E82F880FFF0BFB8389
:10501000EA83222423946E167F0609F0212CF1E006
:10502000FC83D20111968D919C918A159B0509F004
:105030001C82311020C0F501E480F580AA89BB896B
:10504000ED91FC9111970484F585E02DC12C022D82
:1050500030E020E0412F6D81CD011995AA89BB89EF
:10506000ED91FC9111970288F389E02D212F4D815C
:1050700060E0CD011995F50124813581AA89BB89AC
:10508000ED91FC9111970488F589E02D0C81422D5A
:1050900061E070E0CD011995D2011396ED91FC917C
:1050A000828D882309F452CE311053CEEA89FB89D0
:1050B000808582FFD2CE0889080D6BE5CF010E9462
:1050C000F10A0A330CF00DE2602F8A899B890E9455
:1050D000F10A6DE58A899B890E94F10AF988D50158
:1050E00014962D913C91AA89BB89ED91FC91119761
:1050F0000688F789E02DE12E0C81422D6D81CD01CE
:10510000199534CE3110F8CDAA89BB89ED91FC9167
:1051100011970088F189E02D612FCD011995CDCE31
:105120002F923F924F925F926F927F928F929F92B7
:10513000AF92BF92CF92DF92EF92FF920F931F93A5
:10514000CF93DF9300D01F92CDB7DEB73C016B0148
:10515000912C812CD3018D919C91119788169906E1
:105160000CF004C11296ED91FC91C401880F991FB7
:10517000E80FF91F05911491F801808591858172DE
:105180009927892B09F48DC0D60113960D90BC91F7
:10519000A02DBA83A983CD010E94530DE981FA8124
:1051A000E7800E2C000CFF080E94790D811183C04E
:1051B000D6011396ED91FC91B5E0BE9D1001BF9D07
:1051C000300C112484819581280E391ED801169641
:1051D000ED91FC91B481EB2F0E2E000CFF0B31975B
:1051E000FC83EB83EE16FF0614F4FC82EB82D801FD
:1051F00018968C9183FF08C0EB81FC81309709F4ED
:105200005EC03197FC83EB83B12CA12C97018B817D
:105210009C81281B390B3A832983AB81BC81AA1658
:10522000BB060CF04CC0F6016381748189819A81C0
:105230008A0D9B1DF5E0F89F7001F99FF00C112479
:10524000DB0114968D919C91E80EF91E2501440C0A
:10525000551CF801808581FF0DC00680F781E02D87
:105260000280F381E02DE40DF51D80819181E81627
:10527000F90699F0D70111964D915C912A2DC8013C
:105280000E949221D8011696ED91FC918281938122
:10529000480E591EF201F182E082FFEFAF1ABF0AF9
:1052A000BCCFB801C6010E94261981116DCF8FEFC6
:1052B000881A980A4FCFF1E0EF1AF10879CFD80198
:1052C0001696ED91FC91BB81B5834B2FB101C801BE
:1052D0000E94AF24EB80FC80EE0CFF1CD8011696D8
:1052E000ED91FC910280F381E02DEE0DFF1DD18246
:1052F000C082EB81FC813296FA83E983D80116964D
:10530000ED91FC9117978481082E000C990B29814F
:105310003A81281739075CF6570134E0A30EB11C17
:105320000280F381E02DEA0DFB1D80819181892BA4
:1053300099F0ED91FC910088F189E02D6981C80117
:105340001995D8011696ED91FC9182819381A80E52
:10535000B91EF5011182108229813A812F5F3F4FDA
:105360003A83298332E0E30EF11CC8CF1A821982F6
:10537000D3018D919C911197E981FA81E817F90782
:10538000ECF4CF01880F991F1296ED91FC91E80F74
:10539000F91F45915491D60111968D919C91DC0194
:1053A000ED91FC910280F381E02D21E0B601199589
:1053B000E981FA813196FA83E983DACF80E00F90B0
:1053C0000F900F900F90DF91CF911F910F91FF9051
:1053D000EF90DF90CF90BF90AF909F908F907F9095
:1053E0006F905F904F903F902F900895AF92BF9233
:1053F000CF92EF92FF920F931F93CF93DF938C0185
:105400005B01E9014E2DDC011296ED91FC91349681
:1054100065917491E881F9810084F185E02DC901DD
:105420001995F82ED8011296ED91FC91329685913E
:105430009491857199274597A1F4F501878164813D
:105440007581F5E08F02600D711D1124DB0111964D
:105450008D919C910817190779F44C2DCE010E946B
:10546000AF248F2DDF91CF911F910F91FF90EF907F
:10547000CF90BF90AF9008952C2DA801B501CE011B
:105480000E949221EECF6F927F928F929F92AF9265
:10549000BF92CF92DF92EF92FF920F931F93CF9321
:1054A000DF93EC014B01D42E59011E2D0E94F629E9
:1054B000FE2CF81AE881F981648875880288F389DE
:1054C000E02DCE011995682FCE01F3011995E82E34
:1054D000812F012E000C990B8F199109F7FC9395E0
:1054E00097FD50C0C4010E94530D60E2C817D90750
:1054F00009F46AE3D4011E966D907C90C5010E9468
:10550000F10AFA949F2C01E0C615D70509F000E0D6
:105510002C813D81D501ED91FC910488F589E02D28
:105520004D2D62E070E0C50119951F14D4F4E88197
:10553000F9810088F189E02D6E2DCE011995DC01ED
:105540001296ED91FC91349665917491D501ED918F
:10555000FC910084F185E02D4F2DC50119959F2CFC
:10556000981A812F8919DF91CF911F910F91FF9088
:10557000EF90DF90CF90BF90AF909F908F907F90F3
:105580006F90089580E0EFCF2F923F924F925F92FD
:105590006F927F928F929F92AF92BF92CF92DF9243
:1055A000EF92FF920F931F93CF93DF9300D0CDB76D
:1055B000DEB79B838A834B015901F02E5E2CDB0101
:1055C0001E966D907C90332433948615970509F0D0
:1055D000312CE52C0F2D9501B4018A819B810E940D
:1055E000F629182F85156CF4EA81FB8167E574E0D4
:1055F000E615F70511F064E874E0C5010E94F51C9A
:105600001F5FD40117968C9117971496CD90DC905C
:10561000B5E08B02C00CD11C112462E070E0F601F1
:10562000818192810E94860D811183C0D6011396DB
:10563000ED91FC9114978085882309F47CC064E087
:1056400070E011968D919C910E94860D91E08927C2
:1056500044244394410EF80E952D9419EA81FB8160
:10566000818589170CF469C0891BAA81BB811296B8
:105670002D913C91265F3F4FF90145915491C82EE1
:10568000082E000CDD08F501A081B1814C0D5D1DD7
:10569000FA019081992309F453C022242394210E06
:1056A00015150CF04CC0F1E0F80FF983EA81FB818D
:1056B000918598136AC0EA81FB81E615F70509F028
:1056C00064C05896ED91FC91E12CAA81BB8117969C
:1056D0000C912F2D422DB401C5011995182F120DD3
:1056E000AA81BB811296ED91FC913A968591949195
:1056F000C80ED91ED501ED91FC910190F081E02DED
:10570000D6016C91C5011995D501ED91FC91028CE2
:10571000F38DE02DAA81BB8117960C912F2D412F7F
:10572000B401C5011995422C282E210E8981122D14
:105730009CCF81E08DCF80E08BCF80E096CF122D83
:105740005C96ED91FC91C12CAA81BB811796EC90DF
:10575000032D2F2D442DB401C5011995812F0F90D4
:105760000F900F90DF91CF911F910F91FF90EF90CD
:10577000DF90CF90BF90AF909F908F907F906F9071
:105780005F904F903F902F900895F90185919491EB
:10579000C80ED91EED91FC91D6016C91C5011995E9
:1057A000C5CF6F927F928F929F92AF92BF92CF920E
:1057B000DF92EF92FF920F931F93CF93DF93EC0151
:1057C0004B01D42E5901FE2C0E94F629182FE88196
:1057D000F981648875880288F389E02DCE011995D6
:1057E000682FCE01F3011995782E01E0D4011E96A1
:1057F0008D919C918C179D0709F000E02C813D81D3
:10580000D501ED91FC910488F589E02D4D2D62E0E4
:1058100070E0C50119958F2D0F2C000C990B811B81
:10582000910917FD939518161906D4F4E881F981AA
:105830000088F189E02D672DCE011995DC011296C3
:10584000ED91FC913496659174914F2D411BD501DA
:10585000ED91FC910084F185E02DC5011995180F9B
:10586000812FDF91CF911F910F91FF90EF90DF90EB
:10587000CF90BF90AF909F908F907F906F90089542
:10588000CF92EF920F93DB011E96ED91FC918E1754
:105890009F0731F40E94F6290F91EF90CF90089561
:1058A0000E94432AF9CF6F927F928F929F92AF927C
:1058B000BF92CF92DF92EF92FF920F931F93CF93FD
:1058C000DF93EC014B01D42E5901FE2CEA81FB81C0
:1058D0003C96A591B4918D919C9199878887CE0132
:1058E0000E94F629182F8E150CF052C0D4011E9676
:1058F0006D907C90C615D70541F4DD2031F08F8185
:105900006AE3882319F06EE301C060E2C5010E94DA
:10591000F10A1F5F1F150CF03BC099249394C61524
:10592000D70509F0912C2C813D81D501ED91FC9199
:105930000488F589E02D092D4D2D62E070E0C50148
:105940001995E881F9810688F789E02DB501CE0126
:105950001995180F1F15E4F42C813D81D501ED91A7
:10596000FC910488F589E02D4D2D63E070E0C501C0
:105970001995EA81FB813A9665917491D501ED9173
:10598000FC910084F185E02D4F2DC5011995180F6C
:10599000812FDF91CF911F910F91FF90EF90DF90BA
:1059A000CF90BF90AF909F908F907F906F90089511
:1059B000AF92BF92CF92DF92EF92FF920F931F931D
:1059C000CF93DF93EC01C62EF42E59016E2DEE819C
:1059D000FF81808191810E946E21D62E172FE88150
:1059E000F9810488F589E02D00E095014F2D64E0F0
:1059F00070E0CE011995EB88FC880E85EE81FF8161
:105A000060E0808191810E946E219D85989F202D6C
:105A100011241C0D8E854A89189F400D1124698917
:105A20009D9D600D1124C70104960E94D912DF913B
:105A3000CF911F910F91FF90EF90DF90CF90BF908B
:105A4000AF900895CF92FF920F931F93CF93DF9360
:105A5000002339F16C2DF22E142FEC01EE81FF8121
:105A6000808191810E946E210E853D8521E0230F6A
:105A70007F0D4A89709F400D1124812F110F990BC2
:105A8000860F911D67FD9A95019769899F85690F1A
:105A90006150389F600D11248B899C8904960E9467
:105AA000D91280E0DF91CF911F910F91FF90CF909D
:105AB0000895EF92FF920F931F93CF93DF930023EC
:105AC00059F16E2DF22E142FEC01EE81FF818081B1
:105AD00091810E946E210E852D857F0D4A89709FD0
