:100000000C944B0C0C947C0C0C947C0C0C947C0C81
:100010000C947C0C0C947C0C0C947C0C0C947C0C40
:100020000C947C0C0C947C0C0C947C0C0C947C0C30
:100030000C947C0C0C947C0C0C947C0C0C947C0C20
:100040000C947C0C0C947C0C0C947C0C0C947C0C10
:100050000C94D3360C947C0C0C947C0C0C942936A8
:100060000C947C0C0C949D360C9473360C947C0C84
:100070000C947C0C0C947C0C0C947C0C0C947C0CE0
:100080000C947C0C0C947C0C0C947C0C0C947C0CD0
:100090000C947C0C0C947C0C0C947C0C0C94FE3614
:1000A0000C947C0C0C947C0C0C947C0C0C947C0CB0
:1000B0000C947C0C0C947C0C0C947C0C0C947C0CA0
:1000C0000C947C0C0C947C0C0C947C0C0C947C0C90
:1000D0000C947C0C0C947C0C0C947C0C0C947C0C80
:1000E0000C947C0C08000000BE922449123EABAA7E
:1000F000AA2ABECDCCCC4C3E00000080BEABAAAA42
:10010000AA3E00000000BF000000803F0000000089
:1001100000084178D3BB4387D1133D190E3CC3BDC2
:100120004282AD2B3E68EC8276BED98FE1A93E4C6F
:1001300080EFFFBE01C4FF7F3F00000000000C9471
:10014000230E0C9431430C949E1A0C947C430C9413
:10015000C2260C94FE420C94721D0C94AB1D0C94A0
:10016000E90D0C9421280C940D430C94B3250C94A8
:100170000B200C947F1D0C94850F0C94E10C0C94B7
:10018000991F0C94AC190C9429200C94A5110C9473
:10019000E51D0C94E91E0C94D70C0C949A310C9428
:1001A000BD1F0C949B110C94A5140C9424200C944A
:1001B000580F0C94DC1D0C941C110C941A0E0C940A
:1001C000331A0C94240E0C94E0190C94DE1E0C943B
:1001D000411D0C94B0180C94AD1A0C9421340C945D
:1001E00051200C94BB320C944B1F0C9492260C940F
:1001F0005E340C94940F0C943B430C94DE1F0C94CF
:10020000080E0C9435190C941B150C941F1D0C949E
:10021000111D0C9495430C94E4310C9433190C94F7
:100220000A200C94F32B0C9412200C94EE0F0C94D7
:10023000020E0C948F1D0C9436110C9421430C94D7
:100240003B100C9445230C9499110C94C11D0C94F3
:10025000C21A0C9445130C94461B0C9445280C941C
:10026000880C0C94DE0C0C94491A0C944F430C949B
:10027000F10D0C9484320C9402190C94BC270C944C
:10028000A80F0C9431190C9421200C940C0E0C9492
:10029000E4170C94D4250C94E4180C942D190C94A8
:1002A000F9420C945E430C94FE0D0C94591F0C946F
:1002B000FC130C9492110C9472430C9456320C94CF
:1002C000F52C0C9467220C9415310C943D330C944E
:1002D000F50D0C94160E0C94ED0D0C9490430C94AB
:1002E00076260C94F82A0C94CA1D0C94F80D0C94E4
:1002F000A8110C94E30D0C949C240C942B190C94D1
:100300001B1F0C94BB1A0C94100E0C942D110C9402
:1003100034110C94FF1F0C94CE260C945D110C9498
:1003200086430C94C3100C9417430C94D01A0C946D
:10033000D2380C94B60F0C9427200C9429430C94BB
:100340008B260C94871A0C9429190C94011A0C947E
:10035000B1140C9440260C941E0E0C94C91A0C94E3
:10036000BA250C94F01E0C942F190C941B320C948B
:10037000A61A0C947E0C0C94D90C0C94F2320C94AA
:1003800027190C949E330C94B4110C9403430C94D1
:10039000280E0C948C1D0C94A1250C9468430C948D
:1003A000D9110C94D31D0C94121D0C945E110C9455
:1003B000B41A0C9445430C948B1930072607370761
:1003C0004D41494E204D454E550000506C617465BD
:1003D00020436F756E74005374617274004C075340
:1003E0000745073E0753455454494E4753003C4286
:1003F00061636B00486F6D696E672054756E696E3E
:100400006700506C6174652020436F756E74200026
:100410008A07830779077207680761075A074D6FD4
:10042000746F722054756E696E67003C4261636B35
:10043000004A6F67204163747561746F72000041F8
:100440006374204A4F473A20004A6F67206C6F77E9
:10045000206361726F7573656C00005E4C6F77206E
:100460004361726F7573656C204A4F473A20004AAA
:100470006F67205E6361726F7573656C00005E4329
:1004800061726F7573656C204A4F473A2000000017
:10049000002F0000000000F0FF01000000007EE4DB
:1004A00007000000C0AF391E000000F8522A790092
:1004B00000001EA575F6000080933FEAAE0300C061
:1004C000EDE855510700706D80AA670C0090350566
:1004D000552E3F00C811F82BF97B006CBAFFFFDCEA
:1004E000ED005CF5FDFFB7BB01AEFEFF7F5F6A016B
:1004F00056DF07F0FB6503A6F3008077FF079A3D00
:100500000000FEAF07A61F0000B8530FDE0E00006C
:10051000F0A70EF47700C0E45E0DCCFF00E0C1AEA2
:100520001C98FB98F0C1DF1FB073FCF0912F0FE017
:1005300031FCC080AB0DC001FC0000EF068000FE66
:1005400000007E038000FC0000DE03C000FC00A071
:10055000EC004000F800007D0040000000A00C000E
:100560004000000000080060000000800A006000F9
:1005700000004019002000000000080020000000DA
:100580004009002000000000080060000000000892
:100590000040000000400C0040000000000D00C0C2
:1005A0000000005004008000000050020000010024
:1005B0000000030000030000C00100000C000070F8
:1005C0000000003800003C000000E001A00F000027
:1005D00000809FFD0100000000F007000000000007
:1005E000000C0000000000E07F0000000000FCF3B1
:1005F00003000000801FA50F000000E0933A1D00DB
:1006000000007864A5720000009F9D6AD5000080FC
:10061000677BD5AA0300C0D561AAA9070070699AB3
:1006200055570E00B02580AD3E1B00C8BAA945D96C
:100630003E006C15FF7FECE700ACF6EFFEB7DD0087
:100640005EF9FDFF6FB901A29E5F7E5E6B03AAFE9D
:1006500001C07FFB03567B0080F7BD07AB3700006E
:10066000DC4707961F0000BC3B05DE0C0000F0B71E
:100670000EF43F0040E0561DCC7F00F0C8CC1DC8F2
:10068000FB00F0D1AF0E30FBFEE081AF0FF073FC4A
:10069000E0904B0DE001FC0020BF078000FC000053
:1006A000F7068000DC0060DE038000FC000096019D
:1006B000C000FC0040FD0040007800007C004000CD
:1006C0000000A0180040000000000C0060000000C6
:1006D0008009002000000000080020000000000841
:1006E0000020000000401A00200000000009006007
:1006F00000000040080060000000A0090040000069
:1007000000000C0040000000000C00C00000005081
:1007100006008000000040020000010000200300ED
:100720000003000080010000060000E40000001C3F
:100730000000380000007000001E000000C003E050
:100740000700000000FE7F0000000000C001000064
:10075000000000000E0000000000C0FF00000000CC
:1007600000FCE303000000C09F7A0F000000F85572
:10077000A6390000005EA26DF6000080573F569635
:100780000100C0E9D9A9590700706BC0AAA70E00E3
:10079000902505555E3E00483A783FFD7B00ECD53C
:1007A000FFFD61EE005CFAFFEFBFA701A6DDFFFFD2
:1007B000DF5D035EFE01E07BFB03A67B0000EFDC58
:1007C00006963F0000BC5F07CE1F0000F8A30EFE98
:1007D0000C0000F45F0DE47F00E0C0A61E98FF103F
:1007E000F0C16D1F98FBFCF0918F0EF071FCE08062
:1007F0003F0FC001FC0020DF068000FC0040FE032C
:100800008000FE0000AE03C000FC00A0EE0040002F
:100810007800003C0040000000000C004000000098
:100820004009006000000080080020000000000B6C
:100830000020000000001A002000000040080060B6
:1008400000000080080060000000200D0040000053
:1008500000000C0040000000400400800000003058
:10086000060080010000000300000300008001007A
:1008700000060000E40000001800003C00000070CA
:1008800000800F000000801FFC0100000000F81F26
:10089000000000000000060000000000F03F000023
:1008A000000000BCE201000000804FB5070000001E
:1008B000F091161E0000003E7F733A0000C0AFFBAF
:1008C0006EFA000070D180C9940300986C80A9A5CD
:1008D0000700CC36DD5F5F1F007E91FFFE78F900D8
:1008E000A6FAFDCFEFEF016BDD5FFE5F240757FF38
:1008F00003F0F7FF06AE730000FF9D0F963F000068
:100900009CD70F960E0000F0570EEC2F0040E0AE83
:100910001FC8FF00F0D16C0E98FB94F0C1AF0EF031
:10092000FBFCF0808F07C001FC4030BF078000FC5B
:100930000000FF038000FC0060AE01C000FC00006E
:10094000EE004000FC00407C0040003000001D0034
:100950006000000040080020000000400800200067
:1009600000000009002000000040180020000000E6
:10097000000B002000000000080060000000A00D37
:100980000040000000800C00C00000001004008047
:1009900000000010020000010000800300000300BE
:1009A00000C00100000C0000780000003000001CB6
:1009B000000000E003E00700000000FC3F00000032
:1009C0000000E00F0000000000000C00000000002C
:1009D000F0FF01000000007FF307000000E0AB859E
:1009E0001E0000007C5035730000009FBFEBF60135
:1009F00000C0916B96680700E0EDC0A9970E00B0AB
:100A00002A84B12E3E00CC36FB5FFE7B006CD2DF29
:100A1000FFE9D700D6FDFDDF9FF5016ADE0FFCFF81
:100A20003B0316FF01C0F7FA07AF730000DEDE05D7
:100A3000D61F0000BC270FAE0E0000F0A70EEC770B
:100A400000E0E05E1ED8FF00F0C1AE1F98FBFCF096
:100A5000A15F0EE063FC60908F0DC001FC0000FF01
:100A6000078000FC0020BE03C000FC0040EE0140F7
:100A700000FC00007D0040007000403C0040000091
:100A80000000080060000000400900600000000055
:100A90001A0020000000400800200000008008002C
:100AA00060000000000B0040000000200900400032
:100AB0000000000C00C000000020060080000000C4
:100AC0002003000003000088010000060000E00091
:100AD00000001C0000780000007000800F00000083
:100AE000805FFE0100000000E00B0000000000211C
:100AF00000240027002A002D0030003300010100EF
:100B000000040107010A0100002200250028002B33
:100B1000002E003100340002010000050108010B25
:100B200001000020002300260029002C002F0032A5
:100B30000000010000030106010901050505050784
:100B40000508080808020202020A0A080804040448
:100B50000401010101010101010303030303030374
:100B600003040707070C0C0C0C0C0C0C0C02020203
:100B70000206060606060606060B0B0B0B0B0B0BF6
:100B80000B01021020200808102040102040800295
:100B900001020108040201010204081020408080C3
:100BA0004020100804020180040201804020100847
:100BB000040201080402010102040810204080011F
:100BC0000204081020408000000A0B02090C0D0EE0
:100BD00008070304010000000000000000000000FE
:100BE0000000000000000000000000000000000005
:100BF00000000012111000000000000000000000C2
:100C000000000000000000000000000000000028BC
:100C10000A0007EB060000000101010101000001CC
:100C200001010000010101000000010000010101BB
:100C300001000000001204E10C0300C003000001E9
:100C40000003BA03E10C0600CB0300000100CA0355
:100C50000002000032000A000100DC1D0000D70382
:100C60000200000092260300E503FFFF000004DD00
:100C700003A5112000EE030200000092260000F4FC
:100C800003FFFF0000922600000204FFFF00009215
:100C90002603001E04FFFF0000071004A51120001A
:100CA0002B0402000000C11D0000310402000000FE
:100CB000E10C06003F04000001003E04DE04E0B148
:100CC000204EE8036400CA1D000049040200000031
:100CD000E10C06005B04000001005A04E00478EC1B
:100CE000881314000100D31D00006F0402000000EF
:100CF000E10C06007E04000001007D04E20478ECB3
:100D0000881314000100BF02030203040102040758
:100D10000D00FE09FE090001BA03AD0B6F2006EFBE
:100D2000FCF97F210AEFFC6971DFE19C06220CEFE0
:100D3000FC4949988449CE9F002311EFFC999230D9
:100D4000C9062DC9062D09939C09240FEFFCD9D2A1
:100D5000214AD2358986346703250FEFFC29595281
:100D60006A8DD3524B2D27012610EFFCB9885116FE
:100D7000856294D4B225A7002709EFFC69719DBF55
:100D800001280DEFFC89699CC6F538CF4900290D73
:100D9000EFFC49799CC7D538CD89002A0DEFFCB905
:100DA00044A1366C629473022B0CEFFCB9C5E120B0
:100DB000C63937002C0AEFFCF9A751CC51002D0998
:100DC000EFFCF932E87C012E0AEFFCF9B774CD3163
:100DD000002F0DEFFCA9711AA7E534CEA900301140
:100DE000EFFC4962544CC2244CC2248C8A3A0D3127
:100DF0000CEFFC69A998C43D0E3A053210EFFC29AE
:100E0000431426619C86621A0F3B05330FEFFCF1F9
:100E1000614EAB7B9C84D19093003411EFFC89A987
:100E20009864512DCAA2618D7312003510EFFCF148
:100E300061892B931657C268C849003611EFFC49E7
:100E40005B1A57262D0993301A721200370DEFFCEA
:100E5000F1614ECB699CC639153814EFFC29431457
:100E600026611246431426611246434E023911EFA1
:100E7000FC294314266192494B5CCD761A003A0C4A
:100E8000EFFCB9A56B4E4ED71C033B0CEFFCB9A58C
:100E90006B4E1DC51C053C09EFFCA9BD77A7003DA5
:100EA0000BEFFCB90F3B65D8B9003E0AEFFC29797E
:100EB000D7EE54003F0FEFFC29431426619C967334
:100EC00038A7014014EFFC2943142661122DA5A474
:100ED000A244497DC849004113EFFC4962544CC209
:100EE000244C86254CC224CC29004213EFFCF1414E
:100EF0002B6551160D59298BB264D04900430EEF72
:100F0000FC29431426718FD19093004413EFFCF118
:100F1000412B6551166551166551960C3A09450EDF
:100F2000EFFCF16189CB431697879D02460DEFFCDC
:100F3000F16189CB4316B793014711EFFC294314A4
:100F40002671D3122699B4E414004814EFFCF13052
:100F5000099330099361099330099330A700490C34
:100F6000EFFC298318F771D029004A0CEFFC696B5C
:100F7000DC5396ED34004B12EFFCF130C9A25A124B
:100F8000AA491865A530A7004C0AEFFCF1B89F8765
:100F90009D024D14EFFCF13091144949948A524C52
:100FA000C2244CC29C024E14EFFCF13009132D29CF
:100FB00025515253C2244CC29C024F14EFFC2943CA
:100FC0001426611226611226611246434E02501009
:100FD000EFFCF1410A93300993418ADBC9005116B5
:100FE000EFFC29431426611226611226A5244AA289
:100FF00021CF11005213EFFCF1410A9330099341C4
:101000004AC2282B8539055311EFFC294314267158
:101010003EE4711246434E02540AEFFC298318F74E
:101020003B0D5514EFFCF1300993300993300993CF
:101030003009A32127015611EFFCF130099330AAA2
:10104000455914AA761A005715EFFCF13009933070
:10105000099344A92889A4484A9853005812EFFCE0
:10106000F13009A35A148A5116159330A700590E6E
:10107000EFFC29599455C2248DBBD3005A0DEFFCC7
:10108000F1614EAB6AF3B053005B0CEFFC91218B26
:10109000FBF39043005C0DEFFC29711EE7E53CCEAD
:1010A00029005D0BEFFC9121EEDF861C025E0BEF49
:1010B000FC696992D5F90B005F09EFFCF9EFC38E6B
:1010C000006009EFFCA13CE7BF01610FEFFC79195B
:1010D000F26850C22493969C026211EFFCF1B8654D
:1010E000D2923009132D49761200630EEFFC791964
:1010F000A230898BD19093006411EFFCA97169A98A
:101100002961122699B4E41400650FEFFC7919A245
:10111000301996388C869C04660DEFFC495B294E8D
:1011200087306EA7026710EFFC79596A51966DF906
:101130001085D110016811EFFCF1B865D292300929
:10114000933009730A00690CEFFCD97254EE38E849
:1011500014006A0DEFFC597354EE94455936016B37
:101160000FEFFCF1B82DAA8D51560A730A006C0AD4
:10117000EFFC49723F0E3A056D11EFFC7951B2A4B4
:101180009494925252CA720A006E10EFFCB92793DF
:101190009684499884499853006F10EFFC7919A2FE
:1011A0003009933009A3212701700FEFFCB9279371
:1011B0009684899624535C06710EEFFC79596A4A2D
:1011C0009864D212B700720BEFFCB9275B296EA7A7
:1011D00002730FEFFC7919A230D2A5301A721200F7
:1011E000740DEFFC59E27408E3B66C27017510EF3B
:1011F000FCB987499884499864D2925300760FEFDE
:10120000FC79C9A22CCA2A6192E634007710EFFC5F
:1012100079C9A22C4A4A4929A9253909780DEFFC38
:10122000B987515115A3624E017911EFFCB9874975
:10123000988449262D71124643047A0BEFFCB90FAE
:101240006BD761A7007B0DEFFCB12DAE877A1AD763
:1012500077047C09EFFC69717FA7017D0DEFFC919C
:101260003DAEE6621ED7760C7E0AEFFC492DA53A0C
:101270007F02A006EFFCF97FA10AEFFC6939DCEFE1
:101280003400A210EFFC69E9969492300993DA9A3F
:10129000B301A30EEFFC495B294ED7B896243B0956
:1012A000A410EFFCD9C368C8A22CCA8628CC590068
:1012B000A511EFFCF12CCA2A61920D623888714E9B
:1012C00004A60AEFFC69713BDC9D06A711EFFC2127
:1012D00031CA7231CAA250CFA250A701A80BEFFCAD
:1012E000295116E5FC1300A915EFFC2943142689A2
:1012F000D2949492529228C568C84900AA0FEFFC74
:10130000497B36445936E4D0A07301AB11EFFCD9C8
:10131000922CC9922C49933449939C05AC0AEFFC5A
:10132000F932C8752E00AD09EFFCF932E47C02AE4B
:1013300015EFFC2943142689D2A25494446951C262
:1013400068C84900AF09EFFC2983CE7F01B00CEFDC
:10135000FC49629445A1CE6F00B10EEFFCD9E2705A
:1013600010E31C1C741600B20CEFFCA13489D3F2FC
:10137000CE3700B30CEFFC9139CDC324CDF908B4BE
:1013800009EFFCB134E73F02B511EFFCB98749988A
:10139000844998484AA2D46100B614EFFC2983B26C
:1013A000444BB4644A9884499884494E02B708EF84
:1013B000FCF9A4F30DB808EFFCF9DFD210B90AEF7D
:1013C000FCA1546EDDF906BA0EEFFC49629445A10A
:1013D0000E0E394F00BB11EFFCE9499AA4499A64FB
:1013E00049966449CE08BC10EFFC91546E4B1631FF
:1013F000099370CE2900BD0EEFFC91546E8A8624AD
:101400004ECB3B05BE10EFFCE7340F93A8242661BA
:1014100012CE3905BF0EEFFC49395C2D8749180DF6
:101420003909C012EFFCA13C47C5A89884C9B08413
:1014300049985300C112EFFCB13487C5A89884C9FC
:10144000B08449985300C213EFFC2131CA41312ABC
:101450002661322C6112E61400C313EFFC112989B6
:1014600074508C8A49980C4B98843905C413EFFC4E
:1014700091288B72508C8A49980C4B98843905C5F9
:1014800013EFFC21310A55312A2661322C6112E614
:101490001400C614EFFC29C9524CC2244CA63109D1
:1014A000933019720A00C70EEFFC29431426718F7E
:1014B000D1901601C810EFFCA13CC786258E872C61
:1014C0008E879D02C910EFFCB1340787258E872CCB
:1014D0008E879D02CA11EFFC2131CAA16189E321E7
:1014E0008BE361A700CB12EFFC91288B726858E266
:1014F00078C8E278D82900CC0EEFFCA13C07073170
:10150000EE38E81400CD0EEFFCB134470731EE3869
:10151000E81400CE0EEFFCB134C9B1418C3B0E3A59
:1015200005CF0FEFFC912CCA726810E38E834E0139
:10153000D013EFFCF1412B6551964CB5288BB2646A
:10154000D04900D115EFFC11298974284CB4A4941A
:10155000949228A929614E01D213EFFCA13C078780
:10156000284CC2244CC2248C869C04D313EFFCB1BB
:10157000344787284CC2244CC2248C869C04D41443
:10158000EFFC2131CAB1210A933009933009A3211C
:101590002701D515EFFC112989746C88C2244CC22F
:1015A000244CC268C84900D615EFFC91288B726C98
:1015B00088C2244CC2244CC268C84900D70DEFFC35
:1015C000D9C3A8A88A51316701D816EFFCD1688821
:1015D00032254A4A4953524A4A89160D510E03D9B7
:1015E00013EFFCA13CC7C2244CC2244CC2248C86FD
:1015F0009C04DA13EFFCB134072B6112266112262A
:101600006134E42400DB14EFFC2131CAA1300993DA
:101610003009933009A3212701DC15EFFC91288BB9
:1016200072284CC2244CC2244CC268C84900DD0E4A
:10163000EFFCC13407B328ABA4713B0DDE10EFFC07
:10164000F17890C2244CC26490E23A19DF13EFFCA7
:1016500049629445591226619495B228D14900E017
:1016600011EFFC49790E0E7934286192494B4E01F5
:10167000E111EFFC69698E0E7934286192494B4E75
:1016800001E212EFFC49629463431E0D4A9864D252
:10169000925300E313EFFC295212E9D890478312CA
:1016A0002699B4E41400E413EFFC295116E5D89010
:1016B0004783122699B4E41400E513EFFC21310AA4
:1016C0007570C8A34109934C5A720A00E611EFFCE9
:1016D0007951D2241A94288B9248C94900E70EEF19
:1016E000FC7919A230898BD1901601E811EFFC49E1
:1016F000790E0E51980C4B1C46434E02E911EFFC3B
:1017000069698E0E51980C4B1C46434E02EA12EF4B
:10171000FC49629463431426C31287D1909300EB73
:1017200013EFFC295116E5D81085C9B0C46134E423
:101730002400EC0CEFFC49798ECA1D079D02ED0CCC
:10174000EFFC69690ECB1D079D02EE0DEFFC4962AF
:10175000948372C741A700EF0EEFFC295116E5A054
:10176000DC71D02900F014EFFC912814933C1BA2EB
:101770003009933009A3212701F113EFFC295212FC
:10178000E95032694998844998843905F212EFFC8E
:1017900049790E0E519884499884D1909300F312A0
:1017A000EFFC69698E0E519884499884D19093001A
:1017B000F413EFFC496294634314266112266134EA
:1017C000E42400F513EFFC295212E9D8108549985A
:1017D0008449180D3909F613EFFC295116E5D81084
:1017E0008549988449180D3909F70DEFFCD9E21C99
:1017F0001C7430CED900F812EFFCB946439429513D
:10180000D29468D110E53000F912EFFC49798E8549
:10181000499884499864D2925300FA11EFFC69699F
:101820000E56C2244CC22493969C02FB13EFFC4933
:1018300062944361122661122699B4E41400FC13E9
:10184000EFFC295116E550988449988449262D3992
:1018500005FD13EFFC69690E56C2244C3269899369
:10186000301A2200FE11EFFCE97165D292300913A3
:101870002D49A63806FF15EFFC295116E55098842E
:10188000499864D212276134440000000004FFFF2D
:101890000000D238954311241FBECFEFD1E2DEBF46
:1018A000CDBF00E00CBF29E0AAEBB4E001C01D925F
:1018B000A33CB207E1F714E0A0E0B2E0ECE1F3E909
:1018C00000E00BBF02C007900D92AA3BB107D9F709
:1018D0001CE0CAE4DCE000E006C021970109802F8B
:1018E000FE010E943347C934D10780E00807A9F7F9
:1018F0000E942B3D0C947C490C940000662329F037
:101900006A3019F0862F90E008958FEF9FEF0895C9
:101910000F93CF93DF93DC01ED91FC915089362F2B
:101920003770E0E8F0E002C0F595E7953A95E2F708
:101930003E2FA52FB0E0FC01C0ADD1AD66956695F8
:101940006695E62FF0E0549FE00DF11D1124EC0F99
:10195000FD1FEC01C758DF4F011116C0888182308E
:1019600018F49081932B90838881813019F09081B5
:1019700093279083369511F4319630E8215071F712
:10198000DF91CF910F9108958881823018F4908172
:10199000932B90838881813019F0908193279083D5
:1019A000EA0FFB1F215081F7EBCF80E0089580E024
:1019B00008958A589F4FFC018081089590E080E04F
:1019C000089590E080E0089530E020E0DC01149676
:1019D0004C911497042E000C550B241735076CF40A
:1019E000A901440F551F1296ED91FC91E40FF51FCC
:1019F000118210822F5F3F4FE9CF08954F925F927F
:101A00006F927F928F929F92AF92BF92CF92DF920E
:101A1000EF92FF920F931F93CF93DF9300D01F920B
:101A2000CDB7DEB74B015C0129013A01E982FA82A8
:101A30000B831C83D092A209C092A10981E0CA94B1
:101A4000CD2809F080E08093BE09809287099092AA
:101A50008809A0928909B0928A0940928B09509214
:101A60008C0960928D0970928E0989819A81AB816F
:101A7000BC8180938F0990939009A0939109B093B2
:101A800092096091B1097091B2098091B309909166
:101A9000B4090E94B44320E030E04AE754E40E94D5
:101AA0005A456B017C018092930990929409A0920F
:101AB0009509B0929609AC019B01C301B2010E9445
:101AC00015442B013C01409297095092980960926D
:101AD000990970929A09A701960169817A818B818F
:101AE0009C810E945A456B017C01C0929B09D09257
:101AF0009C09E0929D09F0929E0980919F09909126
:101B0000A009019769F5A501940160E070E0CB019F
:101B10000E94ED4460939309709394098093950912
:101B200090939609A301920160E070E0CB010E94BE
:101B3000ED44609397097093980980939909909365
:101B40009A09A701960160E070E0CB010E94ED4484
:101B500060939B0970939C0980939D0990939E09C3
:101B60000F900F900F900F90DF91CF911F910F91D9
:101B7000FF90EF90DF90CF90BF90AF909F908F90AD
:101B80007F906F905F904F9008958150823108F060
:101B90005AC0E82FF0E08827EF52F24F8F4F0C9495
:101BA0003347F10DF50DE30DE90DED0D230EF80DA5
:101BB000FE0D020E080E0C0E100E160E1A0E230E3F
:101BC0001E0E240E280E809180008F778093800057
:101BD0000895809180008F7DF9CF80918000877F6C
:101BE000F5CF84B58F7784BD089584B58F7DFBCF05
:101BF0008091B0008F778093B00008958091B000FD
:101C00008F7DF9CF809190008F7780939000089519
:101C1000809190008F7DF9CF80919000877FF5CFE4
:101C20008091A0008F778093A00008958091A000FC
:101C30008F7DF9CF8091A000877FF5CF8091200123
:101C40008F77809320010895809120018F7DF9CFB7
:101C500080912001877FF5CFCF93DF93282F30E04D
:101C6000F901E953F44F8491F901EF57F44FD491FE
:101C7000F901E55CF44FC491CC23A1F081110E94DD
:101C8000C50DEC2FF0E0EE0FFF1FEF5DF44FA591B7
:101C9000B491EC91ED2381E090E009F480E0DF91D4
:101CA000CF91089580E090E0FACF1F93CF93DF9318
:101CB000282F30E0F901E953F44F8491F901EF57EF
:101CC000F44FD491F901E55CF44FC491CC23A9F011
:101CD000162F81110E94C50DEC2FF0E0EE0FFF1FB3
:101CE000E95FF44FA591B4918FB7F894EC9111117D
:101CF00008C0D095DE23DC938FBFDF91CF911F9179
:101D00000895DE2BF8CFCF93DF9390E0FC01EF57DF
:101D1000F44F2491855C944FFC0184918823C9F091
:101D200090E0880F991FFC01E351F54FA591B49104
:101D3000FC01E95FF44FC591D49161110DC09FB7CB
:101D4000F8948C91209582238C9388812823288372
:101D50009FBFDF91CF910895623051F49FB7F894FF
:101D60003C91822F809583238C93E8812E2BEFCF9B
:101D70008FB7F894EC912E2B2C938FBFEACF3FB7FF
:101D8000F89480917F0590918005A0918105B09194
:101D9000820526B5A89B05C02F3F19F00196A11D0D
:101DA000B11D3FBFBA2FA92F982F8827BC01CD01A5
:101DB000620F711D811D911D42E0660F771F881F04
:101DC000991F4A95D1F708958F929F92AF92BF9233
:101DD000CF92DF92EF92FF926B017C010E94BF0EC7
:101DE0004B015C01C114D104E104F104B9F00E947B
:101DF000BF0E681979098A099B09683E73408105FD
:101E0000910580F321E0C21AD108E108F10888EEBB
:101E1000880E83E0981EA11CB11CE4CFFF90EF90C8
:101E2000DF90CF90BF90AF909F908F9008952FB785
:101E3000F89460917B0570917C0580917D0590916F
:101E40007E052FBF08950F931F93CF93DF93EC016F
:101E50000E94170F688779878A879B87E881F981B5
:101E60000484F585E02DCE01199597FF15C00E94D9
:101E7000170F088519852A853B85601B710B820B1E
:101E8000930B0C811D812E813F81601771078207A2
:101E9000930720F38FEF9FEFDF91CF911F910F9169
:101EA0000895DC01ED91FC910190F081E02D1994F1
:101EB000AF92BF92CF92DF92EF92FF920F931F9358
:101EC000CF93DF936C017B018B01040F151FEB0196
:101ED0005E01AE18BF08C017D10759F06991D6014D
:101EE000ED91FC910190F081E02DC6011995892BAF
:101EF00079F7C501DF91CF911F910F91FF90EF907E
:101F0000DF90CF90BF90AF900895FC01538D448D2A
:101F1000252F30E0842F90E0821B930B541710F094
:101F2000CF96089501970895FC01918D828D9817A1
:101F300061F0A28DAE0FBF2FB11D5D968C91928D79
:101F40009F5F9F73928F90E008958FEF9FEF0895AA
:101F5000FC01918D828D981731F0828DE80FF11D73
:101F6000858D90E008958FEF9FEF0895FC01918D8E
:101F7000228D892F90E0805C9F4F821B91098F7387
:101F80009927089583E496E00E94B60F21E0892BFB
:101F900009F420E0822F0895FC01A48DA80FB92F29
:101FA000B11DA35ABF4F2C91848D90E001968F7381
:101FB0009927848FA689B7892C93A089B1898C91A0
:101FC000837080648C93938D848D981306C00288EF
:101FD000F389E02D80818F7D80830895EF92FF92B9
:101FE0000F931F93CF93DF93EC0181E0888F9B8D3C
:101FF0008C8D98131AC0E889F989808185FF15C0F6
:102000009FB7F894EE89FF896083E889F989808118
:102010008370806480839FBF81E090E0DF91CF91E7
:102020001F910F91FF90EF900895F62E0B8D10E009
:102030000F5F1F4F0F731127E02E8C8D8E110CC078
:102040000FB607FCFACFE889F989808185FFF5CFC3
:10205000CE010E94CC0FF1CFEB8DEC0FFD2FF11DC7
:10206000E35AFF4FF0829FB7F8940B8FEA89FB8900
:1020700080818062CFCFCF93DF93EC01888D88235E
:10208000B9F0AA89BB89E889F9898C9185FD03C0DB
:10209000808186FD0DC00FB607FCF7CF8C9185FFC0
:1020A000F2CF808185FFEDCFCE010E94CC0FE9CF2A
:1020B000DF91CF91089580E090E0892B29F00E9474
:1020C000C20F81110E94000080E090E0892B49F04E
:1020D00080E090E0892B29F00E94000081110E948D
:1020E000000080E090E0892B49F080E090E0892BAF
:1020F00029F00E94000081110E94000080E090E021
:10210000892B49F080E090E0892B29F00E940000A3
:1021100081110C9400000895FC01F894848195814C
:1021200020852230D1F49C0121703327358324830C
:10213000789420852430D1F4959587959595879549
:1021400026852223C1F021853285232F332797FF4F
:1021500015C0C901809590950895243021F49C0103
:1021600023703327E3CF15821482E2CF223041F768
:1021700095958795E5CF30E020E0E9CF009711F005
:10218000C901019608950895DC01ED91FC91008844
:10219000F189E02D1994DC01ED91FC910190F08121
:1021A000E02D1994FF920F931F93CF93DF938C012F
:1021B000EB01F42E642FDC0111968D919C910E940D
:1021C000C410DC011296ED91FC911397369625917F
:1021D00034912C233D23232B71F0ED91FC9102844B
:1021E000F385E02D2F2DA801BE01DF91CF911F9126
:1021F0000F91FF90199490E080E0DF91CF911F91B3
:102200000F91FF900895CF93DF93EC012F81AC8164
:10221000BD81D5E02D02A00DB11D112411968D9127
:102220009C911297EC01E881F9810088F189E02DF9
:102230006C91DF91CF9119940F93DC01ED91FC919A
:102240000488F589E02D01E021E030E041E061E023
:1022500070E0199580E00F910895CF93DF93CDB78B
:10226000DEB7DF91CF91089580E00895EF92FF925D
:102270000F931F93CF93DF93EC01142F7901E88123
:10228000F9810488F589E02D64E070E01995E88112
:10229000F9810190F081E02D60E2112331F060912D
:1022A0008605EF2811F060918505CE01DF91CF9171
:1022B0001F910F91FF90EF9019940895BF92CF92C4
:1022C000DF92EF92FF920F931F93CF93DF937C01E6
:1022D0008B01B42EFB01C42E440FDD08EF012196C3
:1022E000649161110EC0C01BD10B8C2F8150DF9106
:1022F000CF911F910F91FF90EF90DF90CF90BF9003
:102300000895BB2029F0E01BF10BEC15FD055CF7EF
:10231000D701ED91FC910190F081E02DC701199555
:10232000FE01DCCFCF93DF93CDB7DEB7DF91CF9146
:10233000089580E008950895DC011296ED91FC91D6
:102340003296859194918170089581E090E008958E
:10235000DC01CB01BA011296ED91FC911397259106
:102360003491AD01F9011994FC0186810895DC01D5
:102370001296ED91FC913296859194919695879560
:102380009695879581700895DC011296ED91FC91E8
:102390003296859194916823792381E0672B09F423
:1023A00080E00895DC011A96ED91FC9130E020E088
:1023B00019941F93CF93DF93EC01A881B981683101
:1023C00009F49BC038F4643109F489C0673149F0DD
:1023D00080E00EC0693109F4D4C06032C9F76AE404
:1023E00088C01C968C9180FD3FC0411105C081E0E2
:1023F000DF91CF911F910895F90181919F01415083
:10240000DFB7F894A0916205B0916305C0916105B2
:10241000E0915F05F091600570915E0560915D054A
:1024200081110EC08C918C238C9388E09081972B26
:1024300090839081962390838150C1F7DFBFD5CFE1
:1024400010915C0598E05C9187FF0CC0512B5C9368
:102450005081572B5083880F5081562350839150C1
:1024600091F7ECCF5C23F3CF442309F4C0CFF901FB
:1024700081919F014150DFB7F894A0916205B0911E
:102480006305C0916105E0915F05F0916005609181
:102490005E0570915D0581110EC08C918C238C932B
:1024A00088E09081972390839081962B9083815030
:1024B000C1F7DFBFD9CF10915C0598E05C9187FF31
:1024C0000CC0512B5C93508157235083880F50814F
:1024D000562B5083915091F7ECCF5C23F3CF11969C
:1024E0004C9169E40E94D211E881F98144854170E0
:1024F00060E4CE010E94D2117ACF4C9169E40E942F
:10250000D211A881B981EA85FB8530E020E01296DE
:102510004C916CE2CE0119958E8D90E0FC01E55C4A
:10252000F44FE491F0E0EE0FFF1FE95FF44F2591C7
:1025300034913093600520935F05FC01EF57F44F11
:10254000E491E0935E05E095E0935D058F8D90E06A
:10255000FC01E55CF44FE491F0E0EE0FFF1FE95F52
:10256000F44F259134913093630520936205FC016B
:10257000EF57F44FE491E0935C05E095E09361053B
:1025800036CFEA85FB8530E020E013964C916CE273
:102590001995E881F981418169E4ABCFDC0114969A
:1025A000ED91FC9130E020E040E060E11994DC0125
:1025B0001696ED91FC9130E020E040E069E119943D
:1025C000DC011696ED91FC9130E020E040E068E1FE
:1025D00019949A01DC011696ED91FC91462F67E162
:1025E0001994EF92FF920F931F93CF93DF931F9253
:1025F000CDB7DEB77C018B01D8016C91673129F131
:1026000050F46531A0F40F90DF91CF911F910F919D
:10261000FF90EF9008956A3118F16E3FA1F7F8012D
:102620004181498369E2C7010E94D2110BC0F801C0
:1026300041814983D7011696ED91FC9130E020E06D
:10264000C70119950E5F1F4FD7CFF801818189838C
:10265000AE014F5F5F4F61E0C7010E94E912F2CF08
:102660000F5F1F4FD7011696ED91FC9130E020E0EF
:1026700040E0C7011995C0CF462FDC011696ED91B9
:10268000FC9130E020E065E11994AF92BF92CF92C7
:10269000DF92EF92FF920F931F93CF93DF93EC01A2
:1026A000693089F483E392E0998388831C8A81E00E
:1026B000DF91CF911F910F91FF90EF90DF90CF901E
:1026C000BF90AF90089579016B3009F440C06F302E
:1026D00009F444C080E06A3059F7EA85FB8530E0B0
:1026E00020E040E068E2CE011995EE81FF8130E004
:1026F00020E040E064E1CE01199541E06BE4CE01B9
:102700000E94D211E881F981448169E2CE010E94E0
:10271000D21140E06BE4CE010E94D211E881F98130
:10272000448169E2CE010E94D21141E06BE4CE0106
:102730000E94D211E881F981458169E2CE010E94AF
:10274000D21160E272E0CE010E94F112B0CF69E1D5
:1027500072E04423C1F36EE072E0F5CFF901048129
:10276000000F000F000F13811695003210F0005279
:10277000185FCE010E94E012F701A080B1806EE3E5
:10278000CE010E943C136EE3CE010E943C13D12C7B
:102790001068602F6D0D6068CE010E943C13612FA0
:1027A000CE010E943C13F701C280A5016C2DCE0121
:1027B0000E94E912AC0CB11CD394F8E0DF12E9CF0F
:1027C000CE010E94D71273CF9A01DC011896ED91C9
:1027D000FC91462F67E11994CF93DF931F92CDB7F9
:1027E000DEB76983AE014F5F5F4F61E00E94E41383
:1027F0000F90DF91CF910895CF92DF92EF92FF92E9
:102800000F931F93CF93DF93EC01142F790166315F
:10281000C1F130F4643149F06531A9F080E040C085
:10282000673109F446C06A31C8F7E885F985970130
:10283000412FCE01DF91CF911F910F91FF90EF902B
:10284000DF90CF90199468EF0E94EC1341E06CE2A6
:10285000CE010E94D211612F607FCE010E94EC1345
:1028600041E06CE2CE010E94D211612F6295607F3F
:10287000CE010E94EC1341E06CE2CE010E94D21125
:102880000EC068EF0E94EC13612F607FCE010E94A2
:10289000EC13612F6295607FCE010E94EC1381E002
:1028A000DF91CF911F910F91FF90EF90DF90CF902C
:1028B00008956AEF0E94EC1341E06CE2CE010E94A1
:1028C000D211DE2CCF2C012F083008F5012F0695F0
:1028D00006950695D12E88EF089FD00C1124E8E0CC
:1028E0000E9F800111240E0D1F1DDD2021F2F80125
:1028F000F1908F016F2D607FCE010E94EC136F2D40
:102900006295607FCE010E94EC13DA94EECFA4E6CC
:10291000B5E0ED2DFC2D9F01285F3F4F8191982F51
:10292000907F9C938295807F11968C93119712963D
:10293000E217F30799F7DE2ECF2E085044E655E054
:1029400060E1CE010E94E413BFCF0F93DC01DE965D
:102950003C91DE97431BD496ED91FC9119950F9114
:102960000895CF93DF93FC01A081B18182AD982FB0
:10297000990F990F990F95AF50969C91509790325F
:1029800008F09FE1990F990F990F94AF23AD922F03
:10299000990F990F990F96AF51963C915197682FC7
:1029A000620F7727771F3617170614F4832F821BC1
:1029B00097AFEF01C05CDF4F880F880F880F890F3A
:1029C0008883219680EF888354968D919C915597AA
:1029D000813F910508F48883EE5BFF4F56968C91FA
:1029E0008083DF91CF9108950F93FC01EB5BFF4F44
:1029F000308131965081451730F4301738F0041784
:102A000028F080E013C03017D0F3FBCFFC01ED5B62
:102A1000FF4F30818C5B9F4FFC018081681740F431
:102A200081E0321718F081E0261758F70F910895CA
:102A30003217C8F3E6CF2F923F924F925F926F9278
:102A40007F928F929F92AF92BF92CF92DF92EF923E
:102A5000FF920F931F93CF93DF93EC014C0183E41C
:102A6000880E911CF4011082329720805E01F4E4FC
:102A7000AF0EB11CF50120823FAC6E01F5E4CF0E24
:102A8000D11CF6013082359740807E01F6E4EF0ECE
:102A9000F11CF701408234961081329760803196A4
:102AA000708032975080012F262D472D652DCE0145
:102AB0000E94F414CD58DF4F811114C01882DF91A9
:102AC000CF911F910F91FF90EF90DF90CF90BF902B
:102AD000AF909F908F907F906F905F904F903F90BE
:102AE0002F90089581E08883552011F0F4015082E1
:102AF000621410F4F5016082371410F4F60170824C
:102B00001415E8F6F7011083DACFFC01E758FF4F00
:102B1000633010F46083089581E0808308950F93FB
:102B2000DC01802FFD01ED58FF4F90819923E9F1E1
:102B30002223D9F1223020F0023079F56F5F621B39
:102B4000082F0170FD0180FD32C0EB5BFF4F8081DB
:102B5000481758F131968081481738F5329790819F
:102B600031978081260F2617F0F46917D8F42FEFDC
:102B7000290F8217D0F4681708F4682F291708F472
:102B8000922F961BD696ED91FC91D7970480F581F4
:102B9000E02D292FCD01199508C0033089F64F5F2C
:102BA000421BCECF682F691720F30F910895ED5B7C
:102BB000FF4F80816817C8F3319680816817A8F7A6
:102BC0003296908131978081240F241778F4491729
:102BD00060F42FEF290F821740F7481708F4482FA9
:102BE000291708F4922F941BCDCF482F4917E8F6E8
:102BF000F2CF9F92AF92BF92CF92DF92EF92FF926D
:102C00000F931F93CF93DF937B0198E0C92EC80EDB
:102C10000C2D2AE548E065E28CEC97E00E94F41464
:102C2000882391F1C8E0992493949C0E092D2AE5FC
:102C30004C2F65E28CEC97E00E94F4148823F1F0AD
:102C4000D09045085701D5E211E0F5018491812328
:102C500039F1D092450800E021E04C2F6D2F8CEC2B
:102C600097E00E948F15DF5F110F21F4FFEFAF1A7D
:102C7000BF0A11E0DA3549F7D092450887E0E80E3F
:102C8000F11CC92DC910CFCFDF91CF911F910F91AA
:102C9000FF90EF90DF90CF90BF90AF909F900895FE
:102CA000809144088111DFCF81E0D11080E08093D2
:102CB0004508D1CF213039F020F0223031F0840F97
:102CC0000895860F0895841B0895861B089521306A
:102CD00039F020F0223031F0861B0895840F0895DA
:102CE000860F0895841B08955F926F927F928F9252
:102CF0009F92AF92BF92CF92DF92EF92FF920F938B
:102D00001F93CF93DF935C01162F642EEC01C15B00
:102D1000DF4FDC80ED804C0189E7880E911CFE803E
:102D2000FD18C12EF11608F4CF2C5B800C85202FE6
:102D30004E2D6D2D8A810E945A16782E202F4E2DF1
:102D40006D2D852D0E946716482F662071F08A85AB
:102D5000F40180832C2D672DC5010E948F151F154E
:102D600048F01F19E394D12CDACF89858111F7CF70
:102D70008B85EECF1D0D1C83ED82DF91CF911F91CE
:102D80000F91FF90EF90DF90CF90BF90AF909F900A
:102D90008F907F906F905F900895DC0118964C9112
:102DA0001897ED91FC911197249130E0042E02C008
:102DB000359527950A94E2F7842F860F883068F0BE
:102DC00031961196FC93EE93E49198E0941B01C028
:102DD000EE0F9A95EAF72E2B885018968C938FEF6A
:102DE0009FEF01C0880F6A95EAF7809582230895C6
:102DF000FC01E60FF11D849190E0982F8827319611
:102E0000E4918E0F911D0895CF93DF93EC016BAF8A
:102E1000EEA9FFA90190F081E02D1995EEA9FFA977
:102E20000280F381E02DCE01DF91CF911994AF9212
:102E3000BF92CF92DF92EF92FF920F931F93CF93A7
:102E4000DF9300D01F921F92CDB7DEB78C01DC015B
:102E5000DA96AC90DA97DB96EC90DB97ED91FC91EB
:102E6000B188FE2CD12CC12CD801ED91FC91119789
:102E70008089D8962D913C911C82FD828B83B8E08D
:102E80008B9FC00111248C9DA0018D9D500D9C9D98
:102E9000500D1124240F351F3A832983D80114962D
:102EA000ED91FC919E012F5F3F4F41E06FE0C80123
:102EB0001995F3948F2D8E198A1528F4BFEFCB1A2C
:102EC000DB0AFB1488F20F900F900F900F900F9079
:102ED000DF91CF911F910F91FF90EF90DF90CF90F6
:102EE000BF90AF9008958CEC97E00E9417178CEC80
:102EF00097E00C94CE12CF92DF92EF92FF920F9355
:102F00001F93CF93DF937C01162FC42FC22ED02F97
:102F1000D62ED20E042F0D0F2D2D0E94F4148823CF
:102F200019F100E02C2D4C2F612FC7010E948F1545
:102F3000D230D0F0D250CF5FDD2379F001E02D2FD9
:102F40004C2F612FC7010E948F156FEF6D0D2D2F34
:102F50004C2FC7010E948F15CD0F00E02C2D4C2F58
:102F6000612FC7010E948F15DF91CF911F910F91A3
:102F7000FF90EF90DF90CF900895DF92EF92FF9255
:102F80000F931F93CF93DF937C01162FC42FD22E64
:102F9000D42FD00F262F2D0D0D2F0E94F414811148
:102FA00010C0DF91CF911F910F91FF90EF90DF90B4
:102FB000089500E02D2D4C2F612FC7010E948F1521
:102FC000CF5FDC13F6CFEDCF0F931F93CF93DF933B
:102FD0008C01C62F642FCC32E8F4CA3208F041C00D
:102FE000C83271F1C93209F442C080E0C034D0F176
:102FF000CF73F801EC0FF11D868D8F3F91F1C03139
:10300000E0F00E942C0E21E0892B09F420E0F80169
:10301000218F27C0CD3289F140F384EB8C0F8230B1
:1030200020F7CF73C00FD12FD11D8E8D411133C02A
:1030300061E00E94830E60E08E8D0E94550E11C0EB
:10304000025E1F4FD0E0F80181918F018F3F31F078
:1030500061E0D03108F062E00E94830EDF5FD6317C
:1030600091F781E0DF91CF911F910F91089570E06A
:1030700090E080E00E94E40EF4CF85E090E04330E1
:1030800010F082E090E0880F991F880F991F059734
:103090000197F1F7E6CF62E00E94830EE2CF209124
:1030A0001205260F3327331F21323105ECF420910E
:1030B0003605FC0190E080E0243069F082E008955C
:1030C000A09112052191AC014E505B4FA40FB52F7A
:1030D000B11D2C930196861798F380911205680F05
:1030E0006093120580E0089581E0089508958FEFC0
:1030F0009FEF08958FEF9FEF08958091EB0490E08C
:103100009195819591090895CF93DF93CB01EA01C1
:10311000642F0E944F18CE01DF91CF910895CF9375
:10312000DF931F92CDB7DEB7698361E0CE010196D0
:103130000E944F1881E090E00F90DF91CF910895A9
:10314000CF93DF93EC01862F6FA761E00E94830E7F
:103150006EA581E068278FA5DF91CF910C94550E65
:10316000CF93DF93FC012781222359F1EC0161E029
:1031700080850E94830E61E089850E94830E8F8185
:10318000843011F08830B1F461E08A850E94830EAA
:1031900061E08B850E94830E8FA58F3F91F061E0E7
:1031A0000E94830E6EA581E068278FA5DF91CF91E5
:1031B0000C94550E833011F0863071F761E08A85EA
:1031C000E9CFDF91CF910895CF93DF93FC01278161
:1031D0002223A9F0EC010190F081E02D0284F38517
:1031E000E02D60E019958FA58F3F49F061E00E94C6
:1031F000830E6EA58FA5DF91CF910C94550EDF91B4
:10320000CF910895DC01ED91FC91119722853385D2
:103210004770552766277727415051096109710981
:10322000473051056105710570F4FA018827E45EA5
:10323000F64E8F4F0C943347271929192B192D1946
:103240002F193119331961E0CD01F901199465E0A5
:10325000FBCF64E0F9CF66E0F7CF62E0F5CF6AE03C
:10326000F3CF68E0F1CF69E0EFCFCF93DF93EC01CC
:10327000CB01BA0126E030E040E050E00E94144764
:10328000623071058105910589F16CF46115710554
:1032900081059105D1F06130710581059105F9F045
:1032A000DF91CF910895643071058105910561F139
:1032B00024F1653071058105910591F7E881F98167
:1032C0000284F385E02D66E006C0E881F98102847E
:1032D000F385E02D64E0CE01DF91CF911994E88170
:1032E000F9810284F385E02D65E0F5CFE881F9816D
:1032F0000284F385E02D61E0EECFE881F98102845C
:10330000F385E02D63E0E7CFE881F9810284F3855E
:10331000E02D62E0E0CFDC01ED91FC910284F385C9
:10332000E02D437055276627772742305105610508
:10333000710571F0433051056105710559F0413057
:1033400051056105710511F065E0199466E0FDCF46
:103350006AE0FBCF69E0F9CFCF93DF93EC01CB01BB
:10336000BA0123E030E040E050E00E9414476130B1
:1033700071058105910599F062307105810591050E
:10338000A9F0672B682B692BC1F4E881F9810284CD
:10339000F385E02D64E0CE01DF91CF911994E881AF
:1033A000F9810284F385E02D61E0F5CFE881F981B0
:1033B0000284F385E02D62E0EECFDF91CF91089596
:1033C000DC01ED91FC910284F385E02D43705527DB
:1033D00066277727423051056105710571F043304A
:1033E00051056105710559F04130510561057105BF
:1033F00011F062E0199463E0FDCF61E0FBCF60E083
:10340000F9CFCF93DF93EC01E881F9810284F38552
:10341000E02D8A8160E0811162E0CE011995E8819A
:10342000F9810284F385E02D8A8161E0811163E0F6
:10343000CE0119958CA59DA58230910538F0880F95
:10344000991F880F991F05970197F1F7E881F98176
:103450000284F385E02D8A8160E0811162E0CE0173
:10346000DF91CF911994CF93DF93EC0120E030E00E
:10347000A901688D798D8A8D9B8D0E940246181650
:103480002CF4E8A9F9A9DF91CF911994EAA9FBA935
:10349000FACFCF92DF92EF92FF920F931F93CF93C9
:1034A000DF93DC011796CC91C43039F0C83059F164
:1034B000C33019F0C63049F1C2E08C01085F1F4FDC
:1034C000F12CE12CC62ED12CD1E0F8016481C6018B
:1034D0000E2C02C0959587950A94E2F780FD6D2722
:1034E0000F5F1F4F80810E94550EBFEFEB1AFB0A42
:1034F000EC1658F3DF91CF911F910F91FF90EF9051
:10350000DF90CF900895C4E0D8CFC3E0D6CFDC01E0
:103510001796EC911797E93008F042C0F0E0882741
:10352000EB56F54E8F4F0C9433479E1AA61AAD1AE0
:10353000B41ABB1AD01AC21AD01AC91AED91FC914A
:1035400011970684F785E02DCD011994ED91FC913A
:1035500011970088F189E02DF7CFED91FC9111973B
:103560000288F389E02DF0CFED91FC91119704884A
:10357000F589E02DE9CFED91FC9111970688F78947
:10358000E02DE2CFED91FC911197008CF18DE02DB3
:10359000DBCFED91FC911197028CF38DE02DD4CF10
:1035A00008954F925F926F927F92AF92BF92CF92A7
:1035B000DF92EF92FF920F931F93CF93DF93EC0173
:1035C0005A018B019A01AB01688D798D8A8D9B8D93
:1035D0000E94AF43882379F14C8C5D8C6E8C7F8C7C
:1035E00073016201F7FAF094F7F8F094A7019601DD
:1035F000B501C8010E94AF4387FD0CC0A301920131
:10360000B501C8010E94024673016201181614F048
:103610006501780120E030E0A901C701B6010E94F0
:10362000AF43811117C01B821C821D821E82C88E6F
:10363000D98EEA8EFB8EDF91CF911F910F91FF9073
:10364000EF90DF90CF90BF90AF907F906F905F90A2
:103650004F900895A701960160E074E284E799E431
:103660000E945A459F770E94D3456B837C838D834C
:103670009E8311E020E030E0A901C701B6010E945D
:10368000024618160CF010E01A83D1CF4F925F92C9
:103690006F927F928F929F92AF92BF92CF92DF9262
:1036A000EF92FF920F931F93CF93DF93EC01CC889F
:1036B000DD88EE88FF8888899989AA89BB89C81A1C
:1036C000D90AEA0AFB0A688D798D8A8D9B8D9B0148
:1036D000AC010E9415444B015C0168A179A18AA14B
:1036E0009BA19B01AC010E94EE449B01AC01C50172
:1036F000B4010E945A450E94CC45C114D104E10492
:10370000F10409F0B6C062307105810591050CF035
:10371000D0C01B821C821D821E82188E198E1A8EAA
:103720001B8E1CAA1DAA1EAA1FAAC12CD12C760171
:10373000C701B601DF91CF911F910F91FF90EF90DC
:10374000DF90CF90BF90AF909F908F907F906F90C1
:103750005F904F9008951016110612061306B4F4E8
:103760006C157D058E059F051CF42A812111A1C0D1
:103770009B01AC0188279927DC01821B930BA40BCA
:10378000B50B8CAB9DABAEABBFAB93C001151105B8
:103790002105310509F48DC06C157D058E059F0549
:1037A0000CF087C08A81882309F483C03095209566
:1037B000109501951F4F2F4F3F4F0CAB1DAB2EABFC
:1037C0003FAB77C0011511052105310509F471C022
:1037D0008824992454018C189D08AE08BF086815E8
:1037E00079058A059B050CF064C08A81811161C04E
:1037F000DDCFCCACDDACEEACFFACA7019601C701D0
:10380000B6010E94EE442B013C01C501B4010E94A7
:10381000B64320E030E040E850E40E94154420E048
:1038200030E040E85FE30E94EE449B01AC01C3013D
:10383000B2010E945A459B01AC01C701B6010E942A
:10384000ED443B016C01FE01E05CFF4FE080F18044
:10385000028113819701A8010E940246181614F4F0
:1038600073018601C701D8018CAF9DAFAEAFBFAF6A
:103870003AC00CA91DA92EA93FA91C141D041E04A1
:103880001F040CF468CF10161106120613060CF074
:1038900099CF0027112798010C191D092E093F09FE
:1038A00060177107820793070CF062CF2A812111FC
:1038B0005FCF8CA89DA8AEA8BFA881149104A104D5
:1038C000B10409F096CF88AD99ADAAADBBAD8CAF70
:1038D0009DAFAEAFBFAF81E01C141D041E041F04DA
:1038E0000CF080E08A833FEF831A930AA30AB30A9D
:1038F0008CAA9DAAAEAABFAA8CAC9DACAEACBFAC44
:10390000C501B4010E94D3456B017C01CB82DC82EE
:10391000ED82FE82A501940160E074E284E799E4FF
:103920000E945A45688F798F8A8F9B8F2A81211137
:10393000FFCE9058688F798F8A8F9B8FF9CECF9268
:10394000DF92EF92FF920F931F93CF93DF93EC01DF
:103950006A017B0120E030E0A901CB01B6010E94A1
:10396000AF4387FF04C0F7FAF094F7F8F094A7018B
:1039700096016C8D7D8D8E8D9F8D0E94AF43882327
:1039800009F446C0CC8EDD8EEE8EFF8E8E01005C7B
:103990001F4FA701960160E074E284E799E40E945A
:1039A0005A45F80160837183828393838CA99DA912
:1039B000AEA9BFA9181619061A061B064CF5688D84
:1039C000798D8A8D9B8D9B01AC010E9415446B0102
:1039D0007C0168A179A18AA19BA19B01AC010E94F5
:1039E000EE449B01AC01C701B6010E945A450E94FA
:1039F000CC456CAB7DAB8EAB9FABCE01DF91CF9155
:103A00001F910F91FF90EF90DF90CF900C94461B89
:103A1000DF91CF911F910F91FF90EF90DF90CF90AA
:103A200008950895DC011D96ED91FC9180819181AE
:103A3000DC01ED91FC910684F785E02D1994CF937C
:103A4000DF93EC01ED85FE8580819181DC01ED91B4
:103A5000FC910084F185E02D1995892B69F0ED85A5
:103A6000FE8580819181DC01ED91FC910484F585D6
:103A7000E02DDF91CF9119948FEF9FEFDF91CF91E0
:103A80000895CF93DF93EC01ED85FE8580819181D0
:103A9000DC01ED91FC910084F185E02D1995892BD5
:103AA000D9F0ED85FE8580819181DC01ED91FC915D
:103AB0000284F385E02D19952091020230910302D2
:103AC0002817390761F02FEF3FEF3093030220935F
:103AD0000202DF91CF9108958FEF9FEFEDCF8FEF2F
:103AE0009FEFF7CFDC011D96ED91FC9180819181D4
:103AF000DC01ED91FC910084F185E02D1994DC014D
:103B00001D96ED91FC9180819181DC01ED91FC91FC
:103B10000680F781E02D199490E080E00895CF931E
:103B2000DF93DC0116968C911697811111C01296C5
:103B3000ED91FC9113973C96C591D49181E0189634
:103B40004D915C91288139814217530709F480E037
:103B5000DF91CF910895CF93DF93DC0116961C92ED
:103B600016971296ED91FC9113973C96C591D491BE
:103B70008881998119969C938E931897DF91CF91A4
:103B8000089564EF71E080E090E00E94E40E90E020
:103B900080E0089564EF71E080E090E00E94E40E20
:103BA00090E080E0089564EF71E080E090E00E9492
:103BB000E40E90E080E0089564EF71E080E090E032
:103BC0000E94E40E90E080E00895CF92DF92EF92A1
:103BD000FF920F931F93CF93DF930E94170F6B01F8
:103BE0007C018091C707882399F08091C20790914A
:103BF000C30702979093C3078093C2078091C207BF
:103C00009091C30797FF04C01092C3071092C20798
:103C10008091B9070E942C0E2091BC07C3E02817A1
:103C2000190609F0C0E08091BA070E942C0E20917D
:103C3000BC072817190611F481E0C8278091BF0737
:103C40009091C0078C1B80FFA4C00C2E000CDD0BD4
:103C5000D093C007C093BF072091BD073091BE0726
:103C60008270082E000C990B0197820F931F90937E
:103C7000BE078093BD0781E09091C707992391F01B
:103C8000882381F08091C2079091C307883E9B40B2
:103C900048F48091C2079091C30749969093C30757
:103CA0008093C2078091BB07882309F469C04091C3
:103CB000E7045091E8046091E9047091EA049701E7
:103CC0008601041B150B260B370BB901A8014A30DE
:103CD00051056105710508F453C0C092E704D09204
:103CE000E804E092E904F092EA040E942C0E20918C
:103CF000BC072817190691F48091E5049091E60419
:103D000001969093E6048093E5048937910530F09D
:103D100083E090E09093C5078093C4078091BB0730
:103D20000E942C0E2091BC0731E02327281719068A
:103D3000C1F48091E5049091E604892B71F08091A3
:103D4000C4079091C507039731F584E090E0909304
:103D5000C5078093C4071092E4041092E604109201
:103D6000E5048091E404882359F082508093E404B0
:103D7000811106C085E090E09093C5078093C40749
:103D8000DF91CF911F910F91FF90EF90DF90CF9037
:103D9000089580E071CF8091E404823028F08C3364
:103DA000E0F686E090E0D3CF8091C607811104C091
:103DB00081E08093E404D1CF8CE3FBCFDC011D963E
:103DC0008D919C91DC01ED91FC910190F081E02DB1
:103DD000199470E0FC01718B608B81E090E0089594
:103DE000CF93DF93EC01E881F9810484F585E02D20
:103DF00019951D8A1C8AE0918705F0918805238515
:103E00002817190661F44F8528893989240F311D37
:103E100047FD3A95398B288BDF91CF910895268500
:103E200028171906C9F74F8528893989241B3109B4
:103E300047FD3395EFCFDC01ED91FC910484F585CE
:103E4000E02D199521E030E0019611F430E020E0FA
:103E5000C9010895CF93DF93EC018D859E850E9463
:103E60008C102A893B89820F931F9B8B8A8B8C89AC
:103E70009D89892B69F4ED85FE858385948523854D
:103E800034852330310511F0148613869D8B8C8B7D
:103E9000DF91CF910895CF93DF93EC011D8A1C8AA7
:103EA0000E942A1F8A899B89998B888BDF91CF91E9
:103EB0000895CF93DF93EC010E942A1F8C899D897E
:103EC0008530910549F4E0918705F091880580855A
:103ED00090E0DF91CF910895069731F4E091870546
:103EE000F09188058581F4CF1D8A1C8A2A893B8937
:103EF00088899989281B390B8F85082E000C990B0E
:103F000044275527481B590B4217530734F0E091BB
:103F10008705F09188058685DBCF2817390734F0AF
:103F2000E0918705F09188058385D2CF8FEF9FEFD1
:103F3000D0CFEF92FF920F931F93CF93DF938C011B
:103F40007B01D0E0C0E0F701EC0FFD1F6491662318
:103F500061F0D801ED91FC910190F081E02DC80154
:103F60001995892B11F02196EECF8C2FDF91CF91EF
:103F70001F910F91FF90EF9008950F93CF93DF93D0
:103F8000EC01E881F9810288F389E02D20E040E02E
:103F900060E01995E881F9810488F589E02D00E059
:103FA00021E030E040E061E070E0CE0119958E81C3
:103FB0009F81DF91CF910F910C94E40C0F93CF93DD
:103FC000DF93EC01AB89BC89ED89FE8950E0C5E047
:103FD000C69FC001C79F900D11242130310519F4EF
:103FE000400F511D0296480F591FE40FF51F6491B1
:103FF000CD010496DF91CF910F910C948515DC01D2
:1040000053968D919C91DC01ED91FC910190F08192
:10401000E02D19940895DC011296ED91FC913A96E9
:1040200084910895DC011296ED91FC913B96859167
:104030009491E62FEE0FFF0BE80FF91F85919491F5
:10404000089590E080E00895FC011682089580E0D4
:104050000895CF92DF92EF92FF920F931F93CF9329
:10406000DF936C01EB017B01E40EF51E10E000E034
:10407000CE15DF0561F06991D601ED91FC910190BB
:10408000F081E02DC6011995080F191FF1CFC80165
:10409000DF91CF911F910F91FF90EF90DF90CF9024
:1040A00008952F923F924F925F926F927F928F92DC
:1040B0009F92AF92BF92CF92DF92EF92FF920F93B7
:1040C0001F93CF93DF9300D000D0CDB7DEB77C0134
:1040D0006C0124E0C20ED11CFC01E158FF4F01909D
:1040E000F081E02DC60119958C018E3F9F4F08F09D
:1040F0005BC0370182E8680E711CF301F081FB831D
:10410000470121E8820E911CF401F081FD839701A3
:10411000215A3F4F3A832983F9018081813009F484
:104120006AC008F45CC0823009F471C0833009F4BD
:104130007AC0F701EB5AFF4F2D81208331963B81E6
:10414000308337978081918147969C838B830F3F83
:10415000110511F008F015C1B4960136110530F4BF
:104160000134110558F0F701EF58FF4F808191811C
:104170002B813C81280F391F3C832B838B819C81B1
:104180000196FC01249121115AC0412CE981FA8148
:104190008081813009F492C108F48BC1823009F426
:1041A0008FC1833009F491C181E090E026960FB66B
:1041B000F894DEBF0FBECDBFDF91CF911F910F915D
:1041C000FF90EF90DF90CF90BF90AF909F908F9037
:1041D0007F906F905F904F903F902F900895F701E0
:1041E000EF5AFF4F0190F081E02DC6011995FB8138
:1041F000F80FFB839ECFF701EF5AFF4F0190F0813C
:10420000E02DC60119952D81281B2D8392CFF70132
:10421000EF5AFF4F0190F081E02DC60119953B81C7
:10422000381B3B8386CFF701EF5AFF4F0190F08197
:10423000E02DC60119959D81980F9D837ACFEB8162
:10424000FC8124912017110609F094C0CF01029639
:10425000009709F49ACFF701ED5AFF4FFE83ED83E3
:10426000918380831086719660818D819E810E94EA
:10427000CD16ED81FE818683F701EB59FF4F6081FA
:104280008D819E810E94CD16582EED81FE818783FF
:10429000970123583F4F3C832B83F9019081ED8197
:1042A000FE81928781E0911180E0ED81FE8183871C
:1042B000F701EA59FF4FB0806B2D8D819E810E94DE
:1042C000CD16382EF701E959FF4F2080622D8D81E0
:1042D0009E810E94CD16182FF701E859FF4F0081EB
:1042E000602F8D819E810E94CD16015021E030E02B
:1042F000A90101C0440F0A95EAF7482E441AED813E
:10430000FE81068110160CF041CFBA94C90101C09C
:10431000880FBA94EAF7381AB484150D2A9401C0AC
:10432000220F2A94EAF7A22EA11A2B2D4A2D632DD3
:1043300082810E945A16182FED81FE8182832B2DD7
:104340004A2D632D83810E946716ED81FE81838350
:10435000F1E0BF1609F493C0BF1608F450C022E084
:10436000B21609F492C033E0B31609F499C0082FCD
:10437000212F49C0FC0184912B813C81280F311DE4
:10438000FBCEF701EB58FF4F80819181EB81FC81DF
:10439000E80FF91FFC83EB835F0160E0C5010E9419
:1043A000F8162B813C81280F391F3C832B8362E058
:1043B000C5010E94F81634E0A30EB11C80179107C6
:1043C00060F3EB81FC81849190E0982F88273196EF
:1043D000E4918E2B009709F4D8CE0817190721F421
:1043E0008B819C81039634CFEB81FC813296E491E2
:1043F0002B813C812E0F311D3C832B83E2CF202F5C
:10440000210F082F050D482F612FC6010E94F414BB
:10441000882309F4BBCEED81FE81148215825701F9
:10442000F2E6AF0EB11C23E6E20EF11CF50160814D
:104430008D819E810E94CD16082FF70160818D81AC
:104440009E810E94CD16182F40E0602FC6010E9469
:10445000741641E0612FC6010E94741661E08D81DF
:104460009E810E94CD168111EFCFED81FE81858165
:104470008515E4F28285EB81FC81808387CEB518B7
:1044800021E0210F080F1B0DBECF91E0392F301B0B
:1044900021E0210F951901E0080F890F130FB3CF09
:1044A000212F250D982F901B01E0080F81E0890F27
:1044B000AACFF4018081480E408276CEF301FACF74
:1044C000F4018081841980836FCEF301FACF90E0EC
:1044D00080E00895CF92DF92EF92FF920F931F93A7
:1044E000CF93DF938C01EB01DC01CD90DC90F12CBC
:1044F000E12CF60180819181E816F906ACF4C70140
:10450000880F991F0280F381E02DE80FF91F859134
:104510009491DC01ED91FC910684F785E02D1995CD
:10452000BFEFEB1AFB0AE5CFF801D587C48781E01E
:10453000818797810480F581E02D25E09202E00DCE
:10454000F11D11240180F281E02D8683209759F11D
:10455000D801ED90FC9010E000E0F701808191819E
:104560000817190704F50280F381E02DC801880FB0
:10457000991FE80FF91FC590D49070E060E0C60164
:10458000FE011995892B79F4D60118968C9180FF3C
:1045900003C00F5F1F4FE1CF61E070E0C601FE0175
:1045A00019950197B1F7DF91CF911F910F91FF906E
:1045B000EF90DF90CF900895CF93DF93EC018E853D
:1045C0009F8521E0DC0116962C930E949C119F810F
:1045D000EC81FD81882309F440C0992379F1915041
:1045E0009F839F0145E09402200D311D1124C901D4
:1045F000D9014C9164E070E00E94D2108F81EC816F
:10460000FD81B5E08B02E00DF11D11240180F281E6
:10461000E02D81E08683FF87EE870280F381E02D25
:1046200032968591949184FF03C0CE010E94DC22D2
:1046300061E070E08FEFDF91CF9108958989882341
:10464000E9F2408164E070E0CF010E94D2106A85F7
:104650007B85CE010E946A22D1CF9F0145E0940262
:10466000200D311D1124C901D9014C9164E070E085
:104670000E94D2108A819B81DC01ED91FC9106841D
:10468000F785E02D60E01995B9CF0F931F93CF9375
:10469000DF93EC018B012330310509F463C0F0F4A2
:1046A0002130310511F12230310509F18E81882345
:1046B00009F46AC0D8011396ED91FC91828960E0FB
:1046C00071E0811102C062E070E0F8014081C80130
:1046D000DF91CF911F910F910C94D21024303105AE
:1046E00009F44AC02730310509F781E08F838F81B3
:1046F000882321F11F8281E08E83E881F98102887D
:10470000F389E02DCE011995D8011396ED91FC9116
:10471000828960E071E0811102C062E070E0F8011E
:104720004081C8010E94D210D80113968D919C91AE
:10473000DF91CF911F910F910C94DC22D801139639
:10474000ED91FC9180898111D5CFE881F9810088B4
:10475000F189E02DCE011995882361F281E08F83E4
:104760008E83A4CFE881F9810488F589E02D61E08A
:1047700070E0CE0119959ACFE881F9810488F58916
:10478000E02D6FEF7FEFF5CFDF91CF911F910F916C
:104790000895DF92EF92FF920F931F93CF93DF93D1
:1047A000EC010E940311DC0114968D919C91892BE0
:1047B00009F4B4C0CE010E9403118C01DC01ED911B
:1047C000FC91E084F184CE010E9403112F814C8181
:1047D0005D81B5E02B02400D511D11249C0161E06B
:1047E00070E0C801F7011995892B09F097C0CE0137
:1047F0000E9403117C01DC011296ED91FC9132962E
:1048000005911491027011270E949C11D82E2F81BE
:104810008C819D81B5E02B02800D911D1124FC013E
:10482000408162E070E00E94D210009709F066C0FB
:10483000DD2009F476C0012B61F402E010E0B8013C
:104840008FEFDF91CF911F910F91FF90EF90DF904D
:1048500008958F819E818917BCF5EC81FD8135E03B
:104860008302E00DF11D11240180F281E02D11E0A1
:104870001683CE010E940311DC019F819F5F9F83FD
:10488000EC81FD8185E09802E00DF11D1124B283D9
:10489000A183108216961C93D701ED91FC9100859F
:1048A0001185CE010E9403112F814C815D81B5E0FD
:1048B0002B02400D511D11249C0162E070E0C701E4
:1048C000F801199502E006C06BE876E2CE010E947D
:1048D0006A2200E010E0FF86EE8681E0D70116969E
:1048E0008C93D110ACCF8A819B81DC01ED91FC913E
:1048F0000684F785E02D61E01995A1CF019751F469
:10490000CE010E9403110E949C11811103C0CE01AF
:104910000E94DC22012B09F490CFD4CF60E070E03C
:104920008FCF012B09F489CFFF86EE8681E0F70156
:10493000868302E010E0D7CFDF92EF92FF920F93D1
:104940001F93CF93DF93EB01790108812330310569
:1049500009F47AC080F42130310509F4B9C022305D
:10496000310509F4C0C0DF91CF911F910F91FF90E5
:10497000EF90DF9008952430310509F483C0C90118
:104980000797029780F7142F47FDEDCF89819A8111
:104990000E94CB1018173CF789819A81DC0112968E
:1049A000ED91FC913296259134912C703327232B75
:1049B00009F4A4C021E0FC01268349815A81DA016F
:1049C00012968D919C91FC0136962591349127FF8A
:1049D00008C0FC0125913491BE0180E890E0F90106
:1049E0001995402F60E270E0CE010E94D21018832A
:1049F000F7E0EF1AF10882E0E816F10420F48B8169
:104A00009C810E94C923412F60E170E0CE010E9489
:104A1000D21049815A81DA0112968D919C91FC0144
:104A200036962591349126FF9ECFFC012591349135
:104A3000BE0180E490E0F901DF91CF911F910F91C9
:104A4000FF90EF90DF90199489819A810E94CB109A
:104A5000882309F488CF11E0100F89819A810E9480
:104A6000CB10181764F089819A81DC011296ED91C0
:104A7000FC9138962591349120FF25C010E0011358
:104A80008BCF71CF89819A81011109C0DC01129607
:104A9000ED91FC9132962591349124FD19C00E942C
:104AA000CB10882309F45FCF1FEF100F17FFE7CF5C
:104AB00089819A81DC011296ED91FC9138962591BD
:104AC000349120FFDBCF0E94CB101FEF180FD7CF00
:104AD0008B819C81DF91CF911F910F91FF90EF907F
:104AE000DF900C94DC228B819C81DF91CF911F9110
:104AF0000F91FF90EF90DF900C94C923602F0E94DC
:104B0000C410DD24D394DC011696DC92612F8981D8
:104B10009A810E94C410FC01D6824FCFFB01019004
:104B20000020E9F73197AF01461B570BDC01ED91EF
:104B3000FC910280F381E02D199467E673E00C94F8
:104B40008E251F93CF93DF93EC01142F8F8587FD64
:104B500005C0841719F0CE010E949D251F87DF91A3
:104B6000CF911F9108952FEFFC01278785859685AA
:104B70000C949D250F931F93CF93DF938C01C62F29
:104B80000E949D25D8011696ED91FC91CC0FDD0B6E
:104B90000280F381E02DEC0FFD1F11821082DF9166
:104BA000CF911F910F910895CF93DF93EC010E9455
:104BB0009D258E819F81DF91CF910C94E40C61152E
:104BC000710511F00C948E2590E080E00895CF934C
:104BD000DF93BC0183E496E00E94DF25EC0183E4CF
:104BE00096E00E949D258C0F9D1FDF91CF91089527
:104BF0008F929F92AF92BF92EF92FF920F931F936B
:104C0000CF93DF93CDB7DEB7A1970FB6F894DEBF91
:104C10000FBECDBF7C01FA01CB0119A2223008F4EE
:104C20002AE08E010F5D1F4F822E912CB12CA12CFA
:104C3000BF01A50194010E94F246F901CA016A3040
:104C4000ECF4605DD8016E938D01232B242B252B72
:104C500079F7BD01C7010E94DF25A1960FB6F89430
:104C6000DEBF0FBECDBFDF91CF911F910F91FF909F
:104C7000EF90BF90AF909F908F900895695CE2CFC6
:104C8000CF92DF92EF92FF920F931F93CF93DF9318
:104C90008B01FC01C084D1840D2C000CEE08FF08B0
:104CA000F7FE1BC06DE2C8010E94510FEC014427C2
:104CB0005527BA014C195D096E097F092AE0C80120
:104CC0000E94F8258C0F9D1FDF91CF911F910F91AE
:104CD000FF90EF90DF90CF9008952AE0B701A601F2
:104CE000C8010E94F825F0CF0C94DF2561307105D2
:104CF00061F030F06230710559F090E080E0089585
:104D00006AE673E00E947426F8CF6BE773E0FACF8F
:104D100068E873E0F7CF67E973E00E94742690E0DB
:104D200080E00895CF92DF92EF92FF926C0163EDE5
:104D300073E083E496E00E9474260D2C000CEE08CC
:104D4000FF082AE0B701A601F7FE0DC06DE283E47B
:104D500096E00E94510F44275527BA014C195D096E
:104D60006E097F092AE083E496E00E94F82583E437
:104D700096E00E949D2590E080E0FF90EF90DF900C
:104D8000CF9008950F936DED73E0002311F06BED5C
:104D900073E00E94DF2581E00F9108950F9361EE8B
:104DA00073E0002311F06FED73E00E94DF2581E0D6
:104DB0000F9108954F925F926F927F928F929F9280
:104DC000AF92BF92CF92DF92EF92FF920F931F9319
:104DD000CF936B017C01742EAC019B010E949D4618
:104DE00063EE73E0811126C046015701E894B7F8DD
:104DF0002FEF3FEF4FE75FE7C501B4010E949D46EB
:104E000081110CC02FEF3FEF4FE75FE7C501B40101
:104E10000E94AF4367EE73E0181664F02FEF3FEF88
:104E20004FE75FE4C701B6010E9402461816ACF4D2
:104E30006BEE73E083E496E0CF911F910F91FF90AA
:104E4000EF90DF90CF90BF90AF909F908F907F902A
:104E50006F905F904F900C948E252FEF3FEF4FE7B0
:104E60005FECC701B6010E94AF4387FDE1CF20E0B0
:104E700030E0A901C701B6010E94AF4310E000E095
:104E800087FF0AC06DE283E496E00E94510F8C0117
:104E9000F7FAF094F7F8F094C0E060E070E080E09A
:104EA0009FE37C1641F020E030E040E251E40E94B4
:104EB0005A45CF5FF6CFA70196010E94EE442B0121
:104EC0003C010E94D3454B015C012AE0BC01A401D6
:104ED00083E496E00E94F8257C01E00EF11ECC23CD
:104EE000D1F1C501B4010E94B4439B01AC01C301DF
:104EF000B2010E94ED444B015C016EE283E496E056
:104F00000E94510FE80EF91EC15028F120E030E058
:104F100040E251E4C501B4010E9415442B013C015B
:104F20000E94D3454B01B12CA12C2AE0B501A4016C
:104F300083E496E00E94F825E80EF91EC501B4014D
:104F40000E94B4439B01AC01C301B2010E94ED4435
:104F50004B015C01D9CFC701CF911F910F91FF90F9
:104F6000EF90DF90CF90BF90AF909F908F907F9009
:104F70006F905F904F9008950C94EB470E945549B5
:104F8000CF93DF93C62FDC011396ED91FC91828DB8
:104F9000882381F0062E000C770B8FEE93E00E94A1
:104FA0006A49892B39F067E070E08FEC8C0FDF9154
:104FB000CF9108958091740581111CC081E0CB319F
:104FC000F1F04091870550918805FA0130E020E02A
:104FD0000C2E000CDD0B62816C171D0659F5F901D2
:104FE000EE0FFF1FE20FF31FE40FF51F60817181C9
:104FF0008FEFDDCF813051F4CB3529F482E08093FF
:10500000740560E00EC010927405FBCF8230C9F6C3
:105010001092740563E0C23421F02CF464E0C134D2
:1050200081F770E0E5CF62E0C334D9F361E0C434C6
:10503000C1F3E7CF2F5F3F4F33962A30310559F642
:10504000E0CFEF92FF920F931F93CF93DF93EC018A
:105050008B01CA01E881F981E684F784DA01ED91D8
:10506000FC910284F385E02D1995682FC8010E94F8
:10507000C0279B01482FB801CE01F701DF91CF91E6
:105080001F910F91FF90EF9019942F923F924F92A2
:105090005F926F927F928F929F92AF92BF92CF92C8
:1050A000DF92EF92FF920F931F93CF93DF9300D085
:1050B00000D01F92CDB7DEB71C017B836A835F836C
:1050C0004E83DA01ED91FC910484F585E02DCA014F
:1050D00019958D3209F041C0AE81BF81ED91FC91EF
:1050E00011970284F385E02DCD011995AE81BF8122
:1050F000ED91FC9111970484F585E02DCD01199572
:10510000BC018FEE93E00E946A49892B09F0B1C07F
:10511000D101ED91FC910684F785E02D24E030E08B
:105120004FEF6A817B81C10127960FB6F894DEBFED
:105130000FBECDBFDF91CF911F910F91FF90EF90E8
:10514000DF90CF90BF90AF909F908F907F906F90A7
:105150005F904F903F902F901994682F880F770B96
:105160008FEE93E00E946A49892B09F4E0C080E049
:10517000EE81FF81F485FD83FF2309F4D0C0412C2B
:10518000512C20E8622E2FEB722E811106C0412C8B
:10519000512C90E8692E9FE3792E8E819F810E9489
:1051A000230F8C0197FDB7C0AE81BF81ED91FC91BB
:1051B0000284F385E02D8D32910509F05CC0812CCD
:1051C000912C80E8A82E8FE3B82EC12CD12C76012B
:1051D00019821C820130110561F10D32110509F4AB
:1051E00056C00E32110509F455C0C801C0970A9780
:1051F00000F5AAE0B0E0A70196010E94D34468013F
:10520000110FEE08FF08C60ED71EE81EF91EB0E308
:10521000CB1AD108E108F108E981EE2351F02DEC19
:105220003CEC4CEC5DE3C501B4010E9415444B011C
:105230005C01AE81BF81ED91FC9111970284F385F1
:10524000E02DCD0119958E819F810E94230F8C0145
:10525000C0970A9708F4BECF0E321105F1F4B98158
:10526000BB2309F4B7CFFC81FF2369F1FC81F983EB
:105270001BC081E07DCFC0970A9708F4A0CF0E3203
:10528000110509F49CCF8E819F81199586CFFD81F0
:10529000FC83CFCF2D812983CCCF0130110509F4B8
:1052A00099CFEC81EE2341F0F094E094D094C09437
:1052B000C11CD11CE11CF11CC701B6010E94B64300
:1052C0002981222341F0C701B6010E94B643A501FE
:1052D00094010E941544D1011296ED91FC913C96E7
:1052E000259134913F832E839B01AC01C301B20110
:1052F0000E9415440E94CC45AE81BF816D937C9382
:1053000081E0F10187830190F081E02D0684F7852B
:10531000E02D22E004CF60E070E0CB01DCCFD101D2
:10532000ED91FC910684F785E02D27E0F8CED101C0
:10533000ED91FC9106851785AE81BF81ED91FC91C1
:1053400011970284F385E02DCD011995682F8A818C
:105350009B810E94C0279B01482F6A817B81C101EC
:10536000F801E2CECF93DF9300D01F92CDB7DEB726
:1053700024E06202B0011124680F791F44E050E07C
:10538000CE0101960E94A64369817A818B819C811E
:105390000F900F900F900F90DF91CF910895FC0127
:1053A000808191810E94B229892F08952F923F9286
:1053B0004F925F926F927F928F929F92AF92BF9225
:1053C000CF92EF92FF920F931F93CF93DF93EC0155
:1053D0002B015A01122FE881F9810488F589E02D0B
:1053E00000E021E030E040E061E070E0199560E12C
:1053F00070E0C5010E94C411882309F45DC0912C9E
:10540000812CD501ED91FC910190F081E02DC50139
:105410001995082E000C990B881699060CF0D6C029
:10542000D501ED91FC910088F189E02D682DC50131
:1054300019953C01FC0124813581E881F9810488BA
:10544000F589E02D00E040E061E070E0CE011995C3
:10545000D30114962D913C91E881F9810688F78952
:10546000E02DE12E40E0682DCE011995F301248155
:105470003581E881F9810488F589E02D40E061E01B
:1054800070E0CE011995D301ED91FC912480358017
:10549000EE81FF81612F808191810E94B229C12E0E
:1054A000E82E082D9E0140E0B201C301F1011995DB
:1054B000FFEF8F1A9F0AA5CFE881F9810088F18953
:1054C000E02D612FCE011995E881F9810288F389D9
:1054D000E02D212F40E060E0CE011995312C612FA5
:1054E0008E819F810E94CF2938160CF06FC0D501A4
:1054F000ED91FC910190F081E02DC50119953816D0
:105500000CF064C0D501ED91FC910088F189E02D8B
:10551000632DC50119954C01FC01E480F580E881FB
:10552000F9810484F585E02DC12C00E030E020E015
:10553000412F632DCE011995E881F9810288F38905
:10554000E02D212F432D60E0CE011995D401149652
:105550002D913C91E881F9810488F589E02D40E0A6
:1055600061E070E0CE011995F40124813581E88174
:10557000F9810688F789E02DE12E40E0632DCE0108
:105580001995D40114962D913C91E881F9810488F4
:10559000F589E02D40E061E070E0CE011995D4017D
:1055A000ED91FC9164807580EE81FF81612F808197
:1055B00091810E94B229C12EE82E032D9E0140E068
:1055C000B201C401F3011995339489CFDF91CF91D2
:1055D0001F910F91FF90EF90CF90BF90AF909F9051
:1055E0008F907F906F905F904F903F902F90089595
:1055F0006F927F928F929F92AF92BF92CF92DF92E3
:10560000EF92FF920F931F93CF93DF93EC017B01F7
:105610006A01622E1E8264E170E00E94C411882338
:1056200029F110E000E0E881F9810190F081E02D9E
:10563000CE011995082E000C990B081719070CF0CC
:10564000C3C0E881F9810088F189E02D602FCE0187
:105650001995DC01ED91FC910280F381E02D20E0B1
:10566000A601B70119950F5F1F4FDDCFD701139624
:10567000ED91FC917780CE010E94B711B72DE5E046
:10568000BE02400111248823B1F0D7011396ED9199
:10569000FC9164817581C4010597680F791FFB0136
:1056A00081819281DC01ED91FC910280F381E02DFA
:1056B000262DA601199560E0F601868197810E944A
:1056C000CF29082F8A819B810896FC01259134916E
:1056D000F701A381B48111E021FD11C018962C912E
:1056E000189710E0222359F0FC018591949196952A
:1056F000879596958795F1E08F27182F1170F60101
:10570000A480B58014968D919C91880E991ED40129
:1057100011968D909C9060E170E0C4010E94C411CC
:10572000811105C064E070E0C4010E94C4116620CC
:1057300009F44AC0272D770C330BF901E81BF10956
:10574000CF018A0D9B1DDC017C90B12CA12C011B8B
:10575000802E000F9908172D1A0DA814B904A4F56E
:10576000E881F9810190F081E02DCE01199518179B
:105770005CF5E881F9810088F189E02D612FCE0187
:105780001995DC01ED91FC910280F381E02D20E080
:10579000A601B7011995E881F9810088F189E02D0A
:1057A000612FCE011995DC01ED91FC910680F78106
:1057B000E02D00E020E0A601B7011995811104C099
:1057C000BFEFAB1ABB0AC7CFDF91CF911F910F91EB
:1057D000FF90EF90DF90CF90BF90AF909F908F9011
:1057E0007F906F9008955F926F927F928F929F92B9
:1057F000AF92BF92CF92DF92EF92FF920F931F93DF
:10580000CF93DF93DC0116961C911111ECC0502E42
:10581000022F6A017B01EC0164E170E00E94C41177
:10582000882341F1B12CA12CE881F9810190F0810C
:10583000E02DCE011995082E000C990BA816B9067B
:1058400014F5E881F9810088F189E02D6A2DCE01F7
:105850001995DC01ED91FC910680F781E02D052D75
:1058600020E0A601B70119958111BDC0BFEFAB1AA9
:10587000BB0ADACFF70181819281C817D90711F4E9
:10588000011112C01E81812FDF91CF911F910F91C5
:10589000FF90EF90DF90CF90BF90AF909F908F9050
:1058A0007F906F905F9008950380F481E02DA78032
:1058B000CE010E94B711BA2DE5E0BE0230011124DD
:1058C0008823D1F0D7011396ED91FC91B5E06B1AC6
:1058D000710864817581660D771DFB01818192815C
:1058E000DC01ED91FC910680F781E02D052D21E092
:1058F000A6011995182FC7CF60E0F6018681978120
:105900000E94CF292A813B81285F3F4FF9014591B1
:105910005491F701A381B48141FD61C018969C9117
:105920001897992309F45DC0F901259134913695B2
:10593000279536952795F1E02F272170082F021B18
:10594000F601848095800A2C000CBB0814966D919A
:105950007C91660E771ED30111966D907C9060E16C
:1059600070E0C3010E94C411811105C064E070E0C1
:10597000C3010E94C411A81AB1088A0C9B1CF4012F
:105980007080B12CA12C802E000F9908072D0A0DD4
:10599000A814B9040CF077CFE881F9810190F08167
:1059A000E02DCE01199508170CF06DCFE881F98133
:1059B0000088F189E02D602FCE011995DC01ED9171
:1059C000FC910680F781E02D052D20E0A601B701AE
:1059D0001995811108C0BFEFAB1ABB0AD7CF21E0E0
:1059E000ADCF20E0ABCF11E04ECF2F923F924F9240
:1059F0005F926F927F928F929F92AF92BF92CF925F
:105A0000DF92EF92FF920F931F93CF93DF93CDB767
:105A1000DEB764970FB6F894DEBF0FBECDBF5C0152
:105A20004B013C8B2B8B4E2D1C2DDC011296ED91E6
:105A3000FC91349665917491D901ED91FC910084AB
:105A4000F185E02DC90119958C87D5011296ED914C
:105A5000FC9132968591949185719927459709F02B
:105A60005CC0F401878155E0F52E44805580FF2D00
:105A70008F02400C511C1124D20111968D919C91E2
:105A80001297A816B90609F080C21396ED91FC9101
:105A900065E070E0868597850E94C411082FD201C9
:105AA0001396ED91FC91811152C086859785DC019A
:105AB000ED91FC910680F781E02D20E04B895C8917
:105AC000B2011995882301F1D2011396ED91FC9151
:105AD00086849784D401ED91FC91A480B580AB8934
